:100000000C9452010C9449080C9473080C946F01E1
:100010000C946F010C946F010C946F010C946F01A0
:100020000C946F010C946F010C946F010C94DF071A
:100030000C946F010C948C080C946F010C946F015C
:100040000C946F010C946F010C946F010C946F0170
:100050000C946F0153656E736F72646174656E20EA
:1000600061756600555342207369636865726E203E
:100070002E2E2E004F4B00455200808182838485B6
:10008000868788898A8B8C8D8E8FC0C1C2C3C4C578
:10009000C6C7C8C9CACBCCCDCECF53696368657219
:1000A000756E672064657200506172616D6574657C
:1000B00072202E2E2E004F4B00455200436F6D468E
:1000C00065686C657221004F4B004665686C65720F
:1000D00000206C6F657363686520616C6C6500203F
:1000E0004665686C6572202E2E2E004F4B00206CEA
:1000F0006F657363686520616C6C65004D65737333
:10010000756E67656E2E2E004F4B007365747A74A2
:100110006520416E617265686C61007365747A7404
:10012000652041756C690044656661756C74732067
:100130002E2E2E004F4B0045520053656E736F728A
:10014000203A006175730065696E0053656E736FC8
:100150007274797065203A003E302E2E2E31305662
:1001600044432020202020003E302E2E2E32306DA1
:1001700041202020202020003E342E2E2E32306DB3
:1001800041202020202020003E496D70756C732096
:1001900045696E67616E670045696E6865697420C0
:1001A0003A003E6D626172003E62617220003EB0B4
:1001B000432020003E6C202020003E686C20200060
:1001C0003E6D33202000656E747370722E203D3EAC
:1001D000007365747A6520496E74657276616C008F
:1001E0005A65697420203A00446174756D203A00A4
:1001F0005A65697420203A004665686C6572006132
:1002000075730065696E006E69636874206B6F6E4C
:10021000666967757269657274003E302E2E2E31E4
:10022000305644432020202020003E302E2E2E32F7
:10023000306D41202020202020003E342E2E2E32F2
:10024000306D41202020202020003E496D70756CCB
:10025000732045696E67616E67006E69636874201C
:100260006B6F6E666967757269657274003E6D6268
:100270006172003E62617220003EB0432020003E69
:100280006C202020003E686C2020003E6D33202032
:10029000006E69636874206B6F6E6669677572695A
:1002A0006572740011241FBECFE5D8E0DEBFCDBF5C
:1002B00013E0A0E6B0E0E2E9FFE402C005900D9291
:1002C000A036B107D9F715E0A0E6B3E001C01D9252
:1002D000A13EB107E1F70E947B250C94C7270C943F
:1002E00000000E94A70781E061E00E94220784E5E8
:1002F00090E00E94B017AC0181E061E00E94CE075F
:1003000084E690E00E94B017AC0181E062E00E94B8
:10031000CE070E946725882391F487E790E00E942A
:10032000B017AC018FE062E00E94CE0788EE93E048
:100330000E94B41180E060E00E942207089584E7E3
:1003400090E0EDCFC8EED3E03CC08091760583FF0E
:100350000EC09FB7F89480917605877F80937605CD
:100360009FBF8AB780648ABF8BB780648BBF809140
:10037000760587FD6BC08091760581FF16C0809160
:10038000780580FF0AC0829B7FC09FB7F894809158
:1003900078058E7F809378059FBF9FB7F8948091F2
:1003A00076058D7F809376059FBF8091760584FDCD
:1003B00040C08091760585FD20C08091760580FD46
:1003C0002FC08091760582FFC0CF0E9486060E94D2
:1003D00071010E940A0C9FB7F894809176058B7F7B
:1003E000809376059FBF8AB780648ABF8AB780648E
:1003F0008ABF8BB780648BBFA8CF0E94EC030E949A
:100400000F109FB7F894809176058F7D80937605C5
:100410009FBF8BB780688BBF8091760580FFD1CF5F
:100420009FB7F894809176058E7F809376059FBF65
:10043000C8CF80917F050E94210C9FB7F8948091CE
:1004400076058F7E809376059FBFB3CF829B15C0C4
:100450009FB7F894809176058F77809376059FBF3C
:100460009FB7F89480917805816080937805D09348
:100470007505C09374059FBF7ECF80E161E040E6C3
:1004800050E00E94CE07E4CF80E161E042E650E018
:100490000E94CE077ACF83B986B78B70846886BFF7
:1004A0000895882329F486B78F70806886BF0895E1
:1004B00086B78F70806C86BF0895949A26B724699A
:1004C00026BF16BE0E94E11380E090E00895EF92EF
:1004D000FF920F931F93CF93DF93F62E8A0196B767
:1004E000946A96BF06B607FEFDCF91B1987F98300B
:1004F00009F067C092EA93B996B79B70946896BF6B
:1005000006B607FEFDCF91B1987F983109F04EC035
:1005100083B986B78B70846886BF06B607FEFDCFA9
:1005200081B1887F883209F05CC086B7846A86BF53
:1005300006B607FEFDCF83EA83B986B78B70846861
:1005400086BF06B607FEFDCF81B1887F803409F0F3
:1005500043C081E08F15A8F4EF2CE80181E00E94F0
:10056000510206B607FEFDCF83B18993EA94E1E01C
:10057000EE16A1F76F2D625070E06F5F7F4F060F90
:10058000171F80E00E94510206B607FEFDCF83B11F
:10059000F801808386B7846986BF81E090E0DF91AF
:1005A000CF911F910F91FF90EF90089582E191E01C
:1005B0000E945D02DF91CF911F910F91FF90EF900C
:1005C000089581E191E00E945D02DF91CF911F913A
:1005D0000F91FF90EF90089584E191E00E945D02F9
:1005E000E9CF83E191E00E945D02DF91CF911F91FD
:1005F0000F91FF90EF900895CF93DF93C0E8D5E07F
:1006000082E067E0AE010E946702AE01495F5F4F82
:1006100089E064E00E946702809180058F77809373
:100620008005809181058F77809381058091820577
:100630008F7380938205809183058F7380938305E8
:1006400080918405877080938405809185058F71E2
:1006500080938505809187058F77809387058091AA
:1006600088058F7380938805809189058F738093A7
:10067000890580918A05877080938A05DF91CF91E3
:100680000895FA0196B7946A96BF06B607FEFDCFA5
:1006900091B1987F9830A9F592EA93B996B79B707B
:1006A000946896BF06B607FEFDCF91B1987F98314A
:1006B00019F583B986B78B70846886BF06B607FEC6
:1006C000FDCF81B1887F883209F5662379F0819169
:1006D00083B986B78B70846886BF06B607FEFDCFE8
:1006E00081B1887F883291F4615089F786B7846937
:1006F00086BF81E090E0089582E091E00E945D0273
:10070000089581E091E00E945D02089583E091E008
:100710000E945D020895CF93DF930F92CDB7DEB7AD
:10072000198280E061E0AE014F5F5F4F0E9441039C
:1007300081E061E0AE014F5F5F4F0E9441038DE0B9
:1007400061E0AE014F5F5F4F0E9441038EE061E0C8
:10075000AE014F5F5F4F0E9441038FE061E0AE0149
:100760004F5F5F4F0E94410382E061E0AE014F5F47
:100770005F4F0E94670289818F77898382E061E001
:10078000AE014F5F5F4F0E9441030F90DF91CF9109
:100790000895CF93DF930F92CDB7DEB78EE061E07F
:1007A000AE014F5F5F4F0E94670289818068837846
:1007B00089838EE061E0AE014F5F5F4F0E9441038D
:1007C00081E0898361E0AE014F5F5F4F0E9441038A
:1007D0000F90DF91CF910895CF93DF930F92CDB714
:1007E000DEB7198281E061E0AE014F5F5F4F0E948A
:1007F00041038EE061E0AE014F5F5F4F0E94410315
:100800000F90DF91CF910895CF93DF9300D0CDB7B4
:10081000DEB789836A838EE061E0AE014E5F5F4F91
:100820000E9441038FE061E0AE014F5F5F4F0E9485
:1008300041030F900F90DF91CF91089589E064E01C
:1008400047E855E00E944103089582E067E040E8F0
:1008500055E00E9441030895CF93DF9396B7946AC1
:1008600096BF06B607FEFDCF91B1987F9830D9F5B7
:1008700090E993B996B79B70946896BF06B607FE49
:10088000FDCF91B1987F983139F583B986B78B70D8
:10089000846886BF06B607FEFDCF81B1887F8832A7
:1008A00009F03FC086B7846A86BF06B607FEFDCF53
:1008B00081E983B986B78B70846886BF06B607FE68
:1008C000FDCF81B1887F8034A9F084E591E00E945A
:1008D0005D02DF91CF91089582E591E00E945D0273
:1008E000DF91CF91089581E591E00E945D02DF9153
:1008F000CF91089581E00E94510206B607FEFDCF18
:1009000083B1D82F80E0C82F0E94510206B607FE9F
:10091000FDCF83B190E08C2B9D2B26B7246926BF99
:10092000DFCF83E591E00E945D02DF91CF910895D2
:1009300096B7946A96BF06B607FEFDCF91B1987F31
:100940009830A9F590E993B996B79B70946896BFD3
:1009500006B607FEFDCF91B1987F9831F1F483B9C7
:1009600086B78B70846886BF06B607FEFDCF81B15F
:10097000887F8832B9F463B986B78B70846886BF84
:1009800006B607FEFDCF81B1887F883259F486B75D
:10099000846986BF81E090E0089582E491E00E943E
:1009A0005D02089583E491E00E945D02089581E272
:1009B00091E00E945D02089581E060E00E94980449
:1009C0008CE291E00E94B41180E00E942C0490938C
:1009D000790581E061E00E9498040895CF92DF924A
:1009E000FF920F931F93CF93DF930F92CDB7DEB794
:1009F0008A0126B7246A26BF06B607FEFDCF21B1BD
:100A0000287F283009F080C020EA23B926B72B7050
:100A1000246826BF06B607FEFDCF21B1287F283106
:100A200009F060C093B996B79B70946896BF06B6FC
:100A300007FEFDCF91B1987F983209F060C083B96D
:100A400086B78B70846886BF06B607FEFDCF81B17E
:100A5000887F883209F053C086B7846A86BF06B69D
:100A600007FEFDCF81B1887F803109F04DC081EA5A
:100A700083B986B78B70846886BF06B607FEFDCF44
:100A800081B1887F803409F044C06230C0F06801D1
:100A9000F62E81E069830E945102698106B607FE45
:100AA000FDCF83B1F60181936F01FA94F1E0FF1657
:100AB00081F7625070E06F5F7F4F060F171F80E075
:100AC0000E94510206B607FEFDCF83B1F801808374
:100AD00086B7846986BFF3E0FA95F1F7000081E0FC
:100AE00090E004C082E391E00E945D020F90DF91EC
:100AF000CF911F910F91FF90DF90CF90089583E3E6
:100B000091E00E945D02F2CF81E391E00E945D02DC
:100B1000EDCF84E391E00E945D02E8CFFA01949862
:100B200026B7246A26BF06B607FEFDCF21B1287F6F
:100B3000283009F03FC020EA23B926B72B7024687B
:100B400026BF06B607FEFDCF21B1287F283169F503
:100B500093B996B79B70946896BF06B607FEFDCF13
:100B600091B1987F9832E1F483B986B78B7084682D
:100B700086BF06B607FEFDCF81B1887F883281F43B
:100B80006623E9F0819183B986B78B70846886BF4C
:100B900006B607FEFDCF81B16150887F883281F3B0
:100BA00083E291E00E945D02089582E291E00E945A
:100BB0005D02089581E291E00E945D02089586B78A
:100BC000846986BF949A8AE090E00E94B41181E023
:100BD00090E00895EF92FF920F931F93CF93DF93CE
:100BE000EC01162F7A010197860F911D8C279D2706
:100BF0008078009729F18C2F8F7700E8081BCE01B1
:100C0000602F0E948E05009749F480E090E0DF910C
:100C1000CF911F910F91FF90EF900895802F90E05A
:100C2000612F601BA701480F591F8C0F9D1F0E9449
:100C30008E05DF91CF911F910F91FF90EF90089556
:100C4000CE010E948E05DF91CF911F910F91FF90F1
:100C5000EF90089517BA8FEF88BB8FE380937D05DF
:100C60000E949D1A089582E4EBE8F5E0DF011D92F1
:100C70008A95E9F7089580E890E06BE875E042E432
:100C800050E00E94A113089582E083BF89E182BFF2
:100C900087E18CBF089508950895089581B1837008
:100CA00081B910B886B7846986BF16BE08951AB890
:100CB00010BC813031F019B888E98AB986E880BD66
:100CC00008958BE089B988E98AB986E880BD0895DE
:100CD00015BE11BC1BBE1ABE10BE80EE8ABB80ECD6
:100CE0008BBB17BA8FEF88BB80E884BB85BB83E1E1
:100CF00081BB8CE182BB13BE15BC19BE18BE1FBCE4
:100D00001EBC1DB81EB810B816BE089521E0209371
:100D10007C059FEF97BB18BA81B3806E81BB82B30D
:100D20008F7182BBDF98959896989798EFEFF3E2D2
:100D30003197F1F700C0000080E388BBF6E0FA9538
:100D4000F1F70000979A36E03A95F1F7000097988E
:100D5000ECECFAE03197F1F700C0000088BBF6E058
:100D6000FA95F1F70000979A36E03A95F1F700000E
:100D70009798ECECFAE03197F1F700C0000088BBDF
:100D8000F6E0FA95F1F70000979A36E03A95F1F718
:100D9000000097988DE38A95F1F700C088E388BB3F
:100DA000E6E0EA95F1F70000979AF6E0FA95F1F798
:100DB000000097983DE33A95F1F700C08CE088BBBE
:100DC00086E08A95F1F70000979AE6E0EA95F1F758
:100DD00000009798FDE3FA95F1F700C028BB36E0D4
:100DE0003A95F1F70000979A86E08A95F1F70000AE
:100DF0009798EDE3EA95F1F700C086E088BBF6E04E
:100E0000FA95F1F70000979A36E03A95F1F700006D
:100E100097988DE38A95F1F700C018BADF9A98BBCE
:100E200082B38F7182BB10927C05089588BB86E0E7
:100E30008A95F1F70000979A86E08A95F1F700000D
:100E400097980895880F860F845F91E090937C05B2
:100E50002FEF27BB18BA91B3906E91BB92B39F71DD
:100E600092BBDF98959888BB86E08A95F1F70000E1
:100E7000979A86E08A95F1F70000979885E28A951F
:100E8000F1F718BADF9A28BB82B38F7182BB109238
:100E90007C050895633010F4813108F0089591E0E5
:100EA00090937C059FEF97BB18BA21B3206E21BBAE
:100EB00022B32F7122BBDF989598E62FF0E031978F
:100EC000E295F295F07FFE27E07FFE27E80FF11D07
:100ED000E758FF4FE491E8BB86E08A95F1F7000000
:100EE000979A86E08A95F1F70000979885E28A95AF
:100EF000F1F718BADF9A98BB82B38F7182BB109258
:100F00007C05089591E090937C052FEF27BB18BADC
:100F100091B3906E91BB92B39F7192BBDF98959AFB
:100F200088BB86E08A95F1F70000979A86E08A955B
:100F3000F1F70000979885E28A95F1F718BADF9AE1
:100F400028BB82B38F7182BB10927C05089521E08B
:100F500020937C059FEF97BB18BA81B3806E81BB4D
:100F600082B38F7182BBDF98959828BB86E08A9503
:100F7000F1F70000979AE6E0EA95F1F700009798FC
:100F8000E9E9F3E03197F1F700C018BADF9A98BBAE
:100F900082B38F7182BB10927C050895CF93DF934B
:100FA000EA010E944A078881882331F021960E9435
:100FB000820789918823D9F7DF91CF9108951F92F5
:100FC0000F920FB60F9211242F933F934F935F937D
:100FD0006F937F938F939F93AF93BF93EF93FF9301
:100FE00089E182BF08B601FE03C088B7826088BF6E
:100FF0009FB7F894809176058160809376059FBFB6
:1010000080917005909171059C012F5F3F4F309347
:1010100071052093700523E0883E920768F01092D6
:10102000710510927005809172059091730501967B
:10103000E0E7F5E0938382838091740590917505D4
:10104000009739F001979093750580937405009788
:10105000B9F0829902C00E94EA100E94C80EFF9166
:10106000EF91BF91AF919F918F917F916F915F9120
:101070004F913F912F910F900FBE0F901F90189599
:101080009FB7F894809176058260809376059FBF24
:10109000E0CF1F920F920FB60F9211248F939F9360
:1010A0008BB78F7B8BBF82990FC09FB7F8948091CD
:1010B00076058460809376059FBF9F918F910F90F6
:1010C0000FBE0F901F9018959FB7F89480917605EA
:1010D0008860809376059FBF9F918F910F900FBE80
:1010E0000F901F9018951F920F920FB60F92112418
:1010F0008F939F938BB78F778BBF9FB7F894809117
:1011000076058062809376059FBF9F918F910F90A7
:101110000FBE0F901F9018951F920F920FB60F924F
:1011200011242F933F934F935F936F937F938F93EC
:101130009F93AF93BF93EF93FF930E94F519FF9195
:10114000EF91BF91AF919F918F917F916F915F913F
:101150004F913F912F910F900FBE0F901F901895B8
:1011600085B7816085BF8BB780648BBF8BB7806884
:101170008BBF8AB78F718ABF81E089BF0895282FFE
:10118000216061157105A1F03FB7F8949091760543
:101190009E7F909376053FBF909176059223E1F371
:1011A0009091760561507040982359F384E008953A
:1011B00081E0089528E088E190E00FB6F894A895C2
:1011C00081BD0FBE21BDFFCFCF93FC01C0819FB772
:1011D000F894809176058F7E809376059FBF0E945C
:1011E000A707CC23D9F58BE191E00E94B017AC01A1
:1011F00081E061E00E94CE070E94D71087E291E073
:101200000E94B017AC0181E062E00E94CE070E940C
:101210006B1E8823C9F084E391E00E94B017AC01F3
:101220008EE062E00E94CE070E940F10809176054A
:101230008871E1F39FB7F894809176058F7E809353
:1012400076059FBFCF91089587E391E00E94B01784
:10125000AC018EE062E00E94CE07E8CFC13071F6AB
:101260008BE091E00E94B017AC0181E061E00E9448
:10127000CE070E94C410C2CFCF93DF9300D0CDB76A
:10128000DEB719821A829FB7F894809176058F7E17
:10129000809376059FBF0E94A7078EEE90E00E9484
:1012A000B017AC0181E061E00E94CE078CEF90E0C6
:1012B0000E94B017AC0181E062E00E94CE0780E09E
:1012C00090E062E0AE014F5F5F4F0E94EA0584EF5D
:1012D00091E00E94B41188E091E00E94B017AC0147
:1012E0008DE062E00E94CE07809176058871E1F37F
:1012F0009FB7F894809176058F7E809376059FBF87
:101300000F900F90DF91CF9108959FB7F89480913F
:1013100076058F7E809376059FBF0E94A70781ED9B
:1013200090E00E94B017AC0181E061E00E94CE071E
:101330008FED90E00E94B017AC0181E062E00E9466
:10134000CE071092640380E093E060E00E948C136B
:1013500081E093E060E00E948C1382E093E060E023
:101360000E948C1383E093E060E00E948C1384E081
:1013700093E060E00E948C1384EF91E00E94B4112E
:101380008BEE90E00E94B017AC018DE062E00E940D
:10139000CE07809176058871E1F39FB7F89480912C
:1013A00076058F7E809376059FBF08959FB7F8944A
:1013B000809176058F7E809376059FBF0E94CD1722
:1013C0009FB7F894809176058F7E809376059FBFB6
:1013D00008950E94A70781E061E044E650E00E9482
:1013E000CE0781E062E042E750E00E94CE070E9413
:1013F0007C1B8823F1F087EC90E00E94B017AC01D1
:1014000085E062E00E94CE079FB7F8948091760550
:101410008F7E809376059FBF809176058871E1F37A
:101420009FB7F894809176058F7E809376059FBF55
:1014300008958AEC90E0E1CFCF930E94EB1CC82F77
:101440000E94C51A0E94A70781E061E046E750E0CC
:101450000E94CE0781E062E042E750E00E94CE07A2
:10146000C130F9F08CEB90E00E94B017AC0185E040
:1014700062E00E94CE079FB7F894809176058F7E38
:10148000809376059FBF809176058871E1F39FB7C1
:10149000F894809176058F7E809376059FBFCF91DB
:1014A000089585E062E045E653E00E94CE07E3CF71
:1014B0009FB7F894809176058F7E809376059FBFC5
:1014C0000E94A711809176058871E1F39FB7F89487
:1014D000809176058F7E809376059FBF08959FB794
:1014E000F894809176058F7E809376059FBF0E9449
:1014F00089189FB7F894809176058F7E8093760542
:101500009FBF0895CF933FB7F894209176052F7E23
:10151000209376053FBFFC0180810E94BD0C0E9494
:101520006B1EC82F0E94A7078AE990E00E94B0179F
:10153000AC0181E061E00E94CE0788EA90E00E9461
:10154000B017AC0181E062E00E94CE07CC2379F4B1
:1015500089EB90E00E94B017AC018FE062E00E943E
:10156000CE0788EE93E00E94B411CF91089586EBE8
:1015700090E00E94B017AC018FE062E00E94CE07BD
:101580000E940F1088EE93E00E94B411CF9108954D
:101590009F92AF92BF92CF92DF92EF92FF920F9302
:1015A0001F93CF93DF936C01FC01E480F58082816F
:1015B000882309F482C0F701208130E0828190E025
:1015C000821B930B181619060CF077C0C901880FFF
:1015D000991F820F931FEC01CC0FDD1FCC0FDD1F75
:1015E000CC0FDD1FC81BD90B2596CE0DDF1D90E05B
:1015F000092F0F5FF601808161816F5F690F8F5F37
:101600000E944A07A02EBB24F60113811150F70156
:10161000218130E02F5F3F4F8081A501480F511D90
:101620002417350709F445C080E20E948207112380
:1016300071F08B81882379F12496992403C08991D4
:10164000882351F10E94820793941915C1F7F6017E
:101650008281081790F5F701408150E0CA018A0D98
:101660009B1D9C01220F331F280F391FE901CC0F4E
:10167000DD1FCC0FDD1FCC0FDD1FC21BD30B25964A
:10168000CE0DDF1D828190E0841B950BA816B90654
:10169000A4F4902FADCF992480E20E948207939406
:1016A0009116A8F680E20E94820793949116A0F307
:1016B000CECF8EE30E948207BACFDF91CF911F91E8
:1016C0000F91FF90EF90DF90CF90BF90AF909F90E1
:1016D0000895CF93DF93EC01EC81FD81218130E00F
:1016E000C901880F991F820F931FDC01AA0FBB1F2E
:1016F000AA0FBB1FAA0FBB1FA81BB90B1596AE0FD5
:10170000BF1F8C9180FD12C0BD016D5F7F4F119690
:10171000ED91FC91129753968D919C915497099558
:10172000CE010E94C80ADF91CF91089553960D9083
:10173000BC91A02D1496FC93EE931397BD83AC83BC
:10174000CE010E94C80ACE010E94C80ADF91CF9143
:101750000895DC011496ED91FC91159741814F5F3E
:1017600082814817A0F4418312965C911297242F2E
:1017700030E06081852F90E0860F911D2817390792
:101780001CF0451B4F5F4083CD010E94C80A08959D
:10179000DC011496ED91FC9115972181222341F0F3
:1017A000215021833081231708F420830E94C80A26
:1017B0000895DC011496ED91FC91159723813481F5
:1017C0002115310531F015963C932E9314970E9404
:1017D000C80A0895FC0124813581FB0134832383E9
:1017E000FC01758364830E94C80A089585E890E02F
:1017F0000E94C80B089585E890E00E94A90B089507
:1018000085E890E00E94D90B089585E890E00E9459
:10181000690B089510928B0010928C0080918900C2
:1018200090918A0090938F0080938E008BE890E0D7
:1018300090938A008093890085E890E00E94C80A0E
:101840000895873391F0883348F08D3389F08E33D3
:1018500061F08B3311F40E94000C08958F3159F020
:101860008F32D9F70E94FB0B08950E94050C089552
:101870000E94F60B08950E94000C08958F929F928B
:10188000AF92BF92CF92DF92EF92FF920F93CF93DE
:10189000DF93C82F0E94A70781ED91E00E94B01747
:1018A000AC0181E061E00E94CE0780EE91E00E94F1
:1018B000B017AC0181E062E00E94CE0789E062E0EF
:1018C00040EF51E00E94CE07D0E0219780E090E009
:1018D00067E170E042E029E002E00E9469149C01A7
:1018E00040E15EE00E943E274B015C01CE01880F83
:1018F000991F8C0F9D1FEC01CC0FDD1FCC0FDD1F3E
:10190000C80FD91FC557DA4F89869A86AB86BC8621
:1019100080E090E06BE370E042E02CE00E9469140C
:101920009C014CE350E00E943E276B017C01C80CF7
:10193000D91CEA1CFB1CC986DA86EB86FC8680E093
:1019400090E06BE370E042E02FE00E946914A0E0B9
:10195000B0E08C0D9D1DAE1DBF1D89879A87AB879A
:10196000BC87DF91CF910F91FF90EF90DF90CF90E8
:10197000BF90AF909F908F9008954F925F927F920B
:101980008F929F92AF92BF92CF92DF92EF92FF928F
:101990000F931F93CF93DF93CDB7DEB7C058D040DE
:1019A0000FB6F894DEBF0FBECDBF782EFF24A82E51
:1019B000BB240894A108B1084501880C991CC401F6
:1019C0008A0D9B1D6C01CC0CDD1CCC0CDD1CC80EE3
:1019D000D91E8BE895E0C80ED91E38E0432E512C55
:1019E0004C0C5D1C91E0F91609F405C1E2E0FE160D
:1019F00009F4BDC08AE391E00E94B017BC01CE019A
:101A000001960E94C02783E491E00E94B017BC01B8
:101A1000CE0141960E94C02787E491E00E94B01752
:101A2000BC01CE0181960E94C02702E00E94A70758
:101A300081E061E0AE014F5F5F4F0E94CE0781E021
:101A400062E0AE014F5E5F4F0E94CE0781E062E030
:101A50000E944A0781E061E00E94220711E0809124
:101A600076058C71E1F3809176058C7009F059C090
:101A700080917F058F3209F46BC08D3309F46DC0FE
:101A8000412F50E042955295507F5427407F542774
:101A900081E090E08C0F9D1F480F591F81E062E0AC
:101AA0000E94CE0781E062E00E944A079FB7F89447
:101AB000809176058F7E809376059FBF80917F050C
:101AC0008B3309F44FC08E3351F691E0F91609F4C7
:101AD000C1C0F2E0FF1609F4B8C0F6011683113058
:101AE00001F1F394F3E0FF1609F07CCFA80CB91CC8
:101AF0007501EE0CFF1CEE0CFF1CEA0CFB1C8BE8C6
:101B000095E0E80EF91EF7018781843009F4A6C03C
:101B1000872D0E943E0C0E943B0680E060E00E9400
:101B20002207C058DF4F0FB6F894DEBF0FBECDBFFF
:101B3000DF91CF911F910F91FF90EF90DF90CF90A9
:101B4000BF90AF909F908F907F905F904F9008953F
:101B5000113009F495CF115093CF101708F090CFA2
:101B60001F5F8ECF80E060E00E942207DACF88E915
:101B700091E00E94B017BC01CE0101960E94C027DF
:101B800082EA91E00E94B017BC01CE0141960E940A
:101B9000C02788EA91E00E94B017BC01CE0181966F
:101BA0000E94C0278EEA91E00E94B017BC01CE01CE
:101BB000C1960E94C02784EB91E00E94B017BC013F
:101BC000CE018F5B9F4F0E94C0278AEB91E00E945D
:101BD000B017BC01CE018F5A9F4F0E94C02780ECE6
:101BE00091E00E94B017BC01CE018F599F4F0E9417
:101BF000C02706E01BCF8BE491E00E94B017BC0128
:101C0000CE0101960E94C02788E591E00E94B0179E
:101C1000BC01CE0141960E94C02788E691E00E9457
:101C2000B017BC01CE0181960E94C02788E791E0E1
:101C30000E94B017BC01CE01C1960E94C027F1E0FE
:101C40007F1609F499C003E0F1CEF2011083F6018A
:101C5000168145CFF6011783168141CF0E94A70751
:101C600081E061E049EF51E00E94CE0786EC91E00F
:101C70000E94B017AC0188E061E00E94CE0781E0CD
:101C800062E04BEF51E00E94CE07F701408550E043
:101C900042955295507F5427407F54274F5F5F4FA6
:101CA00081E090E08C0F9D1F480F591F88E062E093
:101CB0000E94CE0781E061E00E94220781E090E06F
:101CC0006FEF7FEF45E022E001E00E946914BC0164
:101CD00080E090E00E942926862E472ED82EB92E2D
:101CE000862F942DAD2DBB2DBC01CD0120E030E021
:101CF000A9010E949125882309F410CF81E090E08A
:101D00006FEF7FEF45E022E002E00E946914BC0122
:101D100080E090E00E942926162F072FC82EA92EBA
:101D2000A801852F942FAC2DBA2DBC01CD0120E048
:101D300030E0A9010E949125882309F4EFCEA80183
:101D4000852F942FAC2DBA2DBC01CD01082D142D5B
:101D50002D2D3B2DA90198010E949525DC01CB0179
:101D6000F701818B928BA38BB48B85B3807485BB79
:101D700084B3807484BBCCCE88E891E00E94B01715
:101D8000BC01CE018F5B9F4F0E94C02704E04ECE66
:101D900080919205843009F00895809191058230F8
:101DA000D9F783B3807490919005992309F19150EC
:101DB00090939005992381F790918F05981761F37F
:101DC00080938F0580918D0590918E052FEF8F3F29
:101DD000920711F3019690938E0580938D059FB71E
:101DE000F894809176058068809376059FBF08956A
:101DF00090918F05981781F2882319F080938F05B1
:101E0000089582E380939005089587B984E886B9A0
:101E100068E080E090E0369A349BFECF349A44B17B
:101E200055B1352F20E050E0422B532B840F951FE6
:101E3000615089F716B817B8969587959695879546
:101E40009695879508950F931F93E1E9F5E00FEFBD
:101E50001FEF98018081823051F03F9685E0ED3C84
:101E6000F807C1F7B801C9011F910F910895878143
:101E70009085A185B28580179107A207B30768F7FF
:101E80008C019D01EACFEF92FF921F93CF93DF93D6
:101E9000CDB7DEB72B970FB6F894DEBF0FBECDBF20
:101EA0007C01162F80E090E062E0AE014F5F5F4F53
:101EB0000E94EE0489819A8123E0883E920708F00F
:101EC00065C080E895E00E94CA15DC01CB018B83D8
:101ED0009C83AD83BE83809179058F8380917A0541
:101EE00090917B0599878887612F70E0CB01880FDF
:101EF000991F860F971FFC01EE0FFF1FEE0FFF1FAC
:101F0000E80FF91FE557FA4F878190E0019783703A
:101F10009070982F88279295907F97013F70822B21
:101F2000932B70E4679F702D66271124862B972BC7
:101F30009B878A8729813A81C901880F991F880F59
:101F4000991F880F991F820F931F409669E0AE0179
:101F50004D5F5F4F0E94EA0589819A8101969A83BD
:101F6000898380E090E062E0AE014F5F5F4F0E94A6
:101F7000EA0581E02B960FB6F894DEBF0FBECDBF09
:101F8000DF91CF911F91FF90EF9008950E946725F8
:101F9000882309F496CF1A82198293CFCF93C82F42
:101FA0000E94DC0484E00E94050F9C0148E356E394
:101FB0000E943E27DC01CB01EAE0B695A7959795F4
:101FC0008795EA95D1F790937B0580937A052C2F1E
:101FD00030E0C901880F991F820F931FFC01EE0F9B
:101FE000FF1FEE0FFF1FE80FF91FE557FA4F87811C
:101FF000843041F08C2F0E94050F6C2F0E94430FFC
:10200000CF91089580918D0590918E056C2F0E943F
:10201000430F10928E0510928D05CF910895CF92A7
:10202000DF92EF92FF920F931F93CF93DF9300D035
:102030000F92CDB7DEB701E915E0980140E050E01E
:10204000BA0190E0F9018081823009F466C09F5F97
:10205000215F3F4F9430B1F741155105610571057E
:1020600009F44FC0CC24CA94DC2C7601F80180819D
:10207000823009F460C0015F1F4FF5E00D3C1F077F
:10208000A9F78FEFC816D104E104F10408F477C072
:10209000C701B6012CE330E040E050E00E948C27FD
:1020A00069017A01EFEFCE16D104E104F10431F0B9
:1020B00028F0BFEFCB2ED12CE12CF12C8C2D63E03E
:1020C0000E940404C701B6012CE330E040E050E078
:1020D0000E944D276B017C01E8E9F5E08081918148
:1020E000A281B3818C199D09AE09BF0980839183B8
:1020F000A283B3833F9685E0E43DF80779F70E9419
:10210000C9030F900F900F90DF91CF911F910F9106
:10211000FF90EF90DF90CF900895478150856185C3
:102120007285411551056105710591F041E050E05E
:1021300060E070E08CCF87819085A185B2858C1599
:102140009D05AE05BF0508F096CF6C017D0193CFCC
:10215000892F2A833B8399830E94CE0F2A813B815A
:10216000F901438154816581768147835087618776
:10217000728741E050E060E070E0998168CF8C2D7B
:1021800062E00E940404A8CF82E08093910584E07D
:102190008093920588E592E0A0E0B0E080939405FA
:1021A00090939505A0939605B0939705089582E0C6
:1021B0008093910584E08093920580EB94E0A0E009
:1021C000B0E08093940590939505A0939605B09305
:1021D0009705089580917C05882379F5809176058F
:1021E00084FD2BC017BA8FEF88BB86B38F73909195
:1021F0007D05981741F08F3331F080937D0581E3A1
:1022000080937E05089590917E059923B9F48F33CC
:10221000A1F490917E05992381F420917D05909100
:102220007F05291751F480937D059FB7F89480911D
:1022300076058061809376059FBF089591509093B5
:102240007E05992321F790917D05981721F09FE352
:1022500090937D05DCCF80937F05D9CFDC01FB0116
:1022600013968C91139782958F70840F80831396A9
:102270008C9113978F70840F81839EE292831596C1
:102280008C91159782958F70840F838315968C910E
:1022900015978F70840F8483958316968C9116976B
:1022A00082958F70840F868316968C9116978F7007
:1022B000840F87831086CB010895DC01FB01129601
:1022C0008C91129782958F70840F808312968C91D7
:1022D00012978F70840F81839AE3928311968C9169
:1022E000119782958F70840F838311968C9111972B
:1022F0008F70840F848395838C9182958F70840F67
:1023000086838C918F70840F87831086CB0108950C
:10231000AC016623D1F0615070E002969B01220F60
:10232000331F820F931FFA013DE02AE0308321839F
:1023300032968E179F07D1F7FB013196EE0FFF1FE4
:10234000E40FF51F1082CA010895FC01FBCF81E064
:1023500061E042E052E00E94CE0781E062E043E1AA
:1023600052E00E94CE0708953FB7F8942091760579
:102370002E7F209376053FBF009771F02091760560
:1023800020FFFCCF3FB7F894209176052E7F209355
:1023900076053FBF019791F7089580538A3020F06A
:1023A0008151863010F08FEF0895865F08958F92E7
:1023B0009F92BF92CF92DF92EF92FF920F931F9363
:1023C000CF93DF936C01662389F16150862E9924A7
:1023D0007C010894E11CF11CE80CF91CEC018C0157
:1023E00088810E94CD11B82EB294F0EFBF22F8017F
:1023F000B082898122960E94CD118B29F8018193A8
:102400008F01EE15FF0561F7F4013196EC0DFD1D0E
:102410001082C601DF91CF911F910F91FF90EF9035
:10242000DF90CF90BF909F908F900895FC01F0CFE8
:102430008F708A3010F0895C0895805D0895FB01EB
:10244000292F22952F702A30E0F4205D2083292F38
:102450002F702A30E0F4205D21839C013295229573
:102460002F7023273F7023272F702A3090F4205D90
:1024700022838F708A3090F0895C83831482CF012D
:102480000895295C2083292F2F702A3020F3295C9E
:10249000E3CF295C22838F708A3070F7805D83835D
:1024A0001482CF0108950F931F938B019C01FA01B1
:1024B000DC01CB01072E7CE1B695A7959795879512
:1024C0007A95D1F7702D8F708A3008F04BC0805DFF
:1024D0008083832F8F708A3008F04BC0805D8183AA
:1024E000D901C80164E1B695A795979587956A9536
:1024F000D1F78F708A3008F050C0805D8283822FC0
:102500008F708A3008F047C0805D8383D901C8018D
:102510005CE0B695A795979587955A95D1F78F70FA
:102520008A30B8F5805D8483812F8F708A3078F58A
:10253000805D8583D901C80144E0B695A79597953C
:1025400087954A95D1F78F708A30A8F4805D86838D
:102550000F700A30A8F0095C07831086CF011F9125
:102560000F910895895C8083832F8F708A3008F4DF
:10257000B5CF895CB4CF895C86830F700A3058F779
:10258000005D07831086CF011F910F910895895C2C
:10259000D0CF895CC8CF895CB8CF895CAFCFCF93EF
:1025A000DF93EB014130C9F0DB0113961C92FD0172
:1025B0009D01235030405AE0652F0E946C27905DAA
:1025C0009293E217F307C1F7413019F414978DE2A3
:1025D0008C93CE01DF91CF91089587FD04C0DB017C
:1025E000139640E0E3CF8195DB011496DFCFCF93C4
:1025F000DF93EB011D82FB0135962AE030E0B90143
:102600000E947827805D8293CB01EC17FD07B9F714
:10261000CF01DF91CF9108958F929F92AF92BF9299
:10262000CF92DF92EF92FF920F931F93CF93DF939E
:102630005A0120E030E048EC52E40E94DB260E9480
:10264000FD25AC01F501178285010A5F1F4FC1E02E
:102650008AE0C82ED12CE12CF12CDEE2C33081F0CF
:10266000CA01A70196010E948C27605DF801608372
:10267000C630C9F001501040B901CF5FC33081F7B7
:10268000F801D0834801089481089108CA01A70184
:1026900096010E948C27605DF40160830250104017
:1026A000B901CF5FEBCFC501DF91CF911F910F91A2
:1026B000FF90EF90DF90CF90BF90AF909F908F9062
:1026C00008950F931F93282F22952F7030E08901D2
:1026D000000F111F220F331F220F331F220F331F32
:1026E000020F131F8F70080F111D222717FD209551
:1026F000322FB801C9011F910F910895FB01DC0130
:1027000005C09D9181914150981721F44423C9F748
:1027100081E0089580E008959FBB8EBB8FB3843025
:1027200078F481E08CBB8DB3861751F08FB7F894A5
:102730006DBB94E09CBB92E09CBB8FBFE199FECF48
:102740000895EF92FF920F931F93CF93DF938C0125
:102750007B01EA01209751F0C801F70161917F01E7
:102760000E948C130F5F1F4F2197B1F7DF91CF911C
:102770001F910F91FF90EF9008959FBB8EBB8FB379
:10278000843020F481E08CBB8DB3089580E00895FF
:10279000FB0141155105A1F031E007C03CBB2DB351
:1027A000219301964150504059F09FBB8EBB2FB3EF
:1027B0002430A0F320E02193019641505040A9F726
:1027C00008950F931F93CF93DF9300D0CDB7DEB75B
:1027D0008C01809164038F3738F00F900F90DF9158
:1027E000CF911F910F9108951A83098390E0880F6C
:1027F000991F8F5F9C4FBE016F5F7F4F42E050E09B
:102800000E94A113609164030115110519F06F5F17
:102810006093640380E093E00E948C130F900F900C
:10282000DF91CF911F910F91089593E09FBB1EBA46
:102830009FB3943000F591E09CBB9DB39F3F59F14D
:102840009093640390E0880F991F9C012F5F3C4F89
:102850003FBB2EBB2FB3243080F030E08E5F9C4F07
:102860009FBB8EBB8FB3843090F481E08CBB2DB3C3
:10287000832F922F089590E0E3CF21E02CBB3DB34E
:102880008E5F9C4F9FBB8EBB8FB3843070F320E074
:10289000832F922F08951092640380E093E060E00C
:1028A0000E948C1381E093E060E00E948C1382E030
:1028B00093E060E00E948C1383E093E060E00E946C
:1028C0008C1384E093E060E00E948C1380E090E041
:1028D00008952F923F924F925F926F927F928F92C4
:1028E0009F92AF92BF92CF92DF92EF92FF920F939F
:1028F0001F93CF93DF93CDB7DEB769970FB6F894E8
:10290000DEBF0FBECDBF4C01788F6F8BE42EF22E51
:102910009E01235F3F4F8AE0F90111928A95E9F702
:10292000FE013796A3E2B2E086E00D90019281505D
:10293000E1F7FE013196A9E2B2E086E00D90019246
:102940008150E1F78E2D90E010E0F1E04F2E512CF8
:102950004C0E5D1E480E591EA7E02A2E312C2C0E5F
:102960003D1E280E391EFE2DF150F98FB5E06B2E5D
:10297000712C681A790A660C771C620E731E58E077
:10298000A52EB12CAC0EBD1EAF0EB11CF2011082F3
:10299000F10110828F2D602FAE01495F5F4F0E94C1
:1029A000CE078F2D602F0E944A0781E061E00E94D0
:1029B0002207809176058C71E1F3809176058C7009
:1029C00009F0E5C080917F058F3209F4A8C08033FB
:1029D00008F093C08F3109F4AFC08F2D602FAE0186
:1029E000495F5F4F0E94CE07812F8F0D602F0E949D
:1029F0004A079FB7F894809176058F7E809376057D
:102A00009FBF80917F058B3311F08E3391F680E06C
:102A100060E00E94220780917F058B3309F4B7C0E4
:102A2000EE2079F0FE013796D3018191882329F0B9
:102A300090E0C09711969C938E931296EA15FB0531
:102A4000A1F78D859E8520E137E2829F6001839FFB
:102A5000D00C929FD00C11248F85988948EE53E0BA
:102A6000849F9001859F300D949F300D1124C20EDC
:102A7000D31E8D899E89C80ED91E8B899C899C0185
:102A8000220F331F880F991F880F991F880F991FD6
:102A9000280F391FC20ED31E89899A8924E630E097
:102AA000829FA001839F500D929F500D1124C40E50
:102AB000D51EC814D90408F449C08F89988D8C1587
:102AC0009D0508F443C0C60169960FB6F894DEBFB1
:102AD0000FBECDBFDF91CF911F910F91FF90EF906F
:102AE000DF90CF90BF90AF909F908F907F906F902E
:102AF0005F904F903F902F900895873309F18D3369
:102B000009F06BCFE7E0F0E0EC0FFD1FE10FF11DE6
:102B10008081893308F061CF8F5F80835ECFE7E0EB
:102B2000F0E0EC0FFD1FE10FF11D8081813308F40F
:102B300054CF8150808351CF112339F5198D4DCF5A
:102B40001F5F1E1508F449CF10E047CF8F2D602F6F
:102B5000AE014F5F5F4F0E94CE0780E168EE73E0E9
:102B60000E94BF089FB7F894809176058F7E80936E
:102B700076059FBFC814D90408F408CFEF89F88DF3
:102B8000EC15FD0508F402CF9ECF115026CFCC24C2
:102B9000DD2499CF8F929F92AF92BF92CF92DF9216
:102BA000EF92FF92CF93DF93EC010E94FC022E8103
:102BB000205E822F82958F7090E04C01880C991CCA
:102BC000880F991F880F991F880F991F880E991ECB
:102BD0002F70820E911CAA2497FCA094BA2CEAE1D3
:102BE000880C991CAA1CBB1CEA95D1F72D815B812E
:102BF0006A8179814881822F82958F7090E06C0183
:102C0000CC0CDD1C880F991F880F991F880F991F06
:102C1000C80ED91E2F70C20ED11CEE24D7FCE09432
:102C2000FE2CB6E1CC0CDD1CEE1CFF1CBA95D1F7D6
:102C3000252F22952F7030E0C901880F991F220F90
:102C4000331F220F331F220F331F820F931F5F701A
:102C5000850F911DAA2797FDA095BA2F51E1880FE6
:102C6000991FAA1FBB1F5A95D1F7C82AD92AEA2A49
:102C7000FB2A242F22952F7030E0C901880F991F5D
:102C8000220F331F220F331F220F331F820F931F78
:102C90004F70840F911DAA2797FDA095BA2FC82ABF
:102CA000D92AEA2AFB2A262F22952F7030E0C90163
:102CB000880F991F220F331F220F331F220F331F3C
:102CC000820F931F6F70860F911DAA2797FDA09505
:102CD000BA2F6CE0880F991FAA1FBB1F6A95D1F706
:102CE000C82AD92AEA2AFB2A272F22952F7030E0FA
:102CF000C901880F991F220F331F220F331F220F84
:102D0000331F820F931F7F70870F911DAA2797FD96
:102D1000A095BA2F880F991FAA1FBB1F880F991F54
:102D2000AA1FBB1F880F991FAA1FBB1F880F991FBF
:102D3000AA1FBB1F880F991FAA1FBB1F880F991FAF
:102D4000AA1FBB1FC82AD92AEA2AFB2AC828D928C1
:102D5000EA28FB28B601C701DF91CF91FF90EF90E1
:102D6000DF90CF90BF90AF909F908F900895DC013F
:102D7000CB01FA01AC01BD012AE176956795579523
:102D800047952A95D1F744514683AC01BD0136E100
:102D900076956795579547953A95D1F74F70458346
:102DA000AC01BD0121E176956795579547952A9528
:102DB000D1F74F714383AC01BD013CE07695679537
:102DC000579547953A95D1F74F714283AC01BD01B4
:102DD00026E076956795579547952A95D1F74F73D5
:102DE00041838F7380830895FC0186812AE0622FDE
:102DF0000E946C278295807F892B868385810E9423
:102E00006C278295807F892B858383810E946C2724
:102E10008295807F892B838382810E946C27829593
:102E2000807F892B828381810E946C278295807F9D
:102E3000892B818380810E946C278295807F892BDA
:102E400080830895CF92DF92EF92FF92CF93DF932A
:102E5000CDB7DEB727970FB6F894DEBF0FBECDBF54
:102E6000AE014F5F5F4F0E94B71669819A818CE374
:102E7000989F60011124EE24D7FCE094FE2C4B8136
:102E800050E020E13EE0429FC001439F900D529FE1
:102E9000900D1124AA2797FDA095BA2FC80ED91E10
:102EA000EA1EFB1EC60ED11CE11CF11C4C8150E039
:102EB00020E831E5429FC001439F900D529F900D45
:102EC0001124AA2797FDA095BA2FC80ED91EEA1E75
:102ED000FB1EB601C70127960FB6F894DEBF0FBEE2
:102EE000CDBFDF91CF91FF90EF90DF90CF9008950D
:102EF000CF92DF92EF92FF92CF93DF93EA0120E12E
:102F00003EE040E050E00E948C276B017C01822F64
:102F1000BE0140E00E94CF12C701B6012CE330E0B1
:102F200040E050E00E948C27C62EBE016D5F7F4FAF
:102F3000822F40E00E94CF129E012A5F3F4F8C2DCE
:102F4000B90140E00E94CF128AE38B838E83CE01C9
:102F50000196DF91CF91FF90EF90DF90CF90089591
:102F60000F931F93CF93DF938C010E94B727EC013F
:102F70008431910510F0C3E1D0E08DEC95E0B8010B
:102F8000AE010E94AE27C353DA4F18828DEC95E054
:102F9000DF91CF911F910F910895FF920F931F938F
:102FA000CF93DF9300D000D00F92CDB7DEB70E9451
:102FB000A70788EF91E00E94B017AC0181E061E0C3
:102FC0000E94CE0787E061E04FE252E00E94CE0708
:102FD00087E062E045E352E00E94CE0780E00E9475
:102FE0001514BE016F5F7F4F0E941F12AC018DE070
:102FF00061E00E94CE0781E00E941514BE016F5F60
:103000007F4F0E941F12AC018DE062E00E94CE074C
:1030100010E0809176058C71E1F3809176058C70DB
:1030200009F04CC080917F058F3209F459C08D336F
:1030300009F44FC0012F0F5F62E0F62EF10E802FD2
:10304000BE016F5F7F4F40E00E94CF12AC0187E06E
:1030500061E00E94CE078F2DBE016F5F7F4F40E081
:103060000E94CF12AC0187E062E00E94CE07812F60
:103070000E941514BE016F5F7F4F0E941F12AC01AA
:103080008DE061E00E94CE07802F0E941514BE01E2
:103090006F5F7F4F0E941F12AC018DE062E00E94C3
:1030A000CE079FB7F894809176058F7E8093760542
:1030B0009FBF80917F058B3309F0ABCF0F900F90AE
:1030C0000F900F900F90DF91CF911F910F91FF9074
:1030D00008951123A1F0012FF12EF3941150AFCFD9
:1030E000212F30E08091640390E00297012F281790
:1030F00039074CF00F5F52E0F52EF10EA0CF32E011
:10310000F32E01E09CCF0E5F43E0F42EF10E1F5F23
:1031100096CFBF92CF92DF92EF92FF920F931F93C1
:10312000CF93DF93CDB7DEB76B970FB6F894DEBFC2
:103130000FBECDBFFE013A9682E1DF011D928A9556
:10314000E9F783E08A8789E08B8791E09D878E8706
:10315000888B898B92E09B8B8C8B95E09E8B8F8BE1
:10316000998F8A8F0E94FC020E94A70788EE91E047
:103170000E94B017AC0181E061E00E94CE0780EFB1
:1031800091E00E94B017AC0181E062E00E94CE079E
:1031900080E895E0BE016F5F7F4F40E30E942E11F3
:1031A000AC0189E061E00E94CE0780E895E0BE01B5
:1031B0006F5F7F4F40E30E945D11AC0189E062E0E8
:1031C0000E94CE0781E061E00E94220789E061E071
:1031D0000E944A07CC24DD2411E0BC2C80E895E055
:1031E000BE016F5F7F4F40E0CC2009F0BEC00E945F
:1031F0002E110B2D0F5F7601EE0CFF1CEE0CFF1C49
:10320000EE0CFF1CEC0CFD1C81E090E08C0F9D1F70
:10321000E80EF91E809176058C71E1F380917605B8
:103220008C7009F044C080917F058F3209F478C01A
:10323000803308F04CC08F3109F482C0812F885F41
:10324000602F0E944A079FB7F894809176058F7E81
:10325000809376059FBF80917F058B3321F18E335C
:10326000C9F6BB2009F489C089818295807F9A8143
:10327000890F809382058C818295807F9D81890F43
:10328000809381058F818295807F9885890F8093B7
:1032900080050894C11CD11C92E0C916D10409F024
:1032A0009CCF0E94250480E060E00E9422076B967C
:1032B0000FB6F894DEBF0FBECDBFDF91CF911F9147
:1032C0000F91FF90EF90DF90CF90BF9008958733DC
:1032D000E9F08D3309F0B2CF212F30E0215030409A
:1032E000E1E0F0E0EC0FFD1FE20FF31F80812E0DF7
:1032F0003F1DD90119969C911997891708F09ECF07
:103300008F5F8083805D0E94820798CF183020F500
:10331000912F9F5F812F933059F5865F1E5F90CF6D
:10332000E12FF0E0319781E090E08C0F9D1FE80FD6
:10333000F91F8081882309F481CF81508083E2CFF7
:10334000123080F0912F9150812F933041F09630C0
:1033500031F0895F192F74CF89E011E071CF8A5F56
:1033600012506ECF80E118E06BCF0E945D1141CF0B
:10337000963099F2875F192F63CF89E062E00E944F
:103380004A0789818295807F9A81890F809383057E
:103390008C818295807F9D81890F809385058F81A7
:1033A0008295807F9885890F8093860511E071CF83
:1033B0000E948B030E94FC020E94DC0480E00E94B9
:1033C0001514829909C00E9486060E9471010E940C
:1033D0008918829B07C0089584B790E099690E947C
:1033E000E11308950E940A0C08958BB19CB1887175
:1033F00031F05F9B10C08CB15F99FDCF0895809133
:103400006A049D3049F0E82FF0E0EB59FC4F9583BA
:103410008F5F80936A0408958230E8F3E82FF0E02C
:10342000EB59FC4F95838F5F80936A0480916C0405
:103430008F5F80936C049FB7F894809176058064C9
:10344000809376059FBF08955D9BFECF8CB908954C
:10345000FC018081882339F031965D9BFECF8CB9C9
:1034600081918823D1F75D9BFECF8DE08CB90895C3
:103470001F93CF93DF93EB012FB7F89410916A0459
:103480002FBF0E94281A80E4BE010E94BF0881302D
:1034900081F09FB7F894809176058F7B80937605B5
:1034A0009FBF812F90E086599C4FDF91CF911F9154
:1034B000089580E090E0F9CF813001F19FB7F89452
:1034C00040916A049FBF4423E1F02AE633E0415073
:1034D00050E045595C4F61E003C02417350759F0AF
:1034E000F9012F5F3F4F90819D30B9F76F5F6817EB
:1034F000A1F7C901089580E090E008958AE693E07D
:10350000089580E090E00895BC0180E40E94BF0827
:10351000813081F09FB7F894809176058F7B8093FE
:1035200076059FBF9FB7F89480916C049FBF0E945F
:103530005C1A089580E090E008958FB7F894109297
:103540006A0410926B0410926C0410926D05109234
:103550006E0510926F058FBF0895DC019C918091DC
:103560006D05992361F01196E82FF0E0E359FB4FC8
:1035700090838F5F80936D059D919923A9F7E82F24
:10358000F0E0E359FB4F10820895AF9ADD988FB7B2
:10359000F89410926A0410926B0410926C041092CA
:1035A0006D0510926E0510926F058FBF1AB881B32A
:1035B000836081BB82B38C7F82BB0895CF93DF93FE
:1035C000EC010E94C51ACE010E94E11380E0DF9158
:1035D000CF9108950F931F93CF93DF9300D00F9255
:1035E000CDB7DEB7DE011196EBE3F2E023E0019008
:1035F0000D922150E1F70E94841A8C01009741F14D
:10360000CE010196B80143E00E947E13882349F061
:1036100081E00F900F900F90DF91CF911F910F914C
:103620000895C801019661E00E94D711FC01008154
:1036300010E013600E94C51AC8010E94E11380E0E7
:103640000F900F900F90DF91CF911F910F910895E0
:1036500080E00F900F900F90DF91CF911F910F910D
:1036600008950F931F93CF93DF9300D000D000D025
:10367000CDB7DEB7DE011196E1E4F2E086E001901D
:103680000D928150E1F79FB7F894809176058F7B7A
:10369000809376059FBF8FE392E064E670E00E941E
:1036A000381A8C01009731F1CE010196B80146E03D
:1036B0000E947E138823F1F0F801878180936503CF
:1036C00080858093660381858093670382858093DC
:1036D00068031092690384E690E00E94EA1A269635
:1036E0000FB6F894DEBF0FBECDBFDF91CF911F9113
:1036F0000F91089580E0F3CF0F931F93CF93DF9343
:1037000000D00F92CDB7DEB7DE011196EBE3F2E009
:1037100083E001900D928150E1F78FB7F8941092F9
:103720006A0410926B0410926C0410926D05109252
:103730006E0510926F058FBF81E00E945706DD9ADB
:1037400005E084E690E00E94841A009709F45AC0CC
:103750000150B9F70E94311B882309F462C0AF9869
:103760008FB7F89410926A0410926B0410926C0454
:1037700010926D0510926E0510926F058FBF88E450
:1037800092E00E94281A04C0FC018081813281F0FD
:1037900088E893E10E94841A8C010097A9F780E0E1
:1037A0000F900F900F90DF91CF911F910F9108957F
:1037B0000E94C51ACE010196B80143E00E947E1313
:1037C000882349F081E00F900F900F90DF91CF9107
:1037D0001F910F910895C801019661E00E94D711D1
:1037E000FC01008110E013600E94C51AC8010E940C
:1037F000E11380E00F900F900F90DF91CF911F9118
:103800000F9108950E94C51A81E092E00E94E11391
:1038100080E00F900F900F90DF91CF911F910F914B
:1038200008950E94C51A82E092E00E94E11380E0B0
:103830000F900F900F90DF91CF911F910F910895EE
:103840008CE492E00E94281A84E690E00E94EA1A32
:10385000882359F082E00E94570684EF91E00E948D
:10386000EA1A882311F081E008950E94C51A85E0C4
:1038700092E00E94E11380E008958F929F92AF92B0
:10388000BF92CF92DF92EF92FF92CF93DF93CDB7AB
:10389000DEB72B970FB6F894DEBF0FBECDBF83E522
:1038A00090E2A0E0B0E089839A83AB83BC83FE0101
:1038B000359687E0DF011D928A95E9F780918605AC
:1038C000805E0E9461136B017C0129E1CC0CDD1C40
:1038D000EE1CFF1C2A95D1F7809185050E9461138B
:1038E0004B015C0135E1880C991CAA1CBB1C3A9564
:1038F000D1F78C289D28AE28BF28809183050E948F
:103900006113DC01CB01DC0199278827882A992AD9
:10391000AA2ABB2A809182050E946113DC01CB0197
:103920005BE0880F991FAA1FBB1F5A95D1F7882A01
:10393000992AAA2ABB2A809181050E946113DC0181
:10394000CB01880F991FAA1FBB1F880F991FAA1FA1
:10395000BB1F880F991FAA1FBB1F880F991FAA1F83
:10396000BB1F880F991FAA1FBB1F882A992AAA2A42
:10397000BB2A809180050E946113DC01CB01B695C2
:10398000A7959795879588299929AA29BB29BC01CC
:10399000CD01AE014D5F5F4F0E94531283E592E06F
:1039A00064E670E00E94381ACE01019664E670E089
:1039B0000E94381A2B960FB6F894DEBF0FBECDBF0B
:1039C000DF91CF91FF90EF90DF90CF90BF90AF90BD
:1039D0009F908F900895CF9381E00E945706DD9AC3
:1039E000C5E084E690E00E94841A009709F43FC085
:1039F000C150B9F70E94311B882339F10E94201C65
:103A0000882361F10E94311B8823F9F0AF9887E584
:103A100092E00E94281A88E893E10E94EA1A88231B
:103A200079F10E943D1C8FB7F89410926A041092AD
:103A30006B0410926C0410926D0510926E0510923A
:103A40006F058FBF81E0CF9108950E94C51A82E073
:103A500092E00E94E11380E0CF9108950E94C51A80
:103A600085E092E00E94E11380E0CF9108950E94EA
:103A7000C51A81E092E00E94E11380E0CF910895A1
:103A80000E94C51A85E892E00E94E11380E0E4CF2D
:103A9000CF93DF93CDB7DEB764970FB6F894DEBF50
:103AA0000FBECDBF843009F45AC0853090F080310C
:103AB00009F43FC0803239F1883079F4CE010196A3
:103AC000DC01E1EBF2E022E101900D922150E1F7FF
:103AD00006C08130C9F1823009F1CE0101960E9401
:103AE000281A80ED97E00E94EA1A91E0882309F4F1
:103AF00090E0892F64960FB6F894DEBF0FBECDBF5D
:103B0000DF91CF910895CE010196DC01E9E5F2E065
:103B100020E101900D922150E1F7E1CFCE01019615
:103B2000DC01EDE8F2E022E101900D922150E1F795
:103B3000D6CFCE010196DC01E9E6F2E022E1019068
:103B40000D922150E1F7CBCFCE010196DC01EBE7DE
:103B5000F2E022E101900D922150E1F7C0CFCE01B9
:103B60000196DC01EFE9F2E022E101900D92215093
:103B7000E1F7B5CFCF93DF9300D000D0CDB7DEB75C
:103B800093E4998390E29A8398E79B831C82843024
:103B900019F18530D0F0803129F1803201F188307F
:103BA000C1F0CE0101960E94281A88EE93E00E948F
:103BB000EA1A91E0882309F490E0892F0F900F9082
:103BC0000F900F90DF91CF910895813029F08230CE
:103BD00041F783E38B83E5CF82E38B83E2CF80E3FE
:103BE0008B83DFCF81E38B83DCCFCF93DF93CDB7A4
:103BF000DEB72A970FB6F894DEBF0FBECDBFDE0149
:103C00001196E3ECF2E095E001900D929150E1F70E
:103C1000843051F0853008F050C0813029F0823076
:103C200029F483E38B8302C082E38B8380916D054B
:103C300090E0BE016B5F7F4F0E941F12CE01019684
:103C40000E94281A84EF91E00E94EA1A882399F1D1
:103C500080916D04882361F090E05D9BFECF8CB96C
:103C60009F5FE92FF0E0E359FB4F80818823A9F79C
:103C700088EE93E00E94841A84EF91E00E94EA1A91
:103C80008823C9F08FB7F89410926A0410926B04DD
:103C900010926C0410926D0510926E0510926F05D3
:103CA0008FBF81E02A960FB6F894DEBF0FBECDBF5E
:103CB000DF91CF91089580E0F5CF803149F08032D7
:103CC00021F0883009F0B2CFACCF80E38B83AECF48
:103CD00081E38B83ABCFEF92FF920F931F93CF9330
:103CE000DF93CDB7DEB72E970FB6F894DEBF0FBEC9
:103CF000CDBF0E94EB1C882309F44DC380E10E94D4
:103D0000481D882309F406C480916D05AAE2B3E03A
:103D10009DE2E82FF0E0E359FB4F90838F5F9D9188
:103D20009923B9F780936D05E82FF0E0E359FB4F35
:103D3000108280E895E0BE016F5F7F4F40E30E94F4
:103D40002E11DC018C9120916D05882361F0119674
:103D5000E22FF0E0E359FB4F80832F5F20936D0546
:103D60008D918823A9F7822F90E0FC01E359FB4F46
:103D70001082E6E2F3E030E202C0822F90E0835945
:103D80009B4FDC013C932F5F31913323B1F720939C
:103D90006D05E22FF0E0E359FB4F108280E895E0DB
:103DA000BE016F5F7F4F40E30E945D11DC019C917B
:103DB00080916D05992361F01196E82FF0E0E359A9
:103DC000FB4F90838F5F80936D059D919923A9F799
:103DD000E82FF0E0E359FB4F1082CE01019662E03C
:103DE0000E948811DC019C9180916D05992361F0FE
:103DF0001196E82FF0E0E359FB4F90838F5F80939B
:103E00006D059D919923A9F7E82FF0E0E359FB4F49
:103E1000108280E10E94F51D882309F4BAC363E98A
:103E2000E62E65E0F62E01E320916D05AEE1B3E0EC
:103E300083E7E22FF0E0E359FB4F80832F5F8D9102
:103E40008823B9F720936D05822F90E0FC01E35998
:103E5000FB4F108209833AE33A831B82FE013396BB
:103E6000402F04C0432F3191822F90E083599B4F04
:103E7000DC014C932F5F3323A9F720936D05E22FCC
:103E8000F0E0E359FB4F1082CE01019661E00E9401
:103E90008811DC018C9110916D05882361F01196D9
:103EA000E12FF0E0E359FB4F80831F5F10936D0516
:103EB0008D918823A9F7212F30E0F901E359FB4FB9
:103EC0001082EDE0F3E080E202C0212F30E02359C0
:103ED0003B4FD9018C931F5F81918823B1F71093D9
:103EE0006D05212F30E0A9014B595C4FFA01E85FC5
:103EF000FE4F1082F70132978081813009F404C2AD
:103F0000823009F4E0C187E092E01B873C874D874F
:103F10005E870E94B017DC016C912B853C854D8536
:103F20005E85662399F0FC01319602C0212F30E0B6
:103F300023593B4FD9016C931F5F10936D0561911D
:103F40006623A1F7412F50E04B595C4F485F5E4F0D
:103F5000FA011082CE01019661E00E948811DC0115
:103F60008C9110916D05882361F01196E12FF0E09E
:103F7000E359FB4F80831F5F10936D058D9188235C
:103F8000A9F7212F30E0F901E359FB4F1082ECEF44
:103F9000F2E080E202C0212F30E023593B4FD901EB
:103FA0008C931F5F81918823B1F710936D05212FAA
:103FB00030E0A9014B595C4FFA01E85FFE4F1082D7
:103FC000F70131978081823009F460C2833008F0B4
:103FD000BBC1813009F419C28AE592E02B873C8786
:103FE0004D875E870E94B017DC016C912B853C8564
:103FF0004D855E85662399F0FC01319602C0212F24
:1040000030E023593B4FD9016C931F5F10936D052E
:1040100061916623A1F7412F50E04B595C4F485FF7
:104020005E4FFA011082CE01019661E00E94881174
:10403000DC019C9180916D05992361F01196E82F28
:10404000F0E0E359FB4F90838F5F80936D059D9166
:104050009923A9F7E82FF0E0E359FB4F108280E1A4
:104060000E94F51D882309F494C210916D05ABEEF2
:10407000B2E080E2E12FF0E0E359FB4F80831F5F65
:104080008D918823B9F710936D05212F30E0A90198
:104090004B595C4FFA01E85FFE4F1082D7018C91BB
:1040A000833009F481C2843008F089C1813009F479
:1040B0009BC2823009F436C281E992E02B873C87AB
:1040C0004D875E870E94B017FC0180812B853C855F
:1040D0004D855E85882391F0319602C0212F30E016
:1040E00023593B4FD9018C931F5F10936D0581912C
:1040F0008823A1F7412F50E04B595C4F485F5E4F3A
:10410000FA011082CE01019661E00E948811DC0163
:104110008C9120916D05882361F01196E22FF0E0DB
:10412000E359FB4F80832F5F20936D058D9188238A
:10413000A9F7822F90E0FC01E359FB4F1082EAEDD2
:10414000F2E030E202C0822F90E083599B4FDC0105
:104150003C932F5F31913323B1F720936D05E22F0C
:10416000F0E0E359FB4F1082F70161817281838196
:104170009481AE014F5F5F4F0E947817DC019C91E4
:1041800080916D05992361F01196E82FF0E0E359D5
:10419000FB4F90838F5F80936D059D919923A9F7C5
:1041A000E82FF0E0E359FB4F1082CE01019661E069
:1041B0000E948811DC018C9120916D05882361F0AB
:1041C0001196E22FF0E0E359FB4F80832F5F20939D
:1041D0006D058D918823A9F7822F90E0FC01E359AA
:1041E000FB4F1082E9ECF2E030E202C0822F90E057
:1041F00083599B4FDC013C932F5F31913323B1F7FF
:1042000020936D05E22FF0E0E359FB4F1082F70198
:104210006185728583859485AE014F5F5F4F0E94F3
:104220000C13DC019C9180916D05992361F011962E
:10423000E82FF0E0E359FB4F90838F5F80936D058B
:104240009D919923A9F7E82FF0E0E359FB4F1082E5
:10425000CE010196043309F485C162E00E94881101
:10426000DC019C9180916D05992361F01196E82FF6
:10427000F0E0E359FB4F90838F5F80936D059D9134
:104280009923A9F7E82FF0E0E359FB4F108280E172
:104290000E94F51D882309F47CC18FE090E0E80EB0
:1042A000F91E0F5F053309F0BFCD80E10E94BA1DF2
:1042B000882309F4D9C184EF91E00E94B4110E94CF
:1042C000C51A81E06FC083E092E01B873C874D8771
:1042D0005E870E94B017DC016C912B853C854D8573
:1042E0005E85662309F432CEFC01319602C0212F8F
:1042F00030E023593B4FD9016C931F5F10936D053C
:1043000061916623A1F71ECE8FEF91E01B873C875A
:104310004D875E870E94B017FC0160812B853C852C
:104320004D855E85662309F411CE319602C0212F9A
:1043300030E023593B4FD9016C931F5F10936D05FB
:1043400061916623A1F7FECD833009F47EC08430ED
:1043500009F042CE8AE492E01B873C874D875E8756
:104360000E94B017DC016C912B853C854D855E85E4
:10437000662309F454CEFC01319602C0212F30E0AF
:1043800023593B4FD9016C931F5F10936D056191C9
:104390006623A1F740CE0E94C51A86E892E00E94EB
:1043A000E11380E02E960FB6F894DEBF0FBECDBFAE
:1043B000DF91CF911F910F91FF90EF90089585307D
:1043C00009F432C1853008F082C08FE792E01B8784
:1043D0003C874D875E870E94B017FC0180812B854A
:1043E0003C854D855E85882309F488CE319602C0D0
:1043F000212F30E023593B4FD9018C931F5F10933D
:104400006D0581918823A1F775CE8AE192E01B8723
:104410003C874D875E870E94B017FC0160812B8529
:104420003C854D855E85662309F4F9CD319602C041
:10443000212F30E023593B4FD9016C931F5F10931C
:104440006D0561916623A1F7E6CD8AE392E01B87B3
:104450003C874D875E870E94B017DC016C912B85ED
:104460003C854D855E85662309F4D9CDFC013196E6
:1044700002C0212F30E023593B4FD9016C931F5FBD
:1044800010936D0561916623A1F7C5CD8AE292E094
:104490001B873C874D875E870E94B017DC016C91BB
:1044A0002B853C854D855E85662309F4B8CDFC01DE
:1044B000319602C0212F30E023593B4FD9016C9334
:1044C0001F5F10936D0561916623A1F7A4CD86301F
:1044D00009F0F2CD8BE892E01B873C874D875E8721
:1044E0000E94B017FC0180812B853C854D855E853F
:1044F000882309F403CE319602C0212F30E02359DE
:104500003B4FD9018C931F5F10936D0581918823D8
:10451000A1F7F0CD0E94C51A8AE092E00E94E11353
:1045200080E040CF83E792E01B873C874D875E8722
:104530000E94B017FC0180812B853C854D855E85EE
:10454000882309F4DBCD319602C0212F30E02359B6
:104550003B4FD9018C931F5F10936D058191882388
:10456000A1F7C8CD64E00E948811DC019C91809184
:104570006D05992309F486CE1196E82FF0E0E359F2
:10458000FB4F90838F5F80936D059D919923A9F7D1
:1045900079CE80E10E94BA1D0E94C51A89E092E09E
:1045A0000E94E11380E0FECE89E792E01B873C8702
:1045B0004D875E870E94B017FC0180812B853C856A
:1045C0004D855E85882309F499CD319602C0212F4F
:1045D00030E023593B4FD9018C931F5F10936D0539
:1045E00081918823A1F786CD8DE692E01B873C87D9
:1045F0004D875E870E94B017FC0180812B853C852A
:104600004D855E85882309F479CD319602C0212F2E
:1046100030E023593B4FD9018C931F5F10936D05F8
:1046200081918823A1F766CD85E892E01B873C87BE
:104630004D875E870E94B017FC0180812B853C85E9
:104640004D855E85882309F459CD319602C0212F0E
:1046500030E023593B4FD9018C931F5F10936D05B8
:1046600081918823A1F746CD0E94C51A88E092E087
:104670000E94E11380E096CEAF92BF92CF92DF927C
:10468000EF92FF920F931F93CF93DF93CDB7DEB7D7
:10469000AA970FB6F894DEBF0FBECDBF81E08B8323
:1046A00082E08C8384E08D8388E08E8380E090E0DC
:1046B00062E0AE014F5F5F4F0E94EE0489819A81F4
:1046C000009791F481E0AA960FB6F894DEBF0FBE72
:1046D000CDBFDF91CF911F910F91FF90EF90DF90B1
:1046E000CF90BF90AF9008950E94EB1C882309F4EF
:1046F000B2C180E20E94481D882309F4A0C1AA2407
:10470000A39400E0BB24002309F08EC181E00E9445
:10471000481D882309F493C182E00E94481D882324
:1047200009F48DC189819A81009709F46AC170E109
:10473000E72EF12CCC24DD24C70169E0AE01425FF5
:104740005F4F0E94EE041E89129516951695137000
:10475000123008F47CC1BB24B394002309F444C193
:104760006E857F8588899989AE01495F5F4F0E9478
:10477000B716CE0107960E94F416CE010796BE0129
:10478000695E7F4F40E30E942E11DC018C91909175
:104790006D05882361F01196E92FF0E0E359FB4F96
:1047A00080839F5F90936D058D918823A9F7A92F32
:1047B000B0E0FD01E359FB4F1082E6E2F3E080E256
:1047C00002C0A92FB0E0A359BB4F8C939F5F81918A
:1047D0008823B9F790936D05E92FF0E0E359FB4F7B
:1047E0001082CE010796BE01695E7F4F40E30E94B2
:1047F0005D11DC018C9190916D05882361F011961B
:10480000E92FF0E0E359FB4F80839F5F90936D05A4
:104810008D918823A9F7A92FB0E0FD01E359FB4F43
:104820001082EDE5F3E080E202C0A92FB0E0A359C9
:10483000BB4F8C939F5F81918823B9F790936D054F
:10484000E92FF0E0E359FB4F10828D899E899F701C
:10485000BE01695E7F4F0E94F712DC019C9180913E
:104860006D05992361F01196E82FF0E0E359FB4FB5
:1048700090838F5F80936D059D919923A9F7E82F11
:10488000F0E0E359FB4F1082CE01479661E00E94B1
:104890008811DC019C9180916D05992361F011963E
:1048A000E82FF0E0E359FB4F90838F5F80936D0515
:1048B0009D919923A9F7E82FF0E0E359FB4F10826F
:1048C000E3E0F0E0EC0FFD1FE10FF11D80810E949D
:1048D000F51D882309F4EBC0A5E5B3E086E194E774
:1048E000E82FF0E0E359FB4F90838F5F9D91992370
:1048F000B9F780936D05E82FF0E0E359FB4F108284
:104900008A89BE01695E7F4F41E00E94CF12DC01BF
:104910008C9120916D05882361F01196E22FF0E0D3
:10492000E359FB4F80832F5F20936D058D91882382
:10493000A9F7822F90E0FC01E359FB4F1082E9E4D4
:10494000F3E03CE202C0822F90E083599B4FDC01F0
:104950003C932F5F31913323B1F720936D05E22F04
:10496000F0E0E359FB4F10828B899C89BE01695EA0
:104970007F4F0E94F712DC019C9180916D05992375
:1049800061F01196E82FF0E0E359FB4F90838F5FC1
:1049900080936D059D919923A9F7E82FF0E0E359E5
:1049A000FB4F1082CE01479661E00E948811DC0126
:1049B0009C9180916D05992361F01196E82FF0E0AC
:1049C000E359FB4F90838F5F80936D059D919923F1
:1049D000A9F7E82FF0E0E359FB4F108280E20E9434
:1049E000F51D882309F463C00894C11CD11C89E01B
:1049F00090E0E80EF91E89819A81C816D90608F45C
:104A00009BCE002381F581E00E94BA1D882309F422
:104A100056C082E00E94BA1D882309F450C0BB2012
:104A200079F10F5FA3946FCE84E00E94481D882324
:104A300031F088E00E94481D882309F073CE0E945F
:104A4000C51A8AE092E00E94E11380E03CCE01307A
:104A500009F086CEC9CF0E94C51A86E892E00E946E
:104A6000E11380E030CE84E00E94BA1D882339F340
:104A700088E00E94BA1D882311F392E0A91689F6F6
:104A800080E20E94BA1D8823D1F084EF91E00E9459
:104A9000B4110E94C51A1A82198280E090E062E087
:104AA000AE014F5F5F4F0E94EA0581E00CCE0E948D
:104AB000C51A8CE092E00E94E11380E004CE0E94CF
:104AC000C51A8BE092E00E94E11380E0FCCD0E94C9
:104AD0003C23882311F081E0089580E20E94BA1DF2
:104AE00080E10E94BA1D81E00E94BA1D82E00E940E
:104AF000BA1D80E008950E9468060E9444060E9444
:104B00004D060E944E060E94B0080E942A060E948E
:104B1000330678940E94D8190E94A20181E090E0A7
:104B20000895D4D008F481E008950CD00AC102D1D0
:104B300040F0F9D030F021F45F3F19F0EBC0511193
:104B400034C1EEC00FD198F39923C9F35523B1F3C3
:104B5000951B550BBB27AA2762177307840738F0EC
:104B60009F5F5F4F220F331F441FAA1FA9F333D04B
:104B70000E2E3AF0E0E830D091505040E695001CFF
:104B8000CAF729D0FE2F27D0660F771F881FBB1FBB
:104B9000261737074807AB07B0E809F0BB0B802D95
:104BA000BF01FF2793585F4F2AF09E3F510568F0E1
:104BB000B1C0FBC05F3FECF3983EDCF38695779580
:104BC0006795B795F7959F5FC9F7880F911D9695E3
:104BD000879597F90895E1E0660F771F881FBB1F3F
:104BE000621773078407BA0720F0621B730B840BEC
:104BF000BA0BEE1F88F7E0950895BCD088F09F5758
:104C000090F0B92F9927B751A0F0D1F0660F771F18
:104C1000881F991F1AF0BA95C9F712C0B13081F0F8
:104C2000C3D0B1E00895C0C0672F782F8827B85F40
:104C300039F0B93FCCF3869577956795B395D9F759
:104C40003EF490958095709561957F4F8F4F9F4F63
:104C50000895E89409C097FB3EF49095809570956F
:104C600061957F4F8F4F9F4F9923A9F0F92F96E9B8
:104C7000BB279395F695879577956795B795F1112D
:104C8000F8CFFAF4BB0F11F460FF1BC06F5F7F4FCA
:104C90008F4F9F4F16C0882311F096E911C07723DC
:104CA00021F09EE8872F762F05C0662371F096E8E5
:104CB000862F70E060E02AF09A95660F771F881FB4
:104CC000DAF7880F9695879597F90895990F000858
:104CD000550FAA0BE0E8FEEF16161706E807F907CE
:104CE000C0F012161306E407F50798F0621B730B69
:104CF000840B950B39F40A2661F0232B242B252BEA
:104D000021F408950A2609F4A140A6958FEF811D8C
:104D1000811D089597F99F6780E870E060E008952D
:104D20009FEF80EC089500240A94161617061806C3
:104D30000906089500240A9412161306140605069F
:104D40000895092E0394000C11F4882352F0BB0F30
:104D500040F4BF2B11F460FF04C06F5F7F4F8F4F93
:104D60009F4F089557FD9058440F551F59F05F3FCE
:104D700071F04795880F97FB991F61F09F3F79F07D
:104D800087950895121613061406551FF2CF4695FF
:104D9000F1DF08C0161617061806991FF1CF869581
:104DA0007105610508940895E894BB276627772765
:104DB000CB0197F908950BD0C4CFB5DF28F0BADF47
:104DC00018F0952309F0A6CFABCF1124EECFCADFA0
:104DD000A0F3959FD1F3950F50E0551F629FF0010E
:104DE000729FBB27F00DB11D639FAA27F00DB11D67
:104DF000AA1F649F6627B00DA11D661F829F2227F0
:104E0000B00DA11D621F739FB00DA11D621F839F76
:104E1000A00D611D221F749F3327A00D611D231F4C
:104E2000849F600D211D822F762F6A2F11249F579A
:104E300050408AF0E1F088234AF0EE0FFF1FBB1FBD
:104E4000661F771F881F91505040A9F79E3F51055C
:104E500070F060CFAACF5F3FECF3983EDCF386950D
:104E600077956795B795F795E7959F5FC1F7FE2B07
:104E7000880F911D9695879597F90895539FC001C6
:104E8000429FB001529F700D811D1124911D349FCE
:104E9000700D811D1124911D0895629FD001739F93
:104EA000F001829FE00DF11D649FE00DF11D929FC6
:104EB000F00D839FF00D749FF00D659FF00D992705
:104EC000729FB00DE11DF91F639FB00DE11DF91F29
:104ED000BD01CF0111240895991B79E004C0991FE9
:104EE000961708F0961B881F7A95C9F78095089544
:104EF000AA1BBB1B51E107C0AA1FBB1FA617B70700
:104F000010F0A61BB70B881F991F5A95A9F780951B
:104F10009095BC01CD010895A1E21A2EAA1BBB1BDE
:104F2000FD010DC0AA1FBB1FEE1FFF1FA217B30775
:104F3000E407F50720F0A21BB30BE40BF50B661F8B
:104F4000771F881F991F1A9469F76095709580954F
:104F500090959B01AC01BD01CF010895FB01DC01DF
:104F600002C005900D9241505040D8F70895FC01C1
:104F700005900020E9F7809590958E0F9F1F08956A
:104F8000FB01DC0101900D920020E1F70895F894F7
:104F9000FFCF2A00200075414C46415420557064D3
:104FA000617465002D2D3E0075414C4641542056DC
:104FB000657273696F6E0000000210000000000649
:104FC000000000820A53656E736F7274797020312D
:104FD00000000000000E0100820A53656E736F72BC
:104FE000747970203200000000000F0100820A5323
:104FF000656E736F727479702033000000000010CA
:105000000100820A53656E736F72747970203400E8
:1050100000000000110101000053656E736F7220E3
:1050200050726F66696C65000012010100005379CF
:105030007374656D6B6F6E6669672E0000004301C7
:1050400001020304000002000000E408416E6172E6
:1050500065686C61206C2F7300000000420100E461
:105060000841756C69206C2F73000000000000007F
:1050700000410100010000080000006F0A5379732D
:1050800074656D7A6569740000000000000000001E
:10509000580A56657273696F6E00000000000000C8
:1050A00000000000001C0A75414C46415420566522
:1050B0007273696F6E0000000000E90975414C468B
:1050C000415420557064617465000000000000DAEE
:1050D000084669726D776172652055706461746508
:1050E00000000000D6094665686C65726D656C64E9
:1050F000756E67656E0000000085094665686C6521
:1051000072206C6F65736368656E000000003C0977
:105110004D657373756E67656E206C6F73636800A1
:10512000000030303A30303A3030003E003E30300F
:105130003030300020446174616C6F6767657220A5
:10514000574752200056312E32202D2031382E3034
:10515000342E3133003030303030005858585858E1
:1051600000303031203D00303032203D00213030E1
:1051700000560075414C46415400582055004220CD
:1051800031454634005420530055004F2030413EF5
:1051900053595354454D2E4C4F47004F2031413EFB
:1051A0005353455454494E472E4C4F47004F2032DD
:1051B000413E53454E534F525F312E4C4F47004FA7
:1051C0002033413E53454E534F525F322E4C4F4792
:1051D000004F2032413E53454E534F525F332E4CC9
:1051E0004F47004F2033413E53454E534F525F349B
:1051F0002E4C4F47005720783E0020206D756C7470
:1052000069666163746F72203D20002020696E74AE
:10521000657276616C202020203D20002020756E74
:10522000697420202020202020203D200020207490
:1052300079706520202020202020203D2000202083
:105240007374617475732020202020203D2000732A
:10525000656E736F722000202D20002D2D3E3E20A4
:1052600073656E736F7273657474696E67732063B0
:1052700068616E676564203A20002C207375707039
:105280006C79203D200074656D70203D2000203A2F
:105290002000FFFFFFFFFFFFFFFFFFFFFFFFFFFFFC
:1052A000FFFFFFFFFFFFFFFFFFFFFFFFFFFFFFFF0E
:1052B000FFFFFFFFFFFFFFFFFFFFFFFFFFFFFFFFFE
:1052C000FFFFFFFFFFFFFFFFFFFFFFFFFFFFFFFFEE
:1052D000FFFFFFFFFFFFFFFFFFFFFFFFFFFFFFFFDE
:00000001FF
