:100000000C943A000C9434070C945E070C945F0037
:100010000C945F000C945F000C945F000C945F00E4
:100020000C945F000C945F000C945F000C94CA0663
:100030000C945F000C9477070C945F000C945F00A5
:100040000C945F000C945F000C945F000C945F00B4
:100050000C945F00808182838485868788898A8B5F
:100060008C8D8E8FC0C1C2C3C4C5C6C7C8C9CACB18
:10007000CCCDCECF11241FBECFE5D8E0DEBFCDBFA3
:10008000E1EEF6E08AEA98E08193E036F907E0F3E2
:1000900015E0A0E6B0E0E8E3F4E402C005900D92BC
:1000A000A834B107D9F716E0A8E4B5E001C01D9265
:1000B000A13EB107E1F70E94E71F0C941A220C94AD
:1000C00000000E94920681E061E00E940D0681E03E
:1000D00061E040E650E00E94B90681E062E040E75E
:1000E00050E00E94B9060E94D31F882379F48FE064
:1000F00062E043E850E00E94B90688EE93E00E9477
:10010000B01180E060E00E940D0608958FE062E08B
:1001100040E850E00E94B906F0CFC8EED3E03CC002
:1001200080918A0683FF0EC09FB7F89480918A065B
:10013000877F80938A069FBF8AB780648ABF8BB708
:1001400080648BBF80918A0687FD6BC080918A0690
:1001500081FF16C080918C0680FF0AC0829B7FC001
:100160009FB7F89480918C068E7F80938C069FBFFA
:100170009FB7F89480918A068D7F80938A069FBFEF
:1001800080918A0684FD40C080918A0685FD20C04A
:1001900080918A0680FD2FC080918A0682FFC0CFA1
:1001A0000E9471050E9461000E94CB0A9FB7F894DB
:1001B00080918A068B7F80938A069FBF8AB780646E
:1001C0008ABF8AB780648ABF8BB780648BBFA8CF91
:1001D0000E94D7020E94C20E9FB7F89480918A06AF
:1001E0008F7D80938A069FBF8BB780688BBF80917D
:1001F0008A0680FFD1CF9FB7F89480918A068E7FC0
:1002000080938A069FBFC8CF809193060E94E20A1E
:100210009FB7F89480918A068F7E80938A069FBF4D
:10022000B3CF829B15C09FB7F89480918A068F77D1
:1002300080938A069FBF9FB7F89480918C06816057
:1002400080938C06D0938906C09388069FBF7ECF8B
:1002500080E161E046E850E00E94B906E4CF80E129
:1002600061E048E850E00E94B9067ACF83B986B7CA
:100270008B70846886BF0895882329F486B78F70B1
:10028000806886BF089586B78F70806C86BF08959A
:10029000949A26B7246926BF16BE0E94DD1380E01B
:1002A00090E00895EF92FF920F931F93CF93DF9307
:1002B000F62E8A0196B7946A96BF06B607FEFDCF62
:1002C00091B1987F983009F067C092EA93B996B7D8
:1002D0009B70946896BF06B607FEFDCF91B1987FDC
:1002E000983109F04EC083B986B78B70846886BF99
:1002F00006B607FEFDCF81B1887F883209F05CC069
:1003000086B7846A86BF06B607FEFDCF83EA83B947
:1003100086B78B70846886BF06B607FEFDCF81B1B5
:10032000887F803409F043C081E08F15A8F4EF2C5A
:10033000E80181E00E943C0106B607FEFDCF83B1D3
:100340008993EA94E1E0EE16A1F76F2D625070E018
:100350006F5F7F4F060F171F80E00E943C0106B6BB
:1003600007FEFDCF83B1F801808386B7846986BF1D
:1003700081E090E0DF91CF911F910F91FF90EF907E
:10038000089582E191E00E944801DF91CF911F9191
:100390000F91FF90EF90089581E191E00E94480154
:1003A000DF91CF911F910F91FF90EF90089584E11D
:1003B00091E00E944801E9CF83E191E00E94480169
:1003C000DF91CF911F910F91FF90EF900895CF9300
:1003D000DF93C4E9D6E082E067E0AE010E945201FB
:1003E000AE01495F5F4F89E064E00E945201809155
:1003F00094068F7780939406809195068F778093EB
:100400009506809196068F73809396068091970645
:100410008F738093970680919806877080939806D3
:10042000809199068F718093990680919B068F77B2
:1004300080939B0680919C068F7380939C0680918D
:100440009D068F7380939D0680919E068770809392
:100450009E06DF91CF910895FA0196B7946A96BFF0
:1004600006B607FEFDCF91B1987F9830A9F592EAC4
:1004700093B996B79B70946896BF06B607FEFDCFFA
:1004800091B1987F983119F583B986B78B708468DC
:1004900086BF06B607FEFDCF81B1887F883209F599
:1004A000662379F0819183B986B78B70846886BFA3
:1004B00006B607FEFDCF81B1887F883291F4615086
:1004C00089F786B7846986BF81E090E0089582E06D
:1004D00091E00E944801089581E091E00E94480166
:1004E000089583E091E00E9448010895CF93DF933F
:1004F0000F92CDB7DEB7198280E061E0AE014F5FA9
:100500005F4F0E942C0281E061E0AE014F5F5F4FC0
:100510000E942C028DE061E0AE014F5F5F4F0E94B0
:100520002C028EE061E0AE014F5F5F4F0E942C0213
:100530008FE061E0AE014F5F5F4F0E942C0282E0CE
:1005400061E0AE014F5F5F4F0E94520189818F775A
:10055000898382E061E0AE014F5F5F4F0E942C0211
:100560000F90DF91CF910895CF93DF930F92CDB786
:10057000DEB78EE061E0AE014F5F5F4F0E94520137
:1005800089818068837889838EE061E0AE014F5F66
:100590005F4F0E942C0281E0898361E0AE014F5FD2
:1005A0005F4F0E942C020F90DF91CF910895CF935F
:1005B000DF930F92CDB7DEB7198281E061E0AE0123
:1005C0004F5F5F4F0E942C028EE061E0AE014F5FF3
:1005D0005F4F0E942C020F90DF91CF910895CF932F
:1005E000DF9300D0CDB7DEB789836A838EE061E008
:1005F000AE014E5F5F4F0E942C028FE061E0AE01C2
:100600004F5F5F4F0E942C020F900F90DF91CF91B0
:10061000089589E064E04BE956E00E942C020895B9
:1006200082E067E044E956E00E942C020895CF93EF
:10063000DF9396B7946A96BF06B607FEFDCF91B1D9
:10064000987F9830D9F590E993B996B79B709468E4
:1006500096BF06B607FEFDCF91B1987F983139F568
:1006600083B986B78B70846886BF06B607FEFDCF58
:1006700081B1887F883209F03FC086B7846A86BF1F
:1006800006B607FEFDCF81E983B986B78B70846813
:1006900086BF06B607FEFDCF81B1887F8034A9F002
:1006A00084E591E00E944801DF91CF91089582E5B1
:1006B00091E00E944801DF91CF91089581E591E09A
:1006C0000E944801DF91CF91089581E00E943C0192
:1006D00006B607FEFDCF83B1D82F80E0C82F0E9459
:1006E0003C0106B607FEFDCF83B190E08C2B9D2B1D
:1006F00026B7246926BFDFCF83E591E00E94480139
:10070000DF91CF91089596B7946A96BF06B607FE1B
:10071000FDCF91B1987F9830A9F590E993B996B73C
:100720009B70946896BF06B607FEFDCF91B1987F87
:100730009831F1F483B986B78B70846886BF06B6AA
:1007400007FEFDCF81B1887F8832B9F463B986B7DF
:100750008B70846886BF06B607FEFDCF81B1887FA7
:10076000883259F486B7846986BF81E090E00895A5
:1007700082E491E00E944801089583E491E00E94A0
:100780004801089581E291E00E944801089581E0C6
:1007900060E00E9483038CE291E00E94B01180E04F
:1007A0000E94170390938D0681E061E00E9483030D
:1007B0000895CF92DF92FF920F931F93CF93DF9311
:1007C0000F92CDB7DEB78A0126B7246A26BF06B6D8
:1007D00007FEFDCF21B1287F283009F080C020EA34
:1007E00023B926B72B70246826BF06B607FEFDCFB7
:1007F00021B1287F283109F060C093B996B79B706A
:10080000946896BF06B607FEFDCF91B1987F9832E7
:1008100009F060C083B986B78B70846886BF06B65E
:1008200007FEFDCF81B1887F883209F053C086B7BB
:10083000846A86BF06B607FEFDCF81B1887F80310E
:1008400009F04DC081EA83B986B78B70846886BF92
:1008500006B607FEFDCF81B1887F803409F044C021
:100860006230C0F06801F62E81E069830E943C018D
:10087000698106B607FEFDCF83B1F60181936F0152
:10088000FA94F1E0FF1681F7625070E06F5F7F4FDE
:10089000060F171F80E00E943C0106B607FEFDCF41
:1008A00083B1F801808386B7846986BFF3E0FA9547
:1008B000F1F7000081E090E004C082E391E00E9443
:1008C00048010F90DF91CF911F910F91FF90DF9022
:1008D000CF90089583E391E00E944801F2CF81E335
:1008E00091E00E944801EDCF84E391E00E9448012D
:1008F000E8CFFA01949826B7246A26BF06B607FE09
:10090000FDCF21B1287F283009F03FC020EA23B96C
:1009100026B72B70246826BF06B607FEFDCF21B18F
:10092000287F283169F593B996B79B70946896BF74
:1009300006B607FEFDCF91B1987F9832E1F483B9F6
:1009400086B78B70846886BF06B607FEFDCF81B17F
:10095000887F883281F46623E9F0819183B986B774
:100960008B70846886BF06B607FEFDCF81B16150EB
:10097000887F883281F383E291E00E9448010895E4
:1009800082E291E00E944801089581E291E00E9494
:100990004801089586B7846986BF949A8AE090E0FA
:1009A0000E94B01181E090E00895EF92FF920F93C2
:1009B0001F93CF93DF93EC01162F7A010197860FD7
:1009C000911D8C279D278078009729F18C2F8F7798
:1009D00000E8081BCE01602F0E947904009749F4BB
:1009E00080E090E0DF91CF911F910F91FF90EF9009
:1009F0000895802F90E0612F601BA701480F591FB9
:100A00008C0F9D1F0E947904DF91CF911F910F9150
:100A1000FF90EF900895CE010E947904DF91CF916D
:100A20001F910F91FF90EF90089517BA8FEF88BB39
:100A30008FE3809391060E942E19089582E4EFE9D6
:100A4000F6E0DF011D928A95E9F7089580E890E0CD
:100A50006FE976E042E450E00E949D13089582E041
:100A600083BF89E182BF87E18CBF0895089508950F
:100A7000089581B1837081B910B886B7846986BF43
:100A800016BE08951AB810BC813031F019B888E943
:100A90008AB986E880BD08958BE089B988E98AB96A
:100AA00086E880BD089515BE11BC1BBE1ABE10BEDF
:100AB00080EE8ABB80EC8BBB17BA8FEF88BB80E8D7
:100AC00084BB85BB83E181BB8CE182BB13BE15BCBB
:100AD00019BE18BE1FBC1EBC1DB81EB810B816BE6D
:100AE000089521E0209390069FEF97BB18BA81B339
:100AF000806E81BB82B38F7182BBDF989598969888
:100B00009798EFEFF3E23197F1F700C0000080E330
:100B100088BBF6E0FA95F1F70000979A36E03A952F
:100B2000F1F700009798ECECFAE03197F1F700C08C
:100B3000000088BBF6E0FA95F1F70000979A36E0DE
:100B40003A95F1F700009798ECECFAE03197F1F75D
:100B500000C0000088BBF6E0FA95F1F70000979A14
:100B600036E03A95F1F7000097988DE38A95F1F712
:100B700000C088E388BBE6E0EA95F1F70000979AA9
:100B8000F6E0FA95F1F7000097983DE33A95F1F712
:100B900000C08CE088BB86E08A95F1F70000979A48
:100BA000E6E0EA95F1F700009798FDE3FA95F1F792
:100BB00000C028BB36E03A95F1F70000979A86E02E
:100BC0008A95F1F700009798EDE3EA95F1F700C0F8
:100BD00086E088BBF6E0FA95F1F70000979A36E0D8
:100BE0003A95F1F7000097988DE38A95F1F700C0E8
:100BF00018BADF9A98BB82B38F7182BB10929006AD
:100C0000089588BB86E08A95F1F70000979A86E000
:100C10008A95F1F7000097980895880F860F845FF2
:100C200091E0909390062FEF27BB18BA91B3906E86
:100C300091BB92B39F7192BBDF98959888BB86E079
:100C40008A95F1F70000979A86E08A95F1F70000FF
:100C5000979885E28A95F1F718BADF9A28BB82B394
:100C60008F7182BB109290060895633010F4813129
:100C700008F0089591E0909390069FEF97BB18BA03
:100C800021B3206E21BB22B32F7122BBDF98959830
:100C9000E62FF0E03197E295F295F07FFE27E07FB6
:100CA000FE27E80FF11DED5AFF4FE491E8BB86E007
:100CB0008A95F1F70000979A86E08A95F1F700008F
:100CC000979885E28A95F1F718BADF9A98BB82B3B4
:100CD0008F7182BB10929006089591E090939006D8
:100CE0002FEF27BB18BA91B3906E91BB92B39F714F
:100CF00092BBDF98959A88BB86E08A95F1F7000051
:100D0000979A86E08A95F1F70000979885E28A9590
:100D1000F1F718BADF9A28BB82B38F7182BB1092A9
:100D20009006089521E0209390069FEF97BB18BA94
:100D300081B3806E81BB82B38F7182BBDF9895983F
:100D400028BB86E08A95F1F70000979AE6E0EA95DD
:100D5000F1F700009798E9E9F3E03197F1F700C067
:100D600018BADF9A98BB82B38F7182BB109290063B
:100D70000895CF93DF93EA010E9435068881882386
:100D800031F021960E946D0689918823D9F7DF9171
:100D9000CF9108951F920F920FB60F9211242F93A7
:100DA0003F934F935F936F937F938F939F93AF93F3
:100DB000BF93EF93FF9389E182BF08B601FE03C0A2
:100DC00088B7826088BF9FB7F89480918A06816057
:100DD00080938A069FBF80918406909185069C012E
:100DE0002F5F3F4F309385062093840623E0883E93
:100DF000920768F01092850610928406809186060C
:100E0000909187060196E4E8F6E0938382838091CF
:100E1000880690918906009739F00197909389068A
:100E2000809388060097B9F0829902C00E949D0FB6
:100E30000E947C0DFF91EF91BF91AF919F918F9197
:100E40007F916F915F914F913F912F910F900FBEC6
:100E50000F901F9018959FB7F89480918A06826032
:100E600080938A069FBFE0CF1F920F920FB60F921A
:100E700011248F939F938BB78F7B8BBF82990FC069
:100E80009FB7F89480918A06846080938A069FBFFA
:100E90009F918F910F900FBE0F901F9018959FB745
:100EA000F89480918A06886080938A069FBF9F91FC
:100EB0008F910F900FBE0F901F9018951F920F9259
:100EC0000FB60F9211248F939F938BB78F778BBFA1
:100ED0009FB7F89480918A06806280938A069FBFAC
:100EE0009F918F910F900FBE0F901F9018951F929A
:100EF0000F920FB60F9211242F933F934F935F934E
:100F00006F937F938F939F93AF93BF93CF93EF9301
:100F1000FF93CFB7F8940E948218CFBFFF91EF9153
:100F2000CF91BF91AF919F918F917F916F915F9181
:100F30004F913F912F910F900FBE0F901F901895DA
:100F400085B7816085BF8BB780648BBF8BB78068A6
:100F50008BBF8AB78F718ABF81E089BF0895282F20
:100F6000216061157105A1F03FB7F89490918A0650
:100F70009E7F90938A063FBF90918A069223E1F369
:100F800090918A0661507040982359F384E0089547
:100F900081E00895E1EEF6E080E090E005C0019682
:100FA00028E0E036F20718F421912A3AC1F30895B7
:100FB000CF93FC01C0819FB7F89480918A068F7E01
:100FC00080938A069FBF0E949206CC2379F581E028
:100FD00061E04AE950E00E94B9060E948A0F81E070
:100FE00062E046EA50E00E94B9060E94021D882392
:100FF000B1F08EE062E043EB50E00E94B9060E943F
:10100000C20E80918A068871E1F39FB7F8948091AF
:101010008A068F7E80938A069FBFCF9108958EE0C7
:1010200062E046EB50E00E94B906EBCFC130B9F662
:1010300081E061E04AE850E00E94B9060E94770F23
:10104000CECFCF93DF9300D0CDB7DEB719821A820F
:101050009FB7F89480918A068F7E80938A069FBFFF
:101060000E94920681E061E049EB50E00E94B906DF
:1010700081E062E047EC50E00E94B90680E090E039
:1010800062E0AE014F5F5F4F0E94D50484EF91E0B4
:101090000E94B0118DE062E043EB50E00E94B9067F
:1010A00080918A068871E1F39FB7F89480918A064F
:1010B0008F7E80938A069FBF0F900F90DF91CF9114
:1010C00008959FB7F89480918A068F7E80938A0650
:1010D0009FBF0E94920681E061E049EB50E00E94D0
:1010E000B90681E062E043ED50E00E94B90610923B
:1010F0004C0580E093E060E00E94881381E093E07B
:1011000060E00E94881382E093E060E00E94881310
:1011100083E093E060E00E94881384E093E060E065
:101120000E94881384EF91E00E94B0118DE062E08C
:1011300043EB50E00E94B90680918A068871E1F382
:101140009FB7F89480918A068F7E80938A069FBF0E
:1011500008959FB7F89480918A068F7E80938A06BF
:101160009FBF0E9465149FB7F89480918A068F7E76
:1011700080938A069FBF08950E94920681E061E0F5
:101180004FED50E00E94B90681E062E04DEE50E084
:101190000E94B9060E94131A8823D9F085E062E004
:1011A00043EB50E00E94B9069FB7F89480918A06FD
:1011B0008F7E80938A069FBF80918A068871E1F3B3
:1011C0009FB7F89480918A068F7E80938A069FBF8E
:1011D000089585E062E041EF50E00E94B906E4CF57
:1011E000CF930E94821BC82F0E945C190E94920616
:1011F00081E061E048EF50E00E94B90681E062E0E2
:101200004DEE50E00E94B90685E062E0C130D1F0B9
:1012100047E051E00E94B9069FB7F89480918A0692
:101220008F7E80938A069FBF80918A068871E1F342
:101230009FB7F89480918A068F7E80938A069FBF1D
:10124000CF9108954DE455E00E94B906E5CF9FB7D0
:10125000F89480918A068F7E80938A069FBF0E94B1
:10126000A31180918A068871E1F39FB7F894809169
:101270008A068F7E80938A069FBF08959FB7F89451
:1012800080918A068F7E80938A069FBF0E943B10C2
:101290009FB7F89480918A068F7E80938A069FBFBD
:1012A0000895CF933FB7F89420918A062F7E20931C
:1012B0008A063FBFFC0180810E94780B0E94021DBC
:1012C000C82F0E94920681E061E042E151E00E9455
:1012D000B90681E062E040E251E00E94B9068FE089
:1012E00062E0CC2351F446EB50E00E94B90688EE50
:1012F00093E00E94B011CF91089543EB50E00E941B
:10130000B9060E94C20E88EE93E00E94B011CF9100
:1013100008959F92AF92BF92CF92DF92EF92FF9289
:101320000F931F93CF93DF936C01FC01E480F58052
:101330008281882309F482C0F701208130E0828114
:1013400090E0821B930B181619060CF077C0C901A8
:10135000880F991F820F931FEC01CC0FDD1FCC0F5C
:10136000DD1FCC0FDD1FC81BD90B2596CE0DDF1D51
:1013700090E0092F0F5FF601808161816F5F690F37
:101380008F5F0E943506A02EBB24F60113811150F9
:10139000F701218130E02F5F3F4F8081A501480F89
:1013A000511D2417350709F445C080E20E946D06DF
:1013B000112371F08B81882379F12496992403C03D
:1013C0008991882351F10E946D0693941915C1F7F4
:1013D000F6018281081790F5F701408150E0CA01BB
:1013E0008A0D9B1D9C01220F331F280F391FE90115
:1013F000CC0FDD1FCC0FDD1FCC0FDD1FC21BD30BAD
:101400002596CE0DDF1D828190E0841B950BA816DA
:10141000B906A4F4902FADCF992480E20E946D0606
:1014200093949116A8F680E20E946D06939491160B
:10143000A0F3CECF8EE30E946D06BACFDF91CF919D
:101440001F910F91FF90EF90DF90CF90BF90AF90E2
:101450009F900895CF93DF93EC01EC81FD81218172
:1014600030E0C901880F991F820F931FDC01AA0F7A
:10147000BB1FAA0FBB1FAA0FBB1FA81BB90B15963A
:10148000AE0FBF1F8C9180FD12C0BD016D5F7F4FFD
:101490001196ED91FC91129753968D919C915497D2
:1014A0000995CE010E948909DF91CF910895539645
:1014B0000D90BC91A02D1496FC93EE931397BD83D1
:1014C000AC83CE010E948909CE010E948909DF9177
:1014D000CF910895DC011496ED91FC91159741810F
:1014E0004F5F82814817A0F4418312965C91129756
:1014F000242F30E06081852F90E0860F911D281702
:1015000039071CF0451B4F5F4083CD010E948909BC
:101510000895DC011496ED91FC9115972181222309
:1015200041F0215021833081231708F420830E9449
:1015300089090895DC011496ED91FC91159723819A
:1015400034812115310531F015963C932E93149773
:101550000E9489090895FC0124813581FB013483AF
:101560002383FC01758364830E94890908958EE2B8
:1015700091E00E94890A08958EE291E00E946A0A31
:1015800008958EE291E00E949A0A08958EE291E019
:101590000E942A0A08951092340110923501809118
:1015A000320190913301909338018093370184E3A5
:1015B00091E090933301809332018EE291E00E949A
:1015C00089090895873391F0883348F08D3389F085
:1015D0008E3361F08B3311F40E94C10A08958F316C
:1015E00059F08F32D9F70E94BC0A08950E94C60AAA
:1015F00008950E94B70A08950E94C10A08958F9223
:101600009F92AF92BF92CF92DF92EF92FF920F9391
:10161000CF93DF93C82F0E94920681E061E044E8F7
:1016200052E00E94B90681E062E043E952E00E9484
:10163000B90689E062E04BE952E00E94B906D0E0C9
:10164000219780E090E067E170E042E029E002E06D
:101650000E943B159C0140E15EE00E94AA214B01E3
:101660005C01CE01880F991F8C0F9D1FEC01CC0FE0
:10167000DD1FCC0FDD1FC80FD91FC156D94F89867A
:101680009A86AB86BC8680E090E06BE370E042E037
:101690002CE00E943B159C014CE350E00E94AA21E3
:1016A0006B017C01C80CD91CEA1CFB1CC986DA86BC
:1016B000EB86FC8680E090E06BE370E042E02FE098
:1016C0000E943B15A0E0B0E08C0D9D1DAE1DBF1D1E
:1016D00089879A87AB87BC87DF91CF910F91FF9065
:1016E000EF90DF90CF90BF90AF909F908F90089534
:1016F0006F927F928F929F92AF92BF92CF92DF9222
:10170000EF92FF920F931F93CF93DF93CDB7DEB786
:10171000C058D0400FB6F894DEBF0FBECDBFA82E84
:10172000BB24C82EDD240894C108D1084601880CCA
:10173000991CC4018C0D9D1D7C01EE0CFF1CEE0C50
:10174000FF1CE80EF91E8FE996E0E80EF91E38E05E
:10175000632E712C6E0C7F1C91E0B91609F4F3C056
:10176000E2E0BE1609F4ABC0FE013196A4EAB2E095
:1017700089E00D9001928150E1F781E695E7A3E7BA
:10178000B0E0898B9A8BAB8BBC8B85E699E6AEE695
:10179000B0E089A39AA3ABA3BCA302E00E94920687
:1017A00081E061E0AE014F5F5F4F0E94B90681E0CA
:1017B00062E0AE014F5E5F4F0E94B90681E062E0D9
:1017C0000E94350681E061E00E940D0611E08091E3
:1017D0008A068C71E1F380918A068C7009F059C0F9
:1017E000809193068F3209F4DDC08D3309F4D5C0A2
:1017F000412F50E042955295507F5427407F542707
:1018000081E090E08C0F9D1F480F591F81E062E03E
:101810000E94B90681E062E00E9435069FB7F89405
:1018200080918A068F7E80938A069FBF809193065F
:101830008B3309F4BCC08E3351F691E0B91609F42C
:10184000C0C0F2E0BF1609F4B7C0F701168311302B
:1018500001F1B394F3E0BF1609F07ECFC80CD91C98
:101860007601EE0CFF1CEE0CFF1CEC0CFD1C8FE94E
:1018700096E0E80EF91EF7018781843009F4A5C0CF
:101880008A2D0E94FF0A0E94260580E060E00E94E7
:101890000D06C058DF4F0FB6F894DEBF0FBECDBFA8
:1018A000DF91CF911F910F91FF90EF90DF90CF903C
:1018B000BF90AF909F908F907F906F900895FE01A2
:1018C0003196AAEFB2E08AE00D9001928150E1F7E3
:1018D000FE017196A4E0B3E088E00D900192815082
:1018E000E1F7FE01B196ACE0B3E088E00D90019223
:1018F0008150E1F7FE01F196A4E1B3E088E00D909C
:1019000001928150E1F7FE01EF5BFF4FACE1B3E0E4
:1019100088E00D9001928150E1F7FE01EF5AFF4FF0
:10192000A4E2B3E088E00D9001928150E1F7FE015E
:10193000EF59FF4FACE2B3E088E00D900192815087
:10194000E1F706E02BCFFE013196ADEAB2E08DE083
:101950000D9001928150E1F7FE017196AAEBB2E081
:1019600080E10D9001928150E1F7FE01B196AAEC61
:10197000B2E080E10D9001928150E1F7FE01F19615
:10198000AAEDB2E080E10D9001928150E1F7F1E023
:10199000AF1609F4A5C003E001CF101708F028CF57
:1019A0001F5F26CF113009F423CF115021CF80E0E3
:1019B00060E00E940D066DCFF3011083F7011681E0
:1019C00046CFF7011783168142CF0E94920681E02D
:1019D00061E044E353E00E94B90688E061E046E339
:1019E00053E00E94B90681E062E041E453E00E94C6
:1019F000B906F701408550E042955295507F542733
:101A0000407F54274F5F5F4F81E090E08C0F9D1F18
:101A1000480F591F88E062E00E94B90681E061E04A
:101A20000E940D0681E090E06FEF7FEF45E022E03D
:101A300001E00E943B15BC0180E090E00E949520EF
:101A4000862E672ED82E992E862F962DAD2DB92D48
:101A5000BC01CD0120E030E0A9010E94FD1F8823D8
:101A600009F414CF81E090E06FEF7FEF45E022E0D2
:101A700002E00E943B15BC0180E090E00E949520AE
:101A8000162F072FC82EB92EA801852F942FAC2D05
:101A9000BB2DBC01CD0120E030E0A9010E94FD1F5B
:101AA000882309F4F3CEA801852F942FAC2DBB2DEC
:101AB000BC01CD01082D162D2D2D392DA901980120
:101AC0000E940120DC01CB01F701818B928BA38B5B
:101AD000B48B85B3807485BB84B3807484BBD0CE53
:101AE000FE01EF5BFF4FAAEEB2E080E10D900192A4
:101AF0008150E1F704E052CE8091A606843009F0CF
:101B000008958091A5068230D9F783B380749091AF
:101B1000A406992309F191509093A406992381F783
:101B20009091A306981761F38093A3068091A10674
:101B30009091A2062FEF8F3F920711F30196909399
:101B4000A2068093A1069FB7F89480918A068068C8
:101B500080938A069FBF08959091A306981781F2FB
:101B6000882319F08093A306089582E38093A40646
:101B7000089587B984E886B968E080E090E0369AF5
:101B8000349BFECF349A44B155B1352F20E050E05C
:101B9000422B532B840F951F615089F716B817B845
:101BA00096958795969587959695879508950F9321
:101BB0001F93E5EAF6E00FEF1FEF98018081823076
:101BC00051F03F9686E0E13EF807C1F7B801C90140
:101BD0001F910F91089587819085A185B285801707
:101BE0009107A207B30768F78C019D01EACFEF9236
:101BF000FF921F93CF93DF93CDB7DEB72B970FB62E
:101C0000F894DEBF0FBECDBF7C01162F80E090E0C0
:101C100062E0AE014F5F5F4F0E94D90389819A81D4
:101C20008436910508F065C084E996E00E949C1610
:101C3000DC01CB018B839C83AD83BE8380918D06B9
:101C40008F8380918E0690918F0699878887612F68
:101C500070E0CB01880F991F860F971FFC01EE0FD4
:101C6000FF1FEE0FFF1FE80FF91FE156F94F8781A5
:101C700090E0019783709070982F88279295907FBD
:101C800097013F70822B932B70E4679F702D66271E
:101C90001124862B972B9B878A8729813A81C9013A
:101CA000880F991F880F991F880F991F820F931F04
:101CB000409669E0AE014D5F5F4F0E94D504898177
:101CC0009A8101969A83898380E090E062E0AE0178
:101CD0004F5F5F4F0E94D50481E02B960FB6F894BA
:101CE000DEBF0FBECDBFDF91CF911F91FF90EF9070
:101CF00008950E94D31F882309F496CF1A8219826F
:101D000093CFCF93C82F0E94C70384E00E94B90DE0
:101D10009C0148E356E30E94AA21DC01CB01EAE0E2
:101D2000B695A79597958795EA95D1F790938F06E5
:101D300080938E062C2F30E0C901880F991F820FE7
:101D4000931FFC01EE0FFF1FEE0FFF1FE80FF91F9F
:101D5000E156F94F8781843041F08C2F0E94B90DF4
:101D60006C2F0E94F70DCF9108958091A10690915C
:101D7000A2066C2F0E94F70D1092A2061092A106E7
:101D8000CF910895CF92DF92EF92FF920F931F931E
:101D9000CF93DF9300D00F92CDB7DEB705EA16E000
:101DA000980140E050E0BA0190E0F9018081823072
:101DB00009F466C09F5F215F3F4F9430B1F7411532
:101DC00051056105710509F44FC0CC24CA94DC2C7F
:101DD0007601F8018081823009F460C0015F1F4FF5
:101DE000F6E0013E1F07A9F78FEFC816D104E10402
:101DF000F10408F477C0C701B6012CE330E040E0FD
:101E000050E00E94F82169017A01EFEFCE16D1046B
:101E1000E104F10431F028F0BFEFCB2ED12CE12CFE
:101E2000F12C8C2D63E00E94EF02C701B6012CE378
:101E300030E040E050E00E94B9216B017C01ECEA07
:101E4000F6E080819181A281B3818C199D09AE0950
:101E5000BF0980839183A283B3833F9686E0E83EE7
:101E6000F80779F70E94B4020F900F900F90DF915E
:101E7000CF911F910F91FF90EF90DF90CF90089539
:101E80004781508561857285411551056105710550
:101E900091F041E050E060E070E08CCF8781908568
:101EA000A185B2858C159D05AE05BF0508F096CFBE
:101EB0006C017D0193CF892F2A833B8399830E94F4
:101EC000810E2A813B81F9014381548165817681AC
:101ED000478350876187728741E050E060E070E09F
:101EE000998168CF8C2D62E00E94EF02A8CF82E03A
:101EF0008093A50684E08093A60688E592E0A0E0A2
:101F0000B0E08093A8069093A906A093AA06B09388
:101F1000AB06089582E08093A50684E08093A60630
:101F200080EB94E0A0E0B0E08093A8069093A9062F
:101F3000A093AA06B093AB060895809190068823DB
:101F400079F580918A0684FD2BC017BA8FEF88BB84
:101F500086B38F7390919106981741F08F3331F0CB
:101F60008093910681E38093920608959091920662
:101F70009923B9F48F33A1F490919206992381F4B7
:101F80002091910690919306291751F48093910620
:101F90009FB7F89480918A06806180938A069FBFDC
:101FA0000895915090939206992321F7909191066C
:101FB000981721F09FE390939106DCCF80939306CE
:101FC000D9CFDC01FB0113968C91139782958F700A
:101FD000840F808313968C9113978F70840F818365
:101FE0009EE2928315968C91159782958F70840F3F
:101FF000838315968C9115978F70840F84839583B6
:1020000016968C91169782958F70840F86831696FC
:102010008C9116978F70840F87831086CB0108955B
:10202000DC01FB0112968C91129782958F70840FC0
:10203000808312968C9112978F70840F81839AE31C
:10204000928311968C91119782958F70840F838360
:1020500011968C9111978F70840F848395838C9146
:1020600082958F70840F86838C918F70840F878305
:102070001086CB010895BF92CF92DF92EF92FF922C
:102080000F931F93CF93DF93CDB7DEB76B970FB648
:10209000F894DEBF0FBECDBFFE013A9682E1DF01AC
:1020A0001D928A95E9F783E08A8789E08B8791E022
:1020B0009D878E87888B898B92E09B8B8C8B95E09C
:1020C0009E8B8F8B998F8A8F0E94E7010E949206C8
:1020D00081E061E048E453E00E94B90681E062E0FB
:1020E00040E553E00E94B90684E996E0BE016F5FC7
:1020F0007F4F40E30E94E10FAC0189E061E00E9464
:10210000B90684E996E0BE016F5F7F4F40E30E940D
:102110001010AC0189E062E00E94B90681E061E044
:102120000E940D0689E061E00E943506CC24DD2482
:1021300011E0BC2C84E996E0BE016F5F7F4F40E068
:10214000CC2009F0BEC00E94E10F0B2D0F5F76017D
:10215000EE0CFF1CEE0CFF1CEE0CFF1CEC0CFD1C2F
:1021600081E090E08C0F9D1FE80EF91E80918A0699
:102170008C71E1F380918A068C7009F044C08091E3
:1021800093068F3209F478C0803308F04CC08F3149
:1021900009F482C0812F885F602F0E9435069FB7A7
:1021A000F89480918A068F7E80938A069FBF8091E3
:1021B00093068B3321F18E33C9F6BB2009F489C015
:1021C00089818295807F9A81890F809396068C8180
:1021D0008295807F9D81890F809395068F8182955E
:1021E000807F9885890F809394060894C11CD11C28
:1021F00092E0C916D10409F09CCF0E94100380E040
:1022000060E00E940D066B960FB6F894DEBF0FBE1D
:10221000CDBFDF91CF911F910F91FF90EF90DF9095
:10222000CF90BF9008958733E9F08D3309F0B2CF96
:10223000212F30E021503040E1E0F0E0EC0FFD1FB5
:10224000E20FF31F80812E0D3F1DD90119969C913D
:102250001997891708F09ECF8F5F8083805D0E9459
:102260006D0698CF183020F5912F9F5F812F933006
:1022700059F5865F1E5F90CFE12FF0E0319781E046
:1022800090E08C0F9D1FE80FF91F8081882309F4CF
:1022900081CF81508083E2CF123080F0912F915016
:1022A000812F933041F0963031F0895F192F74CF30
:1022B00089E011E071CF8A5F12506ECF80E118E0A3
:1022C0006BCF0E94101041CF963099F2875F192F83
:1022D00063CF89E062E00E94350689818295807F24
:1022E0009A81890F809397068C818295807F9D814A
:1022F000890F809399068F818295807F9885890FB9
:1023000080939A0611E071CFAC016623D1F0615041
:1023100070E002969B01220F331F820F931FFA0178
:102320003DE02AE03083218332968E179F07D1F754
:10233000FB013196EE0FFF1FE40FF51F1082CA015B
:102340000895FC01FBCF81E061E048E553E00E9485
:10235000B90681E062E049E653E00E94B9060895BB
:102360003FB7F89420918A062E7F20938A063FBFBC
:10237000009771F020918A0620FFFCCF3FB7F894B8
:1023800020918A062E7F20938A063FBF019791F7FE
:10239000089580538A3020F08151863010F08FEFFD
:1023A0000895865F08958F929F92BF92CF92DF9299
:1023B000EF92FF920F931F93CF93DF936C016623ED
:1023C00089F16150862E99247C010894E11CF11C4E
:1023D000E80CF91CEC018C0188810E94C911B82E0F
:1023E000B294F0EFBF22F801B082898122960E9458
:1023F000C9118B29F80181938F01EE15FF0561F753
:10240000F4013196EC0DFD1D1082C601DF91CF91D4
:102410001F910F91FF90EF90DF90CF90BF909F9012
:102420008F900895FC01F0CF8F708A3010F0895C96
:102430000895805D0895FB01292F22952F702A3081
:10244000E0F4205D2083292F2F702A30E0F4205DF6
:1024500021839C01329522952F7023273F702327DB
:102460002F702A3090F4205D22838F708A3090F094
:10247000895C83831482CF010895295C2083292FEE
:102480002F702A3020F3295CE3CF295C22838F70E0
:102490008A3070F7805D83831482CF0108950F9393
:1024A0001F938B019C01FA01DC01CB01072E7CE11B
:1024B000B695A795979587957A95D1F7702D8F70DA
:1024C0008A3008F04BC0805D8083832F8F708A3004
:1024D00008F04BC0805D8183D901C80164E1B695E5
:1024E000A795979587956A95D1F78F708A3008F0F0
:1024F00050C0805D8283822F8F708A3008F047C081
:10250000805D8383D901C8015CE0B695A795979556
:1025100087955A95D1F78F708A30B8F5805D84839E
:10252000812F8F708A3078F5805D8583D901C8014D
:1025300044E0B695A795979587954A95D1F78F7002
:102540008A30A8F4805D86830F700A30A8F0095C99
:1025500007831086CF011F910F910895895C8083B6
:10256000832F8F708A3008F4B5CF895CB4CF895C33
:1025700086830F700A3058F7005D07831086CF01FD
:102580001F910F910895895CD0CF895CC8CF895C79
:10259000B8CF895CAFCFCF93DF93EB014130C9F067
:1025A000DB0113961C92FD019D01235030405AE03F
:1025B000652F0E94D821905D9293E217F307C1F72F
:1025C000413019F414978DE28C93CE01DF91CF91B5
:1025D000089587FD04C0DB01139640E0E3CF8195A9
:1025E000DB011496DFCFCF93DF93EB011D82FB015C
:1025F00035962AE030E0B9010E94E421805D8293A3
:10260000CB01EC17FD07B9F7CF01DF91CF9108950A
:102610008F929F92AF92BF92CF92DF92EF92FF92F2
:102620000F931F93CF93DF935A0120E030E048ECE3
:1026300052E40E9447210E946920AC01F5011782F3
:1026400085010A5F1F4FC1E08AE0C82ED12CE12C22
:10265000F12CDEE2C33081F0CA01A70196010E948D
:10266000F821605DF8016083C630C9F00150104068
:10267000B901CF5FC33081F7F801D08348010894D6
:1026800081089108CA01A70196010E94F821605DA6
:10269000F401608302501040B901CF5FEBCFC50158
:1026A000DF91CF911F910F91FF90EF90DF90CF902E
:1026B000BF90AF909F908F9008950F931F93282FF6
:1026C00022952F7030E08901000F111F220F331F58
:1026D000220F331F220F331F020F131F8F70080F9B
:1026E000111D222717FD2095322FB801C9011F9116
:1026F0000F910895FB01DC0105C09D91819141502E
:10270000981721F44423C9F781E0089580E00895E3
:102710009FBB8EBB8FB3843078F481E08CBB8DB3CC
:10272000861751F08FB7F8946DBB94E09CBB92E094
:102730009CBB8FBFE199FECF0895EF92FF920F935C
:102740001F93CF93DF938C017B01EA01209751F017
:10275000C801F70161917F010E9488130F5F1F4F2D
:102760002197B1F7DF91CF911F910F91FF90EF90DB
:1027700008959FBB8EBB8FB3843020F481E08CBB67
:102780008DB3089580E00895FB0141155105A1F036
:1027900031E007C03CBB2DB321930196415050401E
:1027A00059F09FBB8EBB2FB32430A0F320E02193C0
:1027B000019641505040A9F708950F931F93CF936E
:1027C000DF9300D0CDB7DEB78C0180914C058F37F9
:1027D00038F00F900F90DF91CF911F910F910895D6
:1027E0001A83098390E0880F991F8F5F9C4FBE0169
:1027F0006F5F7F4F42E050E00E949D1360914C0557
:102800000115110519F06F5F60934C0580E093E0AE
:102810000E9488130F900F90DF91CF911F910F911D
:10282000089593E09FBB1EBA9FB3943000F591E0EA
:102830009CBB9DB39F3F59F190934C0590E0880F4E
:10284000991F9C012F5F3C4F3FBB2EBB2FB3243001
:1028500080F030E08E5F9C4F9FBB8EBB8FB3843087
:1028600090F481E08CBB2DB3832F922F089590E0DC
:10287000E3CF21E02CBB3DB38E5F9C4F9FBB8EBB53
:102880008FB3843070F320E0832F922F089510923D
:102890004C0580E093E060E00E94881381E093E0C3
:1028A00060E00E94881382E093E060E00E94881359
:1028B00083E093E060E00E94881384E093E060E0AE
:1028C0000E94881380E090E00895FF920F931F9379
:1028D000CF93DF9300D000D00F92CDB7DEB70E9428
:1028E000920681E061E049E753E00E94B90687E083
:1028F00061E040E853E00E94B90687E062E046E804
:1029000053E00E94B90680E00E941114BE016F5F7F
:102910007F4F0E941B12AC018DE061E00E94B9065E
:1029200081E00E941114BE016F5F7F4F0E941B1255
:10293000AC018DE062E00E94B90610E080918A0649
:102940008C71E1F380918A068C7009F04CC0809103
:1029500093068F3209F459C08D3309F44FC0012F0B
:102960000F5FA2E0FA2EF10E802FBE016F5F7F4F46
:1029700040E00E94CB12AC0187E061E00E94B90602
:102980008F2DBE016F5F7F4F40E00E94CB12AC01E4
:1029900087E062E00E94B906812F0E941114BE01F7
:1029A0006F5F7F4F0E941B12AC018DE061E00E94BF
:1029B000B906802F0E941114BE016F5F7F4F0E94E5
:1029C0001B12AC018DE062E00E94B9069FB7F8943B
:1029D00080918A068F7E80938A069FBF809193069E
:1029E0008B3309F0ABCF0F900F900F900F900F909B
:1029F000DF91CF911F910F91FF9008951123A1F0C6
:102A0000012FF12EF3941150AFCF212F30E08091A0
:102A10004C0590E00297012F281739074CF00F5F03
:102A2000F2E0FF2EF10EA0CF72E0F72E01E09CCF76
:102A30000E5FE3E0FE2EF10E1F5F96CF0E9476023E
:102A40000E94E7010E94C70380E00E94111482994E
:102A500009C00E9471050E9461000E943B10829B88
:102A600007C0089584B790E099690E94DD13089526
:102A70000E94CB0A08952F923F924F925F926F92DD
:102A80007F928F929F92AF92BF92CF92DF92EF92FE
:102A9000FF920F931F93CF93DF93CDB7DEB7699764
:102AA0000FB6F894DEBF0FBECDBF4C01788F6F8B91
:102AB000E42EF22E9E01235F3F4F8AE0F90111922E
:102AC0008A95E9F7FE013796ACE8B3E086E00D9011
:102AD00001928150E1F7FE013196A2E9B3E086E070
:102AE0000D9001928150E1F78E2D90E010E071E0A1
:102AF000472E512C4C0E5D1E480E591EE7E02E2E1F
:102B0000312C2C0E3D1E280E391EFE2DF150F98F52
:102B1000A5E06A2E712C681A790A660C771C620E81
:102B2000731E48E0A42EB12CAC0EBD1EAF0EB11C1E
:102B3000F2011082F10110828F2D602FAE01495FEA
:102B40005F4F0E94B9068F2D602F0E94350681E0ED
:102B500061E00E940D0680918A068C71E1F38091FC
:102B60008A068C7009F0E5C0809193068F3209F4D3
:102B7000A8C0803308F093C08F3109F4AFC08F2D07
:102B8000602FAE01495F5F4F0E94B906812F8F0D04
:102B9000602F0E9435069FB7F89480918A068F7E39
:102BA00080938A069FBF809193068B3311F08E33FA
:102BB00091F680E060E00E940D06809193068B33D1
:102BC00009F4B7C0EE2079F0FE013796D301819168
:102BD000882329F090E0C09711969C938E931296CB
:102BE000EA15FB05A1F78D859E8520E137E2829FDE
:102BF0006001839FD00C929FD00C11248F859889FF
:102C000048EE53E0849F9001859F300D949F300DD6
:102C10001124C20ED31E8D899E89C80ED91E8B89A0
:102C20009C899C01220F331F880F991F880F991FC1
:102C3000880F991F280F391FC20ED31E89899A89C0
:102C400024E630E0829FA001839F500D929F500D9B
:102C50001124C40ED51EC814D90408F449C08F89A4
:102C6000988D8C159D0508F443C0C60169960FB672
:102C7000F894DEBF0FBECDBFDF91CF911F910F91B2
:102C8000FF90EF90DF90CF90BF90AF909F908F908C
:102C90007F906F905F904F903F902F900895873373
:102CA00009F18D3309F06BCFE7E0F0E0EC0FFD1F89
:102CB000E10FF11D8081893308F061CF8F5F808340
:102CC0005ECFE7E0F0E0EC0FFD1FE10FF11D80812A
:102CD000813308F454CF8150808351CF112339F5CB
:102CE000198D4DCF1F5F1E1508F449CF10E047CF57
:102CF0008F2D602FAE014F5F5F4F0E94B90680E1BC
:102D000068EE73E00E94AF079FB7F89480918A063F
:102D10008F7E80938A069FBFC814D90408F408CF19
:102D2000EF89F88DEC15FD0508F402CF9ECF115008
:102D300026CFCC24DD2499CF8F929F92AF92BF9261
:102D4000CF92DF92EF92FF92CF93DF93EC010E943C
:102D5000E7012E81205E822F82958F7090E04C01DA
:102D6000880C991C880F991F880F991F880F991F2D
:102D7000880E991E2F70820E911CAA2497FCA09495
:102D8000BA2C7AE1880C991CAA1CBB1C7A95D1F745
:102D90002D815B816A8179814881822F82958F7034
:102DA00090E06C01CC0CDD1C880F991F880F991FD7
:102DB000880F991FC80ED91E2F70C20ED11CEE2489
:102DC000D7FCE094FE2CA6E1CC0CDD1CEE1CFF1C15
:102DD000AA95D1F7252F22952F7030E0C901880FD1
:102DE000991F220F331F220F331F220F331F820F11
:102DF000931F5F70850F911DAA2797FDA095BA2F8D
:102E0000F1E1880F991FAA1FBB1FFA95D1F7C82AB5
:102E1000D92AEA2AFB2A242F22952F7030E0C901F3
:102E2000880F991F220F331F220F331F220F331FCA
:102E3000820F931F4F70840F911DAA2797FDA095B5
:102E4000BA2FC82AD92AEA2AFB2A262F22952F70C0
:102E500030E0C901880F991F220F331F220F331F43
:102E6000220F331F820F931F6F70860F911DAA27A9
:102E700097FDA095BA2F5CE0880F991FAA1FBB1F72
:102E80005A95D1F7C82AD92AEA2AFB2A272F229550
:102E90002F7030E0C901880F991F220F331F220FB6
:102EA000331F220F331F820F931F7F70870F911DD7
:102EB000AA2797FDA095BA2F880F991FAA1FBB1F9D
:102EC000880F991FAA1FBB1F880F991FAA1FBB1F1E
:102ED000880F991FAA1FBB1F880F991FAA1FBB1F0E
:102EE000880F991FAA1FBB1FC82AD92AEA2AFB2AC2
:102EF000C828D928EA28FB28B601C701DF91CF915D
:102F0000FF90EF90DF90CF90BF90AF909F908F9009
:102F10000895DC01CB01FA01AC01BD012AE17695EF
:102F20006795579547952A95D1F744514683AC014B
:102F3000BD0136E176956795579547953A95D1F756
:102F40004F704583AC01BD0121E17695679557959A
:102F500047952A95D1F74F714383AC01BD013CE001
:102F600076956795579547953A95D1F74F71428376
:102F7000AC01BD0126E076956795579547952A9552
:102F8000D1F74F7341838F7380830895FC0186814D
:102F90002AE0622F0E94D8218295807F892B868328
:102FA00085810E94D8218295807F892B85838381AA
:102FB0000E94D8218295807F892B838382810E9401
:102FC000D8218295807F892B828381810E94D8219C
:102FD0008295807F892B818380810E94D821829570
:102FE000807F892B80830895CF92DF92EF92FF92AA
:102FF000CF93DF93CDB7DEB727970FB6F894DEBF38
:103000000FBECDBFAE014F5F5F4F0E948917698130
:103010009A818CE3989F60011124EE24D7FCE09400
:10302000FE2C4B8150E020E13EE0429FC001439FD7
:10303000900D529F900D1124AA2797FDA095BA2FAD
:10304000C80ED91EEA1EFB1EC60ED11CE11CF11CC7
:103050004C8150E020E831E5429FC001439F900D34
:10306000529F900D1124AA2797FDA095BA2FC80E44
:10307000D91EEA1EFB1EB601C70127960FB6F894AB
:10308000DEBF0FBECDBFDF91CF91FF90EF90DF90FD
:10309000CF900895CF92DF92EF92FF92CF93DF937C
:1030A000EA0120E13EE040E050E00E94F8216B019F
:1030B0007C01822FBE0140E00E94CB12C701B60105
:1030C0002CE330E040E050E00E94F821C62EBE0123
:1030D0006D5F7F4F822F40E00E94CB129E012A5FDE
:1030E0003F4F8C2DB90140E00E94CB128AE38B83C5
:1030F0008E83CE010196DF91CF91FF90EF90DF900C
:10310000CF9008958BB19CB1887131F05F9B0BC05B
:103110008CB15F99FDCF08958091E8059D3021F035
:103120008639D0F0000008958230E8F3E82FF0E00F
:10313000E35BFA4F95838F5F8093E8058091EA0502
:103140008F5F8093EA059FB7F89480918A06806428
:1031500080938A069FBF0895E82FF0E0E35BFA4F63
:1031600095838F5F8093E80508955D9BFECF8CB9B2
:103170000895FC018081882339F031965D9BFECF54
:103180008CB981918823D1F75D9BFECF8DE08CB9FE
:1031900008951F93CF93DF93EB012FB7F89410910D
:1031A000E8052FBF0E94B91880E4BE010E94AF0756
:1031B000813081F09FB7F89480918A068F7B80934D
:1031C0008A069FBF812F90E08E5A9A4FDF91CF9150
:1031D0001F91089580E090E0F9CF813001F19FB711
:1031E000F8944091E8059FBF4423E1F022E535E0E3
:1031F000415050E04D5A5A4F61E003C02417350743
:1032000059F0F9012F5F3F4F90819D30B9F76F5F03
:103210006817A1F7C901089580E090E0089582E55C
:1032200095E0089580E090E00895BC0180E40E945C
:10323000AF07813081F09FB7F89480918A068F7B29
:1032400080938A069FBF9FB7F8948091EA059FBF3D
:103250000E94ED18089580E090E008958FB7F894EB
:103260001092E8051092E9051092EA051092810685
:1032700010928206109283068FBF0895DC019C9104
:1032800080918106992381F08639A0F4E82FF0E03F
:10329000E551FA4F90838F5F8093810611969C9140
:1032A00011971196992381F7E82FF0E0E551FA4F35
:1032B000108208950000E6CFAF9ADD988FB7F8949A
:1032C0001092E8051092E9051092EA051092810625
:1032D00010928206109283068FBF1AB881B3836062
:1032E00081BB82B38C7F82BB0895CF93DF93EC01C7
:1032F0000E945C19CE010E94DD1380E0DF91CF9126
:1033000008950F931F93CF93DF9300D00F92CDB703
:10331000DEB7DE011196E8E9F3E023E001900D92BB
:103320002150E1F70E9415198C01009741F1CE015F
:103330000196B80143E00E947A13882349F081E0A6
:103340000F900F900F90DF91CF911F910F910895E3
:10335000C801019661E00E94D311FC01008110E0D8
:1033600013600E945C19C8010E94DD1380E00F9079
:103370000F900F90DF91CF911F910F91089580E0F2
:103380000F900F900F90DF91CF911F910F910895A3
:103390000F931F93CF93DF9300D000D000D0CDB711
:1033A000DEB7DE011196EEE9F3E086E001900D92C2
:1033B0008150E1F79FB7F89480918A068F7B8093C4
:1033C0008A069FBF8CE993E064E670E00E94C9180A
:1033D0008C01009731F1CE010196B80146E00E94C0
:1033E0007A138823F1F0F801878180934D05808559
:1033F00080934E05818580934F058285809350058B
:103400001092510584E690E00E94811926960FB62D
:10341000F894DEBF0FBECDBFDF91CF911F910F910A
:10342000089580E0F3CF0F931F93CF93DF9300D0E5
:103430000F92CDB7DEB7DE011196E8E9F3E083E045
:1034400001900D928150E1F78FB7F8941092E80542
:103450001092E9051092EA051092810610928206F8
:10346000109283068FBF81E00E944205DD9A05E03D
:1034700084E690E00E941519009709F45AC00150A3
:10348000B9F70E94C819882309F462C0AF988FB7B2
:10349000F8941092E8051092E9051092EA0510924E
:1034A000810610928206109283068FBF85EA93E010
:1034B0000E94B91804C0FC018081813281F088E843
:1034C00093E10E9415198C010097A9F780E00F90F5
:1034D0000F900F90DF91CF911F910F9108950E944F
:1034E0005C19CE010196B80143E00E947A1388234B
:1034F00049F081E00F900F900F90DF91CF911F91D5
:103500000F910895C801019661E00E94D311FC015A
:10351000008110E013600E945C19C8010E94DD1355
:1035200080E00F900F900F90DF91CF911F910F913E
:1035300008950E945C1981E092E00E94DD1380E012
:103540000F900F900F90DF91CF911F910F910895E1
:103550000E945C1982E092E00E94DD1380E00F90EF
:103560000F900F90DF91CF911F910F91089589EAED
:1035700093E00E94B91884E690E00E9481198823A4
:1035800059F082E00E94420584EF91E00E94811987
:10359000882311F081E008950E945C1985E092E093
:1035A0000E94DD1380E008958F929F92AF92BF92A8
:1035B000CF92DF92EF92FF92CF93DF93CDB7DEB73A
:1035C0002B970FB6F894DEBF0FBECDBF83E590E218
:1035D000A0E0B0E089839A83AB83BC83FE0135967B
:1035E00087E0DF011D928A95E9F780919A06805E57
:1035F0000E945D136B017C0129E1CC0CDD1CEE1CEB
:10360000FF1C2A95D1F7809199060E945D134B010A
:103610005C0135E1880C991CAA1CBB1C3A95D1F7BA
:103620008C289D28AE28BF28809197060E945D13A4
:10363000DC01CB01DC0199278827882A992AAA2A4C
:10364000BB2A809196060E945D13DC01CB015BE0F2
:10365000880F991FAA1FBB1F5A95D1F7882A992A4C
:10366000AA2ABB2A809195060E945D13DC01CB013A
:10367000880F991FAA1FBB1F880F991FAA1FBB1F66
:10368000880F991FAA1FBB1F880F991FAA1FBB1F56
:10369000880F991FAA1FBB1F882A992AAA2ABB2A0A
:1036A000809194060E945D13DC01CB01B695A7952D
:1036B0009795879588299929AA29BB29BC01CD010D
:1036C000AE014D5F5F4F0E944F1280EB93E064E6C6
:1036D00070E00E94C918CE01019664E670E00E9475
:1036E000C9182B960FB6F894DEBF0FBECDBFDF9181
:1036F000CF91FF90EF90DF90CF90BF90AF909F90D1
:103700008F900895CF9381E00E944205DD9AC5E035
:1037100084E690E00E941519009709F43FC0C1505B
:10372000B9F70E94C819882339F10E94B71A882373
:1037300061F10E94C8198823F9F0AF9884EB93E0F7
:103740000E94B91888E893E10E948119882379F1D1
:103750000E94D41A8FB7F8941092E8051092E905E8
:103760001092EA051092810610928206109283064A
:103770008FBF81E0CF9108950E945C1982E092E0B2
:103780000E94DD1380E0CF9108950E945C1985E0CE
:1037900092E00E94DD1380E0CF9108950E945C19B1
:1037A00081E092E00E94DD1380E0CF9108950E94B5
:1037B0005C1985E892E00E94DD1380E0E4CFCF93AE
:1037C000DF93CDB7DEB764970FB6F894DEBF0FBEB8
:1037D000CDBF843009F45AC0853090F0803109F4AF
:1037E0003FC0803239F1883079F4CE010196DC0196
:1037F000EEE0F4E022E101900D922150E1F706C0E5
:103800008130C9F1823009F1CE0101960E94B918C8
:1038100080ED97E00E94811991E0882309F490E0FF
:10382000892F64960FB6F894DEBF0FBECDBFDF912F
:10383000CF910895CE010196DC01E6EBF3E020E1A3
:1038400001900D922150E1F7E1CFCE010196DC010C
:10385000EAEEF3E022E101900D922150E1F7D6CF9C
:10386000CE010196DC01E6ECF3E022E101900D923D
:103870002150E1F7CBCFCE010196DC01E8EDF3E07A
:1038800022E101900D922150E1F7C0CFCE010196C7
:10389000DC01ECEFF3E022E101900D922150E1F721
:1038A000B5CFCF93DF9300D000D0CDB7DEB793E490
:1038B000998390E29A8398E79B831C82843019F164
:1038C0008530D0F0803129F1803201F18830C1F0AB
:1038D000CE0101960E94B91888EE93E00E948119EA
:1038E00091E0882309F490E0892F0F900F900F90BA
:1038F0000F90DF91CF910895813029F0823041F708
:1039000083E38B83E5CF82E38B83E2CF80E38B83FA
:10391000DFCF81E38B83DCCFCF93DF93CDB7DEB7EF
:103920002A970FB6F894DEBF0FBECDBFDE01119609
:10393000E0E2F4E095E001900D929150E1F78430DF
:1039400051F0853008F050C0813029F0823029F4E0
:1039500083E38B8302C082E38B838091810690E0B6
:10396000BE016B5F7F4F0E941B12CE0101960E9429
:10397000B91884EF91E00E948119882399F1809110
:10398000EB05882361F090E05D9BFECF8CB99F5FD3
:10399000E92FF0E0E551FA4F80818823A9F788EEFE
:1039A00093E00E94151984EF91E00E948119882309
:1039B000C9F08FB7F8941092E8051092E9051092BB
:1039C000EA051092810610928206109283068FBF3C
:1039D00081E02A960FB6F894DEBF0FBECDBFDF910F
:1039E000CF91089580E0F5CF803149F0803221F009
:1039F000883009F0B2CFACCF80E38B83AECF81E3C8
:103A00008B83ABCFFF920F931F93CF93DF93CDB7F1
:103A1000DEB72A970FB6F894DEBF0FBECDBF0E9467
:103A2000821B882309F4FDC080E10E94DF1B8823EC
:103A300009F4E4C085E294E00E943E1984E996E02E
:103A4000BE016F5F7F4F40E30E94E10F0E943E196D
:103A500084E494E00E943E1984E996E0BE016F5F21
:103A60007F4F40E30E9410100E943E19CE01019644
:103A700062E00E9484110E943E1980E10E948C1C29
:103A8000882309F416C107EA16E0FF2488E494E0CD
:103A90000E943E198F2D8F5C89838AE38A831B8263
:103AA000CE0101960E943E19CE01019661E00E946E
:103AB00084110E943E1980E594E00E943E19F801AD
:103AC00032978081813009F4CDC0823009F4C5C0BD
:103AD00089E694E00E943E19CE01019661E00E94C1
:103AE00084110E943E198CE794E00E943E19F8016F
:103AF00031978081823009F4D2C0833008F099C0B8
:103B0000813009F4D1C089E694E00E943E19CE01CB
:103B1000019661E00E9484110E943E1980E10E949A
:103B20008C1C882309F4C5C08DEC94E00E943E19DA
:103B3000F8018081833009F4CCC0843008F083C060
:103B4000813009F4C1C0823009F499C089E694E05B
:103B50000E943E19CE01019661E00E9484110E94EC
:103B60003E198EE095E00E943E19F8016181728154
:103B700083819481AE014F5F5F4F0E944A180E947B
:103B80003E19CE01019661E00E9484110E943E1907
:103B90008FE195E00E943E19F80161857285838569
:103BA0009485AE014F5F5F4F0E9408130E943E193B
:103BB000F3E0CE010196FF1609F466C062E00E94B0
:103BC00084110E943E1980E10E948C1C882309F414
:103BD00070C0F394015F1F4F84E0F81609F056CFD0
:103BE00080E10E94511C882309F47DC084EF91E09C
:103BF0000E94B0110E945C1981E007C00E945C190C
:103C00008AE092E00E94DD1380E02A960FB6F894D5
:103C1000DEBF0FBECDBFDF91CF911F910F91FF90FF
:103C200008950E945C1986E892E00E94DD1380E00E
:103C3000ECCF833079F1843009F065CF8DEB94E0DF
:103C40000E943E1964CF853009F448C0853078F46D
:103C500086EF94E00E943E197DCF85E694E00E94B5
:103C60003E193ACF81E694E00E943E1935CF863066
:103C700009F06CCF86E095E00E943E196BCF86EE8E
:103C800094E00E943E1966CF64E00E9484110E9475
:103C90003E1999CF8DEA94E00E943E1938CF8DE904
:103CA00094E00E943E1933CF8DE894E00E943E19C3
:103CB0002ECF80E10E94511C0E945C1989E092E0A5
:103CC0000E94DD1380E0A1CF8EED94E00E943E19AA
:103CD00041CF8EEE94E00E943E193CCF8EEF94E0EF
:103CE0000E943E1937CF0E945C1988E092E00E9442
:103CF000DD1380E08ACF9F92AF92BF92CF92DF9286
:103D0000EF92FF920F931F93CF93DF93CDB7DEB760
:103D1000AA970FB6F894DEBF0FBECDBF81E08B83AC
:103D200082E08C8384E08D8388E08E8380E090E065
:103D300062E0AE014F5F5F4F0E94D90389819A8193
:103D4000009799F481E0AA960FB6F894DEBF0FBEF3
:103D5000CDBFDF91CF911F910F91FF90EF90DF903A
:103D6000CF90BF90AF909F9008950E94821B8823B0
:103D700009F4CCC080E20E94DF1B882309F4BEC096
:103D80009924939400E0BB2476E1A72E002309F048
:103D9000AAC081E00E94DF1B882309F4AFC082E043
:103DA0000E94DF1B882309F4A9C089819A810097AA
:103DB00009F4B4C060E1E62EF12CCC24DD2480C0EF
:103DC000BB24B394002309F46FC06E857F85888976
:103DD0009989AE01495F5F4F0E948917CE0107960E
:103DE0000E94C617CE010796BE01695E7F4F40E371
:103DF0000E94E10F0E943E1984E494E00E943E1963
:103E0000CE010796BE01695E7F4F40E30E9410100D
:103E10000E943E1984E495E00E943E198D899E8996
:103E20009F70BE01695E7F4F0E94F3120E943E198F
:103E3000CE01479661E00E9484110E943E19E3E0A2
:103E4000F0E0EC0FFD1FE10FF11D80810E948C1C42
:103E5000882309F498C0A092810680E395E00E942F
:103E60003E198A89BE01695E7F4F41E00E94CB12F4
:103E70000E943E1988E395E00E943E198B899C8937
:103E8000BE01695E7F4F0E94F3120E943E19CE016F
:103E9000479661E00E9484110E943E1980E20E94D0
:103EA0008C1C882309F46FC00894C11CD11C89E0C4
:103EB00090E0E80EF91E89819A81C816D90670F53E
:103EC000C70169E0AE01425F5F4F0E94D9031E89BE
:103ED0001295169516951370123008F071CF0130B7
:103EE00009F073CFE1CF84E00E94DF1B882331F01B
:103EF00088E00E94DF1B882309F057CF0E945C19DD
:103F00008AE092E00E94DD1380E01DCF0E945C19E0
:103F100086E892E00E94DD1380E015CF002379F45B
:103F200081E00E94511C8823B1F182E00E94511C63
:103F3000882389F1BB2081F00F5F939427CF84E021
:103F40000E94511C8823D1F288E00E94511C8823D2
:103F5000A9F292E0991681F780E20E94511C882311
:103F6000D1F084EF91E00E94B0110E945C191A8296
:103F7000198280E090E062E0AE014F5F5F4F0E94E7
:103F8000D50481E0E0CE0E945C198CE092E00E94B2
:103F9000DD1380E0D8CE0E945C198BE092E00E9495
:103FA000DD1380E0D0CE0E947B1E882311F081E0DB
:103FB000089580E20E94511C80E10E94511C81E022
:103FC0000E94511C82E00E94511C80E008950E94D2
:103FD00053050E942F050E9438050E9439050E9452
:103FE000A0070E9415050E941E0578940E941E15C8
:103FF0000E948D0081E090E00895D4D008F481E023
:1040000008950CD00AC102D140F0F9D030F021F46B
:104010005F3F19F0EBC0511134C1EEC00FD198F3DE
:104020009923C9F35523B1F3951B550BBB27AA2739
:1040300062177307840738F09F5F5F4F220F331FAB
:10404000441FAA1FA9F333D00E2E3AF0E0E830D077
:1040500091505040E695001CCAF729D0FE2F27D07A
:10406000660F771F881FBB1F261737074807AB0748
:10407000B0E809F0BB0B802DBF01FF2793585F4FBD
:104080002AF09E3F510568F0B1C0FBC05F3FECF3E2
:10409000983EDCF3869577956795B795F7959F5F82
:1040A000C9F7880F911D9695879597F90895E1E0D6
:1040B000660F771F881FBB1F621773078407BA0735
:1040C00020F0621B730B840BBA0BEE1F88F7E09590
:1040D0000895BCD088F09F5790F0B92F9927B75119
:1040E000A0F0D1F0660F771F881F991F1AF0BA95BC
:1040F000C9F712C0B13081F0C3D0B1E00895C0C09B
:10410000672F782F8827B85F39F0B93FCCF38695B1
:1041100077956795B395D9F73EF49095809570950E
:1041200061957F4F8F4F9F4F0895E89409C097FB8B
:104130003EF490958095709561957F4F8F4F9F4F7E
:104140009923A9F0F92F96E9BB279395F6958795C2
:1041500077956795B795F111F8CFFAF4BB0F11F485
:1041600060FF1BC06F5F7F4F8F4F9F4F16C088232C
:1041700011F096E911C0772321F09EE8872F762F62
:1041800005C0662371F096E8862F70E060E02AF0A3
:104190009A95660F771F881FDAF7880F969587958F
:1041A00097F90895990F0008550FAA0BE0E8FEEF64
:1041B00016161706E807F907C0F012161306E407EB
:1041C000F50798F0621B730B840B950B39F40A26E4
:1041D00061F0232B242B252B21F408950A2609F4C2
:1041E000A140A6958FEF811D811D089597F99F67C6
:1041F00080E870E060E008959FEF80EC089500246F
:104200000A941616170618060906089500240A943B
:1042100012161306140605060895092E0394000CC1
:1042200011F4882352F0BB0F40F4BF2B11F460FF50
:1042300004C06F5F7F4F8F4F9F4F089557FD905879
:10424000440F551F59F05F3F71F04795880F97FB5A
:10425000991F61F09F3F79F0879508951216130614
:104260001406551FF2CF4695F1DF08C01616170643
:104270001806991FF1CF8695710561050894089578
:10428000E894BB2766277727CB0197F908950BD0D1
:10429000C4CFB5DF28F0BADF18F0952309F0A6CF18
:1042A000ABCF1124EECFCADFA0F3959FD1F3950FCA
:1042B00050E0551F629FF001729FBB27F00DB11DAA
:1042C000639FAA27F00DB11DAA1F649F6627B00D3A
:1042D000A11D661F829F2227B00DA11D621F739F23
:1042E000B00DA11D621F839FA00D611D221F749F31
:1042F0003327A00D611D231F849F600D211D822F78
:10430000762F6A2F11249F5750408AF0E1F08823BE
:104310004AF0EE0FFF1FBB1F661F771F881F9150CB
:104320005040A9F79E3F510570F060CFAACF5F3F84
:10433000ECF3983EDCF3869577956795B795F795FE
:10434000E7959F5FC1F7FE2B880F911D9695879586
:1043500097F90895539FC001429FB001529F700D7D
:10436000811D1124911D349F700D811D1124911DFB
:104370000895629FD001739FF001829FE00DF11DAF
:10438000649FE00DF11D929FF00D839FF00D749FCF
:10439000F00D659FF00D9927729FB00DE11DF91F7B
:1043A000639FB00DE11DF91FBD01CF0111240895D8
:1043B000991B79E004C0991F961708F0961B881F77
:1043C0007A95C9F780950895AA1BBB1B51E107C0D8
:1043D000AA1FBB1FA617B70710F0A61BB70B881F95
:1043E000991F5A95A9F780959095BC01CD01089524
:1043F000A1E21A2EAA1BBB1BFD010DC0AA1FBB1FE9
:10440000EE1FFF1FA217B307E407F50720F0A21B5A
:10441000B30BE40BF50B661F771F881F991F1A94C7
:1044200069F760957095809590959B01AC01BD01F1
:08443000CF010895F894FFCFBD
:1044380053656E736F72646174656E206175660092
:10444800555342207369636865726E202E2E2E00C4
:104458004F4B004572002A0020007365747A74651A
:1044680020416E617265686C61007365747A746569
:104478002041756C690064656661756C7473202EE3
:104488002E2E004F4B00457200206C6F65736368D9
:104498006520616C6C65004D657373756E67656E3C
:1044A8002E2E00204665686C6572202E2E2E007513
:1044B800414C46415420557064617465002D2D3E71
:1044C800004665686C65720075414C46415420563B
:1044D800657273696F6E00436F6D4665686C6572CF
:1044E8002100536963686572756E672064657200A0
:1044F800506172616D65746572202E2E2E00000069
:1045080002100000000006000000510953656E7398
:104518006F7274797020310000000000B7010051FB
:104528000953656E736F7274797020320000000051
:1045380000B80100510953656E736F727479702069
:10454800330000000000B90100510953656E736F14
:104558007274797020340000000000BA0101000074
:1045680053656E736F722050726F66696C650000D8
:10457800BB0101000053797374656D6B6F6E6669DA
:10458800672E000000EC0101020304000002000095
:1045980000D807416E617265686C61206C2F7300EA
:1045A800000000EB0100D80741756C69206C2F737F
:1045B8000000000000000000EA0100010000070000
:1045C80000003E0953797374656D7A65697400005B
:1045D80000000000000000270956657273696F6EBD
:1045E800000000000000000000000000F008754115
:1045F8004C4641542056657273696F6E0000000086
:1046080000BC0875414C464154205570646174657E
:10461800000000000000A9084665686C65726D65B9
:104628006C64756E67656E00000000610846656819
:104638006C6572206C6F65736368656E00000000BE
:1046480021084D657373756E67656E206C6F7363B3
:10465800680000007365747A6520496E7465727627
:10466800616C005A65697420203A0030303A303065
:104678003A30300053656E736F72203A0053656E9E
:10468800736F7274797065203A003E302E2E2E3189
:10469800305644432020202020003E302E2E2E323B
:1046A800306D41202020202020003E342E2E2E3236
:1046B800306D41202020202020003E496D70756C0F
:1046C800732045696E67616E670045696E68656944
:1046D80074203A003E6D6261722020003E62617271
:1046E800202020003E477261642043003E6C202059
:1046F800202020003E686C20202020003E6D3320C2
:10470800202020003E00656E747370722E203D3E9E
:10471800003E303030303000446174756D203A000E
:104728005A65697420203A0020446174616C6F678F
:1047380067657220574752200056312E30202D20B1
:1047480031392E30322E3133004665686C6572007F
:10475800303031203D00303032203D0030303030B4
:1047680030005858585858002130300056007541CC
:104778004C464154005820550042203145463400EB
:104788005420530055004F2030413E53595354454F
:104798004D2E4C4F47004F2031413E535345545402
:1047A800494E472E4C4F47004F2032413E53454E0D
:1047B800534F525F312E4C4F47004F2033413E53E9
:1047C800454E534F525F322E4C4F47004F203241D7
:1047D8003E53454E534F525F332E4C4F47004F20A8
:1047E80033413E53454E534F525F342E4C4F470092
:1047F8005720783E002D2D3E3E2073656E736F72F4
:1048080073657474696E6773206368616E67656445
:10481800203A2000202D200073656E736F722000EF
:1048280020207374617475732020202020203D207F
:10483800006175730065696E006E69636874206B4A
:104848006F6E666967757269657274002020747985
:10485800706520202020202020203D20003E302E82
:104868002E2E31305644432020202020003E302E6A
:104878002E2E32306D41202020202020003E342E64
:104888002E2E32306D41202020202020003E496D00
:1048980070756C732045696E67616E6700202075BE
:1048A8006E697420202020202020203D20003E6DAD
:1048B8006261722020003E626172202020003E4723
:1048C8007261642043003E6C2020202020003E6856
:1048D8006C20202020003E6D332020202000202046
:1048E800696E74657276616C202020203D2000205E
:1048F800206D756C7469666163746F72203D200069
:1049080074656D70203D20002C20737570706C7973
:08491800203D2000203A2000A0
:00000001FF
