:100000000C9416010C948B080C94B5080C943301D5
:100010000C9433010C9433010C9433010C94330190
:100020000C9433010C9433010C9433010C9421088B
:100030000C9433010C94D2080C9433010C943301CA
:100040000C9433010C9433010C9433010C94330160
:100050000C94330153656E736F72646174656E2026
:1000600061756600555342207369636865726E203E
:100070002E2E2E004F4B00455200808182838485B6
:10008000868788898A8B8C8D8E8FC0C1C2C3C4C578
:10009000C6C7C8C9CACBCCCDCECF53696368657219
:1000A000756E672064657200506172616D6574657C
:1000B00072202E2E2E004F4B00455200436F6D468E
:1000C00065686C657221004F4B004665686C65720F
:1000D00000206C6F657363686520616C6C6500203F
:1000E0004665686C6572202E2E2E004F4B00206CEA
:1000F0006F657363686520616C6C65004D65737333
:10010000756E67656E2E2E004F4B007365747A74A2
:100110006520416E617265686C61007365747A7404
:10012000652041756C690044656661756C74732067
:100130002E2E2E004F4B0045520053656E736F728A
:10014000203A006175730065696E0053656E736FC8
:100150007274797065203A003E342E2E2E32306D46
:1001600041202020202020003E496D70756C7320B6
:1001700045696E67616E67007365747A6520496EC4
:1001800074657276616C005A65697420203A004487
:100190006174756D203A005A65697420203A0046F2
:1001A00065686C6572006175730065696E006E69E3
:1001B000636874206B6F6E666967757269657274C7
:1001C000003E342E2E2E32306D4120202020202063
:1001D000003E496D70756C732045696E67616E678E
:1001E000006E69636874206B6F6E6669677572690B
:1001F000657274003E6D626172003E626172200041
:100200003EB0432020003E6C202020003E686C2041
:1002100020003E6D332020006E69636874206B6F90
:100220006E666967757269657274000011241FBE7D
:10023000CFE5D8E0DEBFCDBF13E0A0E6B0E0EAE155
:10024000F3E502C005900D92A035B107D9F726E07D
:10025000A0E5B3E001C01D92A738B207E1F70E9404
:1002600005090C948B290C9400000E94E90761E0B9
:1002700081E00E94640784E590E00E940017AC01D1
:1002800061E081E00E94100884E690E00E9400177F
:10029000AC0162E081E00E9410080E949C2581115F
:1002A00011C087E790E00E940017AC0162E08FE088
:1002B0000E94100888EE93E00E94531160E080E0F5
:1002C0000C94640784E790E0EECFCF93DF93CDB733
:1002D000DEB729970FB6F894DEBF0FBECDBF08EE8C
:1002E00013E045E1442E50E2552E62E6262E76E0DC
:1002F000372E4CC08091F30483FF0EC09FB7F89453
:100300008091F304877F8093F3049FBF8AB7806452
:100310008ABF8BB780648BBF8091F30487FD72C066
:100320008091F30481FF16C08091F60480FF0AC01B
:10033000829BF7C09FB7F8948091F6048E7F8093DC
:10034000F6049FBF9FB7F8948091F3048D7F80934C
:10035000F3049FBF8091F30484FD34C08091F304C3
:1003600085FD40C08091F30480FF08C09FB7F894DA
:100370008091F3048E7F8093F3049FBF8091F404F7
:1003800087FD57C08091F40486FD61C08091F3041D
:1003900082FFB0CF0E94D4060E9435010E94270C34
:1003A0009FB7F8948091F3048B7F8093F3049FBFF1
:1003B0008AB780648ABF8AB780648ABF8BB780643B
:1003C0008BBF98CF8091FD040E94310C9FB7F894A9
:1003D0008091F3048F7E8093F3049FBF8091F30498
:1003E00085FFC0CF0E9450040E94C40F9FB7F894AD
:1003F0008091F3048F7D8093F3049FBF8BB7806857
:100400008BBFB0CF829B86C09FB7F8948091F304D6
:100410008F778093F3049FBF9FB7F8948091F60481
:1004200081608093F6041093F2040093F1049FBF5F
:1004300077CF9FB7F8948091F4048F778093F4047A
:100440009FBF0E9438278091F40486FF9FCF9FB7FB
:10045000F8948091F4048F7B8093F4049FBF829979
:1004600095CF81E6C82E85E0D82E96E7692E90E0DC
:10047000792E2CE7822E20E0922E30E1A32E35E05B
:10048000B32EE12CF12CF601E255F1098081823086
:10049000D1F0FFEFEF1AFF0A84E5C80ED11CE5E1A9
:1004A0006E0E711CF5E18F0E911C84E5A80EB11C37
:1004B000E4E0EE16F10409F469CFF601E255F10922
:1004C0008081823031F7F5018081833089F182307B
:1004D00001F740E0BE016F5F7F4FF60180810E940F
:1004E0005E124E9CC0014F9C900D1124BE016F5FA7
:1004F0007F4F87589F4F0E948429F3015082F40157
:1005000035975082F40134975082F40110820E9492
:10051000130CBFCF49EC51E061E080E10E9410086C
:1005200073CF49ED52E061E080E10E94100802CFF4
:10053000F601808191810097D1F0BE016F5F7F4FFE
:100540000E9457194E9CC0014F9C900D1124BE0172
:100550006D5F7F4F89589F4F0E948429F30150821D
:10056000F40120820E94130CF5018081B0CFEBECE6
:10057000F1E0DE011396832D01900D928A95E1F74B
:10058000E1CF86B78F70806C86BF0895811105C05A
:1005900086B78F70806886BF08950C94C102949AC4
:1005A00026B7246926BF16BE0E946A1380E090E039
:1005B0000895EF92FF920F931F93CF93DF93E62E50
:1005C0008A0196B7946A96BF06B607FEFDCF91B131
:1005D000987F983009F066C092EA93B996B79B70FD
:1005E000946896BF06B607FEFDCF91B1987F98310B
:1005F00009F04EC083B986B78B70846886BF06B693
:1006000007FEFDCF81B1887F883209F058C086B7D8
:10061000846A86BF06B607FEFDCF83EA83B986B734
:100620008B70846886BF06B607FEFDCF81B1887FD8
:10063000803409F041C081E08E15A8F4FE2CE80159
:100640000E94C10206B607FEFDCF83B18993FA94DA
:10065000E1E0FE12F5CFEA94EA946E2D70E06F5F50
:100660007F4F060F171F80E00E94C60206B607FEE6
:10067000FDCF83B1F801808386B7846986BF81E0AE
:1006800090E0DF91CF911F910F91FF90EF9008952F
:1006900082E191E0DF91CF911F910F91FF90EF9058
:1006A0000C94CF0281E191E0DF91CF911F910F91E6
:1006B000FF90EF900C94CF0284E191E0EBCF83E1C7
:1006C00091E0DF91CF911F910F91FF90EF900C94EB
:1006D000CF024EEF54E067E082E00E94D90245E08D
:1006E00055E064E089E00E94D902EEEFF4E08081F9
:1006F0008F778083EFEFF4E080818F778083E0E075
:10070000F5E080818F738083E1E0F5E080818F7375
:100710008083E2E0F5E0808187708083E3E0F5E0AC
:1007200080818F718083E5E0F5E080818F77808321
:10073000E6E0F5E080818F738083E7E0F5E080817B
:100740008F738083E8E0F5E080818770808308956F
:10075000FA0196B7946A96BF06B607FEFDCF91B12F
:10076000987F9830A1F592EA93B996B79B709468F8
:1007700096BF06B607FEFDCF91B1987F983119F567
:1007800083B986B78B70846886BF06B607FEFDCF37
:1007900081B1887F8832F9F4662379F0819183B939
:1007A00086B78B70846886BF06B607FEFDCF81B121
:1007B000887F883281F4615089F786B7846986BF63
:1007C00081E090E0089582E091E00C94CF0281E016
:1007D00091E00C94CF0283E091E00C94CF02CF9390
:1007E000DF931F92CDB7DEB71982AE014F5F5F4F27
:1007F00061E080E00E94A803AE014F5F5F4F61E0BF
:1008000081E00E94A803AE014F5F5F4F61E08DE081
:100810000E94A803AE014F5F5F4F61E08EE00E942F
:10082000A803AE014F5F5F4F61E08FE00E94A80315
:10083000AE014F5F5F4F61E082E00E94D902898183
:100840008F778983AE014F5F5F4F61E082E00E9446
:10085000A8030F90DF91CF910895CF93DF931F925C
:10086000CDB7DEB7AE014F5F5F4F61E08EE00E9413
:10087000D9028981837880688983AE014F5F5F4F99
:1008800061E08EE00E94A80381E08983AE014F5FA2
:100890005F4F61E00E94A8030F90DF91CF91089510
:1008A000CF93DF931F92CDB7DEB71982AE014F5FB2
:1008B0005F4F61E081E00E94A803AE014F5F5F4F90
:1008C00061E08EE00E94A8030F90DF91CF91089520
:1008D000CF93DF9300D0CDB7DEB789836A83AE01B3
:1008E0004E5F5F4F61E08EE00E94A803AE014F5F54
:1008F0005F4F61E08FE00E94A8030F900F90DF919F
:10090000CF9108954EEF54E067E082E00C94A80385
:10091000CF93DF9396B7946A96BF06B607FEFDCFD6
:1009200091B1987F9830C1F590E993B996B79B70D3
:10093000946896BF06B607FEFDCF91B1987F9831B7
:1009400029F583B986B78B70846886BF06B607FE23
:10095000FDCF81B1887F8832E1F586B7846A86BF92
:1009600006B607FEFDCF81E983B986B78B70846830
:1009700086BF06B607FEFDCF81B1887F803491F037
:1009800084E591E0DF91CF910C94CF0282E591E074
:10099000DF91CF910C94CF0281E591E0DF91CF916F
:1009A0000C94CF020E94C10206B607FEFDCF83B1B0
:1009B000D82F80E0C82F0E94C60206B607FEFDCFE2
:1009C00083B1C82B86B7846986BFCE01DF91CF91F2
:1009D000089583E591E0DF91CF910C94CF0296B713
:1009E000946A96BF06B607FEFDCF91B1987F983006
:1009F00099F590E993B996B79B70946896BF06B63F
:100A000007FEFDCF91B1987F9831F1F483B986B795
:100A10008B70846886BF06B607FEFDCF81B1887FE4
:100A20008832B1F463B986B78B70846886BF06B626
:100A300007FEFDCF81B1887F883251F486B7846983
:100A400086BF81E090E0089582E491E00C94CF02AB
:100A500083E491E00C94CF0281E291E00C94CF0208
:100A600060E081E00E94EF048CE291E00E9453116B
:100A700080E00E9488049093F70461E081E00C9488
:100A8000EF04FF920F931F93CF93DF9300D01F9239
:100A9000CDB7DEB726B7246A26BF06B607FEFDCF60
:100AA00021B1287F283009F08CC020EA23B926B76D
:100AB0002B70246826BF06B607FEFDCF21B1287F24
:100AC000283109F06FC093B996B79B70946896BFB0
:100AD00006B607FEFDCF91B1987F983209F06EC03F
:100AE00083B986B78B70846886BF06B607FEFDCFD4
:100AF00081B1887F883209F061C086B7846A86BF79
:100B000006B607FEFDCF81B1887F803109F059C05C
:100B100081EA83B986B78B70846886BF06B607FE04
:100B2000FDCF81B1887F803409F04EC06230D8F0AB
:100B30008A01F62E4A835B8369830E94C102698120
:100B40005B814A8106B607FEFDCF83B1F801819330
:100B50008F01FA94F1E0FF12EDCF625070E06F5F09
:100B60007F4F460F571F80E04A835B830E94C60277
:100B70005B814A8106B607FEFDCF83B1FA0180830F
:100B800086B7846986BFF3E0FA95F1F7000081E04B
:100B900090E00F900F900F90DF91CF911F910F91E8
:100BA000FF90089582E391E00F900F900F90DF91F6
:100BB000CF911F910F91FF900C94CF0283E391E0AE
:100BC000F3CF81E391E0F0CF84E391E0EDCF94980F
:100BD00026B7246A26BF06B607FEFDCF21B1287FBF
:100BE000283009F03FC020EA23B926B72B702468CB
:100BF00026BF06B607FEFDCF21B1287F283171F54B
:100C000093B996B79B70946896BF06B607FEFDCF62
:100C100091B1987F9832F1F483B986B78B7084686C
:100C200086BF06B607FEFDCF81B1887F883291F47A
:100C30006623E1F0FA018191AF0183B986B78B7029
:100C4000846886BF06B607FEFDCF81B16150887FFC
:100C5000883271F383E291E00C94CF0282E291E05A
:100C60000C94CF0281E291E00C94CF0286B78469A4
:100C700086BF949A8AE090E00E94531181E090E050
:100C80000895EF92FF920F931F93CF93DF93EC01A0
:100C9000E62E8A019C0121503109260F311D28279B
:100CA00039272078232BE9F08F77992790E8F92EC0
:100CB000F81A6F2DCE010E94E705892B49F480E0D8
:100CC00090E0DF91CF911F910F91FF90EF900895E9
:100CD0008F2D90E0A801480F591F6E2D6F198C0FB2
:100CE0009D1FDF91CF911F910F91FF90EF900C947A
:100CF000E70517BA8FEF88BB8FE38093FB040C9452
:100D0000201A86E591E0E9E0F5E0DF019C011D9203
:100D100021503040E1F7089546E551E069E075E083
:100D200080E890E00C944E1382E083BF89E182BF9B
:100D300087E18CBF0895089581B1837081B910B89F
:100D400086B7846986BF16BE08951AB810BC813074
:100D500031F019B888E98AB986E880BD08958BE03A
:100D600089B988E98AB986E880BD089515BE11BCA5
:100D70001BBE1ABE10BE80EE8ABB80EC8BBB17BABE
:100D80008FEF88BB80E884BB85BB83E181BB8CE1AE
:100D900082BB13BE15BC19BE18BE1FBC1EBC1DB83D
:100DA0001EB810B816BE0895EAEFF4E021E02083E3
:100DB0009FEF97BB18BA81B3806E81BB82B38F71EE
:100DC00082BBDF98959896989798AFEFB3E211970A
:100DD000F1F700C0000080E388BBB6E0BA95F1F7F8
:100DE0000000979A36E03A95F1F700009798ACEC3E
:100DF000BAE01197F1F700C0000088BBB6E0BA95E1
:100E0000F1F70000979A36E03A95F1F700009798CD
:100E1000ACECBAE01197F1F700C0000088BBB6E077
:100E2000BA95F1F70000979A36E03A95F1F700008D
:100E300097988DE38A95F1F700C088E388BBA6E018
:100E4000AA95F1F70000979AB6E0BA95F1F700007D
:100E500097983DE33A95F1F700C08CE088BB86E0B7
:100E60008A95F1F70000979AA6E0AA95F1F700009D
:100E70009798BDE3BA95F1F700C028BB36E03A95E4
:100E8000F1F70000979A86E08A95F1F700009798AD
:100E9000ADE3AA95F1F700C086E088BBB6E0BA954D
:100EA000F1F70000979A36E03A95F1F7000097982D
:100EB0008DE38A95F1F700C018BADF9A98BB82B328
:100EC0008F7182BB10820895880F860F845FEAEFCE
:100ED000F4E091E090832FEF27BB18BA91B3906EA6
:100EE00091BB92B39F7192BBDF98959888BB86E0C7
:100EF0008A95F1F70000979A86E08A95F1F700004D
:100F0000979885E28A95F1F718BADF9A28BB82B3E1
:100F10008F7182BB10820895633010F4813108F024
:100F2000089591E09093FA042FEF27BB18BA91B37C
:100F3000906E91BB92B39F7192BBDF989598E62F0C
:100F4000F0E03197E295F295F07FFE27E07FFE27F3
:100F5000E80FF11DE758FF4FE491E8BB86E08A9562
:100F6000F1F70000979A86E08A95F1F700009798CC
:100F700085E28A95F1F718BADF9A28BB82B38F71A0
:100F800082BB1092FA040895EAEFF4E091E09083B6
:100F90002FEF27BB18BA91B3906E91BB92B39F719C
:100FA00092BBDF98959A88BB86E08A95F1F700009E
:100FB000979A86E08A95F1F70000979885E28A95DE
:100FC000F1F718BADF9A28BB82B38F7182BB108207
:100FD0000895EAEFF4E021E020839FEF97BB18BA71
:100FE00081B3806E81BB82B38F7182BBDF9895988D
:100FF00028BB86E08A95F1F70000979AA6E0AA95AB
:10100000F1F700009798A9E9B3E01197F1F700C054
:1010100018BADF9A98BB82B38F7182BB1082089591
:10102000CF93DF93EA010E948C078881882331F0F7
:1010300021960E94C40789918111FBCFDF91CF9146
:1010400008951F920F920FB60F9211242F933F9382
:101050004F935F936F937F938F939F93AF93BF93C0
:10106000EF93FF9389E182BF08B601FE03C088B702
:10107000826088BF9FB7F8948091F3048160809369
:10108000F3049FBF8091ED049091EE04883E23E02D
:10109000920788F501969093EE048093ED04809179
:1010A000F1049091F204009739F001979093F204C3
:1010B0008093F104892BB1F0829B0E9492100E94D0
:1010C000D00DFF91EF91BF91AF919F918F917F9143
:1010D0006F915F914F913F912F910F900FBE0F90A5
:1010E0001F9018959FB7F8948091F30482608093C5
:1010F000F3049FBFE1CF1092EE041092ED048091B3
:10110000EF049091F00401969093F0048093EF0423
:101110000E94390EC4CF1F920F920FB60F92112466
:101120008F939F938BB78F7B8BBF82990FC09FB795
:10113000F8948091F30484608093F3049FBF9F919F
:101140008F910F900FBE0F901F9018959FB7F89436
:101150008091F30488608093F3049FBF9F918F91E7
:101160000F900FBE0F901F9018951F920F920FB601
:101170000F9211248F939F93EF93FF938BB78F77E9
:101180008BBF9FB7F894E3EFF4E0808180628083A7
:101190009FBFFF91EF919F918F910F900FBE0F9086
:1011A0001F9018951F920F920FB60F9211242F9334
:1011B0003F934F935F936F937F938F939F93AF93DF
:1011C000BF93EF93FF930E947019FF91EF91BF912E
:1011D000AF919F918F917F916F915F914F913F91CF
:1011E0002F910F900FBE0F901F90189585B78160BB
:1011F00085BF8BB780648BBF8BB780688BBF8AB786
:101200008F718ABF81E089BF08950E94B6060E944F
:1012100094060E949B060E949C060E94F6080E946B
:1012200079060E94810678940E943C190E9465010B
:1012300081E090E00895282F216061157105A1F0EB
:101240003FB7F8949091F3049E7F9093F3043FBFCF
:101250009091F3049223E1F39091F30461507109AA
:10126000982359F384E0089581E00895CF93FC0119
:10127000C0819FB7F8948091F3048F7E8093F3042C
:101280009FBF0E94E907C11134C08BE191E00E9429
:101290000017AC0161E081E00E9410080E948010FC
:1012A00087E291E00E940017AC0162E081E00E94B9
:1012B00010080E94AD1D8823C9F084E391E00E94CC
:1012C0000017AC0162E08EE00E9410080E94C40F7B
:1012D0008091F3048871E1F39FB7F8948091F3044F
:1012E0008F7E8093F3049FBFCF91089587E391E0B1
:1012F000E6CFC130A9F68BE091E00E940017AC0167
:1013000061E081E00E9410080E946E10C9CFCF9367
:10131000DF9300D0CDB7DEB719821A829FB7F89459
:101320008091F3048F7E8093F3049FBF0E94E907AE
:101330008EEE90E00E940017AC0161E081E00E9417
:1013400010088CEF90E00E940017AC0162E081E091
:101350000E941008AE014F5F5F4F62E080E090E0B6
:101360000E94410684EF91E00E94531188E091E0D1
:101370000E940017AC0162E08DE00E94100880918D
:10138000F3048871E1F39FB7F8948091F3048F7EA2
:101390008093F3049FBF0F900F90DF91CF9108953A
:1013A0009FB7F8948091F3048F7E8093F3049FBFDE
:1013B0000E94E90781ED90E00E940017AC0161E016
:1013C00081E00E9410088FED90E00E940017AC01B0
:1013D00062E081E00E9410081092500360E080E01B
:1013E00093E00E94391360E081E093E00E9439139A
:1013F00060E082E093E00E94391360E083E093E0D4
:101400000E94391360E084E093E00E94391384EF76
:1014100091E00E9453118BEE90E00E940017AC0106
:1014200062E08DE00E9410088091F3048871E1F37E
:101430009FB7F8948091F3048F7E8093F3049FBF4D
:101440000895CF93DF939FB7F894C3EFD4E08881DA
:101450008F7E88839FBF0E941D179FB7F894888155
:101460008F7E88839FBFDF91CF9108950E94E90707
:1014700041ED51E061E081E00E9410084FED51E044
:1014800062E081E00E9410080E94EB1A8823F1F0CC
:1014900087EC90E00E940017AC0162E085E00E94BA
:1014A00010089FB7F8948091F3048F7E8093F30423
:1014B0009FBF8091F3048871E1F39FB7F894809106
:1014C000F3048F7E8093F3049FBF08958AEC90E02D
:1014D000E1CFCF930E94301CC82F0E94301A0E9487
:1014E000E90743EE51E061E081E00E9410084FED12
:1014F00051E062E081E00E941008C130F9F08CEB0D
:1015000090E00E940017AC0162E085E00E941008A4
:101510009FB7F8948091F3048F7E8093F3049FBF6C
:101520008091F3048871E1F39FB7F8948091F304FC
:101530008F7E8093F3049FBFCF91089541E553E0E0
:1015400062E085E00E941008E3CF9FB7F894809195
:10155000F3048F7E8093F3049FBF0E944711809114
:10156000F3048871E1F39FB7F8948091F3048F7EC0
:101570008093F3049FBF0895CF93DF939FB7F894B0
:10158000C3EFD4E088818F7E88839FBF0E94DA17E3
:101590009FB7F89488818F7E88839FBFDF91CF911A
:1015A0000895CF933FB7F8942091F3042F7E2093B2
:1015B000F3043FBFFC0180810E94CC0C0E94AD1D52
:1015C000C82F0E94E9078AE990E00E940017AC0149
:1015D00061E081E00E94100888EA90E00E94001714
:1015E000AC0162E081E00E941008C11110C089EBDB
:1015F00090E00E940017AC0162E08FE00E941008AA
:101600000E94C40F88EE93E0CF910C94531186EBA7
:1016100090E0EFCF8F929F92AF92BF92CF92DF92E6
:10162000EF92FF920F931F93CF93DF937C01FC0106
:10163000048115818281882309F45EC0F80120812C
:10164000E801F5E12F9FC00DD11D11242596F80169
:10165000828190E0821B9109181619060CF04CC08B
:1016600040E085E1B82EA42EA394F70161816F5F5D
:10167000640F80818F5F0E948C07CA2CD12CF701E8
:1016800083808A94F801818190E001962081A601EF
:10169000420F511D8417950709F049C08EE30E943F
:1016A000C407882071F08B81882399F12496912CAE
:1016B00003C08991882371F10E94C4079394981004
:1016C000F8CFF7018281A816B8F4F801208130E044
:1016D000C9018C0D9D1DB89EE001B99ED00D11244D
:1016E0002596C00FD11F4A2D828190E0821B930B5B
:1016F000C816D9060CF4B7CFDF91CF911F910F9187
:10170000FF90EF90DF90CF90BF90AF909F908F9021
:101710000895912C80E20E94C4079394981488F64F
:1017200080E20E94C40793949814A0F3CACF80E289
:101730000E94C407B6CFDC011496ED91FC91159779
:1017400061816F5F2281621790F4618312967C91B0
:10175000462F50E0A081272F30E02A0F311D42177D
:1017600053071CF0671B6F5F60830C940A0B08958E
:10177000DC011496ED91FC9115972181222341F013
:10178000215021833081231708F420830C940A0B05
:101790000895DC011496ED91FC9115972381348115
:1017A0002115310531F015963C932E9314970C9426
:1017B0000A0B0895FC0124813581FB0134832383C6
:1017C000FC01758364830C940A0BCF93DF93EC01C7
:1017D000AC81BD8111968C91119795E1899FA00DE7
:1017E000B11D112415968C9180FD11C0BD016D5F56
:1017F0007F4F1196ED91FC91129753968D919C918C
:1018000054970995CE01DF91CF910C940A0B539612
:101810006D917C915497CE010E94DA0BCE01DF913D
:10182000CF910C940A0B80E690E00C940A0B80E6B2
:1018300090E00C94B80B80E690E00C949B0B80E653
:1018400090E00C94C90B80E690E00C94E50B1092AC
:1018500066001092670066E670E080E690E00C9407
:10186000DA0B873381F038F08D3379F08E3359F00D
:101870008B3339F008958F3121F08F32D9F70C94E2
:101880001B0C0C941F0C0C94230C0C94170C8F92B3
:101890009F92AF92BF92CF92DF92EF92FF920F93FF
:1018A000CF93DF93E82E0E94E90788E791E00E943A
:1018B0000017AC0161E081E00E94100887E891E028
:1018C0000E940017AC0162E081E00E94100842EF24
:1018D00051E062E089E00E941008F12C81E0E81AF2
:1018E000F10802E029E042E067E170E080E090E08A
:1018F0000E94F0139C01A0E1BEE00E945B294B0115
:101900005C0184E58E9DE0018F9DD00D1124C75FA1
:10191000DA4F89869A86AB86BC862CE042E06BE380
:1019200070E080E090E00E94F0139C01ACE3B0E036
:101930000E945B296B017C01C80CD91CEA1CFB1CB2
:10194000C986DA86EB86FC862FE042E06BE370E026
:1019500080E090E00E94F013C80ED91EE11CF11C3B
:10196000C986DA86EB86FC868F81813061F0DF9153
:10197000CF910F91FF90EF90DF90CF90BF90AF90FD
:101980009F908F9008958CE3C816D104E104F10470
:1019900070F783E08F83EBCF8F929F92AF92BF92CD
:1019A000CF92DF92EF92FF920F931F93CF93DF932B
:1019B000CDB7DEB7C054D1090FB6F894DEBF0FBE65
:1019C000CDBFB82EA12C882E912C81E0881A9108C9
:1019D00084E5889D9001899D300D1124275F3A4F41
:1019E000790197E0E90EF11C6901E6E0CE0ED11C09
:1019F000F1E0AF1609F4B0C08AE391E00E9400174D
:101A0000BC01CE0101960E94842983E491E00E94EA
:101A10000017BC01CE0141960E94842987E491E021
:101A20000E940017BC01CE0181960E94842902E029
:101A30000E94E907AE014F5F5F4F61E081E00E94C5
:101A40001008AE014F5E5F4F62E081E00E94100817
:101A500062E081E00E948C0761E081E00E946407FF
:101A600011E08091F3048C71E1F38091F3048C70A8
:101A700009F053C08091FD048F3209F469C08D33A1
:101A800009F45FC0412F50E042955295507F542792
:101A9000407F5427E1E0F0E0EC0FFD1F4E0F5F1F89
:101AA00062E081E00E94100862E081E00E948C0701
:101AB0009FB7F8948091F3048F7E8093F3049FBFC7
:101AC0008091FD048B3309F45EC08E3351F6F1E052
:101AD000AF1609F45DC0F60110831130F1F0A39444
:101AE000F2E0AF1285CF84E5889DF001899DF00D6D
:101AF0001124E75FFA4F8781823031F485B3807417
:101B000085BB84B3807484BB8B2D0E94470C0E94DC
:101B10008C0660E080E00E946407C05CDF4F0FB677
:101B2000F894DEBF0FBECDBFDF91CF911F910F9113
:101B3000FF90EF90DF90CF90BF90AF909F908F90ED
:101B40000895101708F09ECF42E050E012E09CCFBD
:101B500041E050E011E098CF8BE491E00E94001743
:101B6000BC01CE0101960E94842988E591E00E9483
:101B70000017BC01CE0141960E94842981E0B8166D
:101B800061F001E055CF60E080E00E946407C5CFBE
:101B9000F7011083F6011081A0CF88E691E040CFD5
:101BA00080911005823009F0089580910F058230F0
:101BB000D9F783B3807490910E05992369F1915000
:101BC00090930E059111F0CF90910D05981761F348
:101BD00080930D0580910B0590910C058F3F2FEFA1
:101BE000920711F3019690930C0580930B05909347
:101BF0006205809361059FB7F8948091F304806833
:101C00008093F3049FBF9FB7F8948091F40480649D
:101C10008093F4049FBF089590910D05981721F2C9
:101C2000882319F080930D05089582E380930E05B3
:101C3000089587B984E886B968E080E090E0369A34
:101C4000349BFECF349A44B155B1352F20E0F901D1
:101C5000E42BAF01840F951F615089F716B817B8B0
:101C60009C01369527953695279536952795C90178
:101C700008958F929F92AF92BF92CF92DF92EF9290
:101C8000FF920F931F93CF93DF9300D01F92CDB796
:101C9000DEB700E115E02EE535E04FE5E42E45E046
:101CA000F42E812C912C5AE2B52E882DF801319713
:101CB00090819230F1F0FFEF8F1A9F0A0C5A1F4F5C
:101CC0002C5A3F4F44E5E40EF11C54E08516910474
:101CD00061F70F900F900F90DF91CF911F910F91AF
:101CE000FF90EF90DF90CF90BF90AF909F908F903C
:101CF0000895D8019C919330F1F612964D915D9123
:101D00006D917C911597452B462B472BA1F216968A
:101D10004D915D916D917C9119974230510561050E
:101D2000710550F04150510961097109F80146836C
:101D3000578360877187BFCFD7019C919F5F9C932A
:101D4000692F6F7009F43EC0F901A0802A833B839C
:101D500069830E94190EA0FACC24C0F8D12CC29439
:101D6000D29420EFD222DC24C222DC24B89CA00131
:101D7000B99C500D1124C40ED51E6981C60ED11C0C
:101D8000CC0CDD1CE9E0F5E0CE0EDF1ED601569648
:101D90009C938E9355972A813B81F9019483838389
:101DA000F80182819381A481B58186839783A0877E
:101DB000B1879FB7F8948091F40480648093F40411
:101DC0009FBF79CFF801E05BFF4FD9019C919170E3
:101DD00090834FB7F8949091F40490689093F40432
:101DE0004FBFF901A080A394A082D7016C916F70BE
:101DF000ADCFFF920F931F93CF93DF93CDB7DEB795
:101E00002B970FB6F894DEBF0FBECDBF8C01F62E18
:101E1000AE01465F5F4F62E080E090E00E944105C6
:101E20008A859B85883E934008F05EC08EEF94E0E3
:101E30000E94451569837A838B839C838091F70484
:101E40008D838091F8049091F9049F838E836F2D88
:101E500070E0AB0150E4459F502D4427112484E5E8
:101E6000869FF001879FF00D1124E75FFA4F2781CD
:101E700030E02150310923703327322F2227329549
:101E8000307F422B532B1F70402B512B5987488793
:101E90002A853B85C901880F991F880F991F880FD4
:101EA000991F820F931FAE014F5F5F4F69E040960D
:101EB0000E9441068A859B8501969B878A87AE0191
:101EC000465F5F4F62E080E090E00E94410681E063
:101ED0002B960FB6F894DEBF0FBECDBFDF91CF912A
:101EE0001F910F91FF9008950E949C25882309F46B
:101EF0009DCF1B861A869ACF1F93CF93DF93182FFF
:101F00000E94300584E00E94190E9C01A8E3B6E30C
:101F10000E945B29BAE09695879577956795BA9563
:101F2000D1F77093F9046093F80484E5189FE001F9
:101F30001124C75FDA4F8F818230B1F0812F0E9468
:101F4000190EC85ADF4F99838883612F0E94F90EBA
:101F50009FB7F8948091F40480648093F4049FBF49
:101F6000DF91CF911F910895612F80910B05909182
:101F70000C050E94F90E10920C0510920B05C85A20
:101F8000DF4F19821882E4CF0F931F93CF93DF9313
:101F900000D000D0CDB7DEB720E135E040E050E022
:101FA000BA0110E0F90131978081823009F454C000
:101FB0001F5F2C5A3F4F1430A9F7452B462B472B58
:101FC00009F46EC0EFE0F5E06FEF7FEFCB01208109
:101FD000223009F453C0EC5AFF4F26E0EF35F207E8
:101FE000B1F72CE330E040E050E00E9439292F3F68
:101FF00031054105510511F008F04DC063E0822F15
:102000002B833C8349835A830E946804ACE3B0E08D
:102010002B813C8149815A810E946729E6E1F5E0E4
:102020000081118122813381061B170B280B390B8C
:102030000083118322833383EC5AFF4F26E0E63678
:10204000F20771F70F900F900F900F90DF91CF91E3
:102050001F910F910C942D04F9018081833009F4B4
:10206000A7CF4681578160857185452B462B472B2D
:1020700001F141E050E060E070E09ACF0781108507
:1020800021853285061717072807390708F0A3CFDF
:10209000C901B801A0CF2FEF30E040E050E0AECF53
:1020A0000F900F900F900F90DF91CF911F910F9194
:1020B0000895812F2B833C830E947C0F2B813C81D0
:1020C000F90142815381648175814683578360871A
:1020D000718741E050E060E070E06ACF82E0809379
:1020E0000F058093100588E592E0A0E0B0E08093B2
:1020F000120590931305A0931405B0931505089548
:1021000082E080930F058093100580EB94E0A0E0BF
:10211000B0E08093120590931305A0931405B0933B
:10212000150508958091FA04811120C08091F3046F
:1021300084FD1CC017BA8FEF88BB86B38F73909154
:10214000FB049817A1F08F3391F08093FB0491E387
:102150009093FC048F3351F49091FC04911106C0CC
:102160002091FB049091FD04291781F0089520919E
:10217000FC04222379F321502093FC042111EACF9F
:10218000981779F09FE39093FB04E4CF8093FB04CE
:102190009FB7F8948091F30480618093F3049FBF0C
:1021A00008958093FD04D6CFDC01FB0113968C913A
:1021B000139782958F70840F808313968C91139759
:1021C0008F70840F81839EE2928315968C91159770
:1021D00082958F70840F838315968C9115978F70DD
:1021E000840F8483958316968C91169782958F70B1
:1021F000840F868316968C918F70840F8783108648
:10220000CB010895DC01FB0112968C911297829507
:102210008F70840F808312968C9112978F70840F29
:1022200081839AE3928311968C91119782958F7096
:10223000840F838311968C9111978F70840F848300
:1022400095838C9182958F70840F86838C918F708B
:10225000840F87831086CB0108959C01562F51501F
:10226000662399F0852FF9014DE09AE04083918330
:1022700032968150D8F7E52FF0E03196EE0FFF1F30
:10228000E20FF31F1082C9010895FC01FBCF4BEF51
:1022900051E061E081E00E9410084CE052E062E011
:1022A00081E00C9410083FB7F8942091F3042E7F3E
:1022B0002093F3043FBF9C0121503109892B79F011
:1022C0008091F30480FFFCCF9FB7F8948091F304D2
:1022D0008E7F8093F3049FBF2150310988F70895C2
:1022E00080538A3020F08151863010F08FEF0895AE
:1022F000865F0895BF92CF92DF92EF92FF920F9385
:102300001F93CF93DF937C01B62EBA94662349F1D5
:10231000DB2CEC018C0188810E947011C82EC294C4
:1023200090EFC922F801C082898122960E94701123
:102330008C29F80181938F01DA94FFEFDF12EBCF44
:10234000EB2DF0E03196EE0DFF1D1082C701DF91FD
:10235000CF911F910F91FF90EF90DF90CF90BF90A2
:102360000895FC01F2CFFB01292F22952F702A300E
:10237000E0F4205D2083292F2F702A30E0F4205DC7
:1023800021839C01329522952F7023273F702327AC
:102390002F702A3090F4205D22838F708A3090F065
:1023A000895C83831482CF010895295C2083292FBF
:1023B0002F702A3020F3295CE3CF295C22838F70B1
:1023C0008A3070F7805D83831482CF0108950F9364
:1023D0001F93FA018B019C014CE1369527951795C7
:1023E00007954A95D1F70A3008F04BC0005D00838D
:1023F000292F2F702A3008F04BC0205D21838B01DC
:102400009C01B4E13695279517950795BA95D1F7B4
:102410000F700A3008F050C0005D0283282F2F7023
:102420002A3008F047C0205D23838B019C01ACE07B
:102430003695279517950795AA95D1F70F700A300D
:10244000B8F5005D0483272F2F702A3078F5205DC2
:1024500025838B019C0154E03695279517950795A8
:102460005A95D1F70F700A30A8F4005D06836F709B
:102470006A30A8F0695C67831086CF011F910F91C5
:102480000895095C0083292F2F702A3008F4B5CFF6
:10249000295CB4CF095C06836F706A3058F7605DC1
:1024A00067831086CF011F910F910895295CD0CFCB
:1024B000095CC8CF295CB8CF095CAFCFCF9341305E
:1024C00001F1DB0113961C92FD019D01235031099E
:1024D0005DEC859F912D1124969596959695CAE071
:1024E0009C9F80191124805D8293892FE217F30746
:1024F00081F7413019F414978DE28C93CB01CF9181
:10250000089587FD04C0DB01139640E0DCCF819580
:10251000DB011496D8CFEF92FF920F931F93CF93C6
:10252000DF938C017B01FB011582EB01259698015D
:10253000ADECBCEC0E945B29AC01569547955695D5
:10254000479556954795FA01EE0FFF1FCA01880F70
:10255000991F880F991F880F991FE80FF91F0E1BED
:102560001F0B005D0A938A01CE15DF0501F7CE012E
:10257000DF91CF911F910F91FF90EF9008956F928F
:102580007F928F92AF92BF92CF92DF92EF92FF92A3
:102590000F931F93CF933A0120E030E048EC52E4D0
:1025A0000E94D6280E941C28AC01F30117828301E7
:1025B0000A5F1F4FC1E0BAE0CB2ED12CE12CF12CE9
:1025C0008CE2882EC33081F0CA01A70196010E94D7
:1025D0003929605DF801608301501109B901C630E5
:1025E000B1F0CF5FC33081F7F80180825801F1E08C
:1025F000AF1AB108CA01A70196010E943929605D8E
:10260000F501608302501109B901CF5FEBCFC3011F
:10261000CF911F910F91FF90EF90DF90CF90BF90DF
:10262000AF908F907F906F9008950F931F93982F86
:1026300092959F708F70082F10E08AE0989F000D90
:10264000111D1124222717FD2095322FB801C90131
:102650001F910F910895DB01FC0105C091918D91AF
:102660004150981304C04111F9CF81E0089580E0F2
:1026700008959FBB8EBB8FB3843078F481E08CBB10
:102680008DB3861751F08FB7F8946DBB94E09CBB67
:1026900092E09CBB8FBFE199FECF0895EF92FF922D
:1026A0000F931F93CF93DF938C017B01EA01209757
:1026B00051F0F70161917F01C8010E9439130F5F4A
:1026C0001F4F2197B1F7DF91CF911F910F91FF908D
:1026D000EF9008950F931F93CF93DF9300D0CDB762
:1026E000DEB78C01809150038F3738F00F900F9038
:1026F000DF91CF911F910F9108951A83098390E084
:10270000880F991F42E050E0BE016F5F7F4F8F5FDF
:102710009C4F0E944E1360915003012B19F06F5F84
:102720006093500380E093E00E9439130F900F9064
:10273000DF91CF911F910F91089593E09FBB1EBA37
:102740009FB3943008F591E09CBB9DB39F3F51F13E
:102750009093500390E0880F991F9C012F5F3C4F8E
:102760003FBB2EBB2FB3243088F040E08E5F9C4FE0
:102770009FBB8EBB8FB3843098F481E08CBB8DB34C
:10278000242F382FC901089590E0E2CF21E02CBB1F
:102790004DB38E5F9C4F9FBB8EBB8FB3843068F36D
:1027A00080E0EECF1092500360E080E093E00E9462
:1027B000391360E081E093E00E94391360E082E029
:1027C00093E00E94391360E083E093E00E943913A4
:1027D00060E084E093E00E94391320E030E0D2CF43
:1027E0002F923F924F925F926F927F928F929F9221
:1027F000AF92BF92CF92DF92EF92FF920F931F930F
:10280000CF93DF93CDB7DEB76D970FB6F894DEBFE9
:102810000FBECDBF4C017C8F6B8F242E322E9E01BC
:102820002F5F3F4F8AE0F90111928A95E9F786E020
:10283000E6EBF1E0DE01519601900D928A95E1F709
:1028400086E0ECEBF1E0DE011B9601900D928A959B
:10285000E1F7842F90E010E061E1E62EF12CEC0E20
:10286000FD1E4BE050E04C0F5D1F480F591F588F65
:102870004F8BF701E80FF91FFA8FE98FF22DF15016
:10288000FD8F75E0A72EB12CA81AB90AAA0CBB1CA3
:10289000A20EB31EF0E16F2EF7E27F2EA8EE4A2EB5
:1028A000A3E05A2EEF89F88D1082E98DFA8D1082FF
:1028B000A701602F832D0E941008602F832D0E9496
:1028C0008C0761E081E00E9464078091F3048C71C1
:1028D000E1F38091F3048C7009F0D4C08091FD0481
:1028E0008F3209F4A0C008F089C08F3109F4A5C067
:1028F000A701602F832D0E941008602F812F830D68
:102900000E948C079FB7F8948091F3048F7E809388
:10291000F3049FBF8091FD048B3311F08E33A9F631
:1029200060E080E00E9464078091FD048B3309F42D
:10293000A9C0222079F0D501F7018191882329F0DF
:1029400090E0C09711969C938E9312968E2F8E19BD
:10295000821598F389819A81869D6001879DD00CAC
:10296000969DD00C11242B813C81249DC001259D76
:10297000900D349D900D1124C80ED91E89859A851D
:10298000C80ED91E8F8198859C01220F331F880F96
:10299000991F880F991F880F991F280F391FC20E82
:1029A000D31E2D813E81F4E6F29FC001F39F900D6E
:1029B0001124C80ED91EC814D90408F442C04B8D86
:1029C0005C8D4C155D05E8F1C6016D960FB6F89467
:1029D000DEBF0FBECDBFDF91CF911F910F91FF9052
:1029E000EF90DF90CF90BF90AF909F908F907F90AF
:1029F0006F905F904F903F902F900895873369F0CC
:102A00008D3309F075CFF701E10FF11D8081893316
:102A100008F06ECF8F5F80836BCF1F5F121508F4B5
:102A200067CF10E065CFF701E10FF11D80818133A1
:102A300008F45ECF815080835BCF111121C01D8DC2
:102A400057CFAE01455F5F4F602F832D0E94100866
:102A500068EE73E080E10E941B099FB7F8948091B3
:102A6000F3048F7E8093F3049FBFC814D90408F445
:102A700019CF8B8D9C8D8C159D0508F413CFA4CF99
:102A8000115036CFC12CD12C9FCFCF92DF92EF9235
:102A9000FF920F931F93CF93DF93EC010E94690382
:102AA0004E81405E242F22952F704F7050E08AE0B7
:102AB000289F400D511D1124662757FD6095762FE4
:102AC000BAE1440F551F661F771FBA95D1F70D81E4
:102AD000202F22952F70AB81BA2FB295BF70CA807C
:102AE000DC2CD2941FE0D122F981EF2FE295EF7018
:102AF000F880EF2CE2948FE0E8220F7010E08AE07B
:102B0000289F000D111D1124222717FD2095322F1B
:102B100096E1000F111F221F331F9A95D1F7AF7056
:102B20008A2F90E0AAE0BA9F800D911D1124AA2758
:102B300097FDA095BA2FC1E1880F991FAA1FBB1F4F
:102B4000CA95D1F7082B192B2A2B3B2B8F2D8F7071
:102B500090E0AAE0EA9E800D911D1124AA2797FD1E
:102B6000A095BA2F082B192B2A2B3B2BCC2DCF70DD
:102B70008C2F90E0AAE0DA9E800D911D1124AA27E7
:102B800097FDA095BA2FDCE0880F991FAA1FBB1FE5
:102B9000DA95D1F7082B192B2A2B3B2BFF708F2F9F
:102BA00090E0FAE0EF9F800D911D1124AA2797FD78
:102BB000A095BA2F880F991FAA1FBB1F880F991FB6
:102BC000AA1FBB1F880F991FAA1FBB1F880F991F21
:102BD000AA1FBB1F880F991FAA1FBB1F880F991F11
:102BE000AA1FBB1F082B192B2A2B3B2B042B152BA1
:102BF000262B372BB801C901DF91CF911F910F917F
:102C0000FF90EF90DF90CF9008950F931F93FA01FC
:102C10008B019C014AE136952795179507954A95B2
:102C2000D1F7045106838B019C0156E13695279517
:102C3000179507955A95D1F70F701127222733273B
:102C400005838B019C01A1E1369527951795079582
:102C5000AA95D1F70F7111272227332703838B0100
:102C60009C01BCE03695279517950795BA95D1F745
:102C70000F7111272227332702838B019C0146E025
:102C800036952795179507954A95D1F70F73112714
:102C9000222733270183DC01CB018F739927AA27D1
:102CA000BB2780831F910F910895FC0146812DEC75
:102CB000429F312D112436953695369550E1359F3A
:102CC000C0011124942F5AE0359F90191124982B9C
:102CD00096834581429F312D112436953695369540
:102CE00050E1359FC0011124942F5AE0359F90196F
:102CF0001124982B95834381429F312D11243695C1
:102D00003695369550E1359FC0011124942F5AE035
:102D1000359F90191124982B93834281429F312D26
:102D2000112436953695369550E1359FC001112412
:102D3000942F5AE0359F90191124982B928341814A
:102D4000429F312D112436953695369550E1359FA9
:102D5000C0011124942F5AE0359F90191124982B0B
:102D600091833081329F212D112426952695269519
:102D700040E1249FC0011124932F5AE0259F901910
:102D80001124982B90830895CF92DF92EF92FF92B7
:102D90000F931F93CF93DF93EA0120E13EE040E0E1
:102DA00050E00E9439296B017C0140E0BE01822F76
:102DB0000E945E128E010D5F1F4FC701B6012CE30A
:102DC00030E040E050E00E943929F62E40E0B801A2
:102DD000822F0E945E12BE016A5F7F4F40E08F2DFE
:102DE0000E945E128AE38B838E832196CE01DF914F
:102DF000CF911F910F91FF90EF90DF90CF900895AA
:102E00000F931F93CF93DF938C010E947B29EC01DA
:102E10008431910510F0C3E1D0E0AE01B8018FE537
:102E200096E00E947229C15AD94F18828FE596E028
:102E3000DF91CF911F910F910895FF920F931F93F0
:102E4000CF93DF9300D000D01F92CDB7DEB70E94A2
:102E5000E9078FE991E00E940017AC0161E081E091
:102E60000E9410084CE152E061E087E00E941008E7
:102E700042E252E062E087E00E94100880E00E9497
:102E80009D13BE016F5F7F4F0E94B311AC0161E0E3
:102E90008DE00E94100881E00E949D13BE016F5FCB
:102EA0007F4F0E94B311AC0162E08DE00E941008D8
:102EB00010E09091F3049C71E1F39091F3049C7005
:102EC00009F04CC08091FD048F3209F459C08D3354
:102ED00009F44FC0012F0F5FF12EF394F39440E0FB
:102EE000BE016F5F7F4F802F0E945E12AC0161E0D8
:102EF00087E00E94100840E0BE016F5F7F4F8F2D7A
:102F00000E945E12AC0162E087E00E941008812FEF
:102F10000E949D13BE016F5F7F4F0E94B311AC01F1
:102F200061E08DE00E941008802F0E949D13BE0179
:102F30006F5F7F4F0E94B311AC0162E08DE00E9491
:102F400010089FB7F8948091F3048F7E8093F30468
:102F50009FBF8091FD048B3309F0ABCF0F900F9092
:102F60000F900F900F90DF91CF911F910F91FF90D5
:102F700008951123A9F0012FF12EF3941150AFCF32
:102F8000412F50E02091500330E022503109012FB1
:102F9000421753074CF00F5FF12EF394F3949FCF39
:102FA00052E0F52E01E09BCF0E5F63E0F62EF10EAE
:102FB0001F5F95CF9F92AF92BF92CF92DF92EF9219
:102FC000FF920F931F93CF93DF93CDB7DEB76B972D
:102FD0000FB6F894DEBF0FBECDBFEE24E394F12C04
:102FE000EC0EFD1E82E1F70111928A95E9F783E06C
:102FF000898389E08A8391E09C838D838F8388878E
:1030000092E09A878B8795E09D878E87988B898B36
:103010000E9469030E94E9078FE891E00E9400176F
:10302000AC0161E081E00E94100887E991E00E9414
:103030000017AC0162E081E00E94100840E3BE018D
:103040006D5E7F4F8EEF94E00E94D410AC0161E082
:1030500089E00E94100840E3BE016D5E7F4F8EEF55
:1030600094E00E940211AC0162E089E00E94100825
:1030700061E081E00E94640761E089E00E948C07C2
:1030800000E010E0BB24B394902E40E0BE016D5EE2
:103090007F4F8EEF94E00111BFC00E94D410A92C85
:1030A000A3946801CC0CDD1CCC0CDD1CCC0CDD1C0D
:1030B000C00ED11E8091F3048C71E1F38091F30472
:1030C0008C7009F045C08091FD048F3209F47FC0F7
:1030D00008F050C08F3109F48AC08B2D885F6A2DAB
:1030E0000E948C079FB7F8948091F3048F7E8093A1
:1030F000F3049FBF8091FD048B3309F4B8C08E3375
:10310000C9F6992009F494C09B898C89F0E19F9FAE
:10311000800D1124809300059E898F8920E1929F64
:10312000800D11248093FF04998D8A8DE0E19E9F8C
:10313000800D11248093FE040F5F1F4F0230110594
:1031400009F0A2CF0E94820460E080E00E94640740
:103150006B960FB6F894DEBF0FBECDBFDF91CF9157
:103160001F910F91FF90EF90DF90CF90BF90AF90A5
:103170009F9008958733F9F08D3309F0AECF2B2D52
:1031800030E021503109E3E1F0E0EC0FFD1FE20FE8
:10319000F31F8081D601A20FB31FAE0DBF1D9C91FE
:1031A000891708F09ACF8F5F8083805D0E94C407E3
:1031B0008B2D885F94CFE7E0EB1550F19B2D9F5F3F
:1031C0008B2D933061F5865FB394B39488CFEB2D4C
:1031D000F0E0319783E190E08C0F9D1FE80FF91F1D
:1031E0008081882309F479CF81508083DECF91E0FC
:1031F0009B15D0F49B2D91508B2D933029F0963058
:1032000019F0895FB92E6BCF8A5FBA94BA9467CFF1
:1032100089E0BB24B39463CF0E94021140CF963063
:1032200091F2875FB92E5BCF80E178E0B72E57CF60
:1032300062E089E00E948C079B898C89F0E19F9F66
:10324000800D1124809301059E898F8920E1929F32
:10325000800D112480930305998D8A8DE0E19E9F56
:10326000800D112480930405BB24B39465CF60E0E6
:1032700080E00E9464076CCF0E94EF030E94690304
:103280000E94300580E00E949D13829909C00E942F
:10329000D4060E9435010E94DA17829B06C0089569
:1032A00084B790E099690C946A130C94270CCF931F
:1032B000DF93EB01BC0180E090E00E94482822E50A
:1032C00039E44DE152E40E94B42720E030E040EAC6
:1032D00050E40E944F27AE01DF91CF910C94BF12B2
:1032E0008BB19CB1887131F05F9B0BC08CB15F9941
:1032F000FDCF089580911F049D3021F0883CD0F0CF
:10330000989508958230E8F3E82FF0E0EF5AFC4FEB
:1033100096838F5F80931F04809121048F5F809339
:1033200021049FB7F8948091F30480648093F304A0
:103330009FBF0895E82FF0E0EF5AFC4F96838F5F10
:1033400080931F040895FC012081222339F03196D7
:103350005D9BFECF2CB921912111FACF5D9BFECF51
:103360008DE08CB908950F931F93CF93DF9300D016
:10337000CDB7DEB72FB7F89430911F042FBF032FBE
:1033800010E069837A830E94A31969817A8180E4BD
:103390000E941B09813099F09FB7F8948091F30443
:1033A0008F7B8093F3049FBF9801295A3C4FC9013A
:1033B0000F900F90DF91CF911F910F91089520E012
:1033C00030E0F5CF813001F19FB7F89460911F0490
:1033D0009FBF6623A9F047E553E09A0171E004C05E
:1033E000922F941B961760F4F9012F5F3F4F908145
:1033F0009D30B1F77F5F7813F3CFF901CF010895C6
:10340000E0E0F0E0CF010895E7E5F3E0CF010895B3
:10341000BC0180E40E941B09813079F09FB7F894C9
:103420008091F3048F7B8093F3049FBF9FB7F89440
:10343000809121049FBF0C94E21980E090E00895F0
:103440008FB7F89410921F04109220041092210458
:103450001092EA041092EB041092EC048FBF0895CE
:10346000AF9ADD988FB7F89410921F041092200441
:10347000109221041092EA041092EB041092EC04D2
:103480008FBF1AB881B3836081BB82B38C7F82BB4C
:103490000895CF93DF9300D0CDB7DEB789839A83A9
:1034A0000E94301A89819A810E946A1380E00F90ED
:1034B0000F90DF91CF9108950F931F93CF93DF93D8
:1034C00000D01F92CDB7DEB721E230E340E329837D
:1034D0003A834B830E94081A8C01009741F143E024
:1034E000BC01CE0101960E942B13882349F081E094
:1034F0000F900F900F90DF91CF911F910F91089532
:1035000061E0C80101960E947A11FC01008110E07F
:1035100013600E94301AC8010E946A1380E00F9065
:103520000F900F90DF91CF911F910F91089580E040
:103530000F900F900F90DF91CF911F910F910895F1
:103540000F931F93CF93DF9300D000D000D0CDB75F
:10355000DEB786E0E2ECF1E0DE01119601900D921B
:103560008A95E1F79FB7F8948091F3048F7B80935D
:10357000F3049FBF64E670E081EB92E00E94B31910
:103580008C010097E1F046E0BC01CE0101960E945B
:103590002B138823A1F0F801878180935103808544
:1035A00080935203818580935303828580935403D3
:1035B0001092550384E690E00E945C1A01C080E0FE
:1035C00026960FB6F894DEBF0FBECDBFDF91CF9128
:1035D0001F910F9108950F931F93CF93DF9300D006
:1035E0001F92CDB7DEB781E290E3A0E389839A838F
:1035F000AB838FB7F89410921F041092200410929E
:1036000021041092EA041092EB041092EC048FBF94
:1036100081E00E94A506DD9A15E084E690E00E9414
:10362000081A892B09F45AC01150B9F70E94A01A40
:10363000882309F462C0AF988FB7F89410921F04E2
:1036400010922004109221041092EA041092EB04CC
:103650001092EC048FBF88E292E00E94A31904C08C
:10366000FC018081813281F088E893E10E94081A90
:103670008C010097A9F780E00F900F900F90DF91D9
:10368000CF911F910F9108950E94301A43E0B80125
:10369000CE0101960E942B13882349F081E00F9000
:1036A0000F900F90DF91CF911F910F91089561E0DE
:1036B000C80101960E947A11FC01008110E013609C
:1036C0000E94301AC8010E946A1380E00F900F9088
:1036D0000F90DF91CF911F910F9108950E94301AA2
:1036E00081E092E00E946A1380E00F900F900F90AB
:1036F000DF91CF911F910F9108950E94301A82E0BF
:1037000092E00E946A1380E00F900F900F90DF917B
:10371000CF911F910F9108958CE292E00E94A3191E
:1037200084E690E00E945C1A882359F082E00E94AF
:10373000A50684EF91E00E945C1A882311F081E0D5
:1037400008950E94301A85E092E00E946A1380E09A
:1037500008958F929F92AF92BF92CF92DF92EF9295
:10376000FF9283E58093730680E2809374068091D4
:103770000405805E0E9415134B015C0189E1880CF1
:10378000991CAA1CBB1C8A95D1F7809103050E9445
:1037900015136B017C0195E1CC0CDD1CEE1CFF1CAC
:1037A0009A95D1F7C828D928EA28FB2880910105E5
:1037B0000E941513DB0199278827C82AD92AEA2AEB
:1037C000FB2A809100050E9415133BE0660F771FCE
:1037D000881F991F3A95D1F7C62AD72AE82AF92ACD
:1037E0008091FF040E941513660F771F881F991F91
:1037F000660F771F881F991F660F771F881F991FF5
:10380000660F771F881F991F660F771F881F991FE4
:10381000C62AD72AE82AF92A8091FE040E941513A5
:1038200096958795779567956C297D298E299F298F
:1038300045E756E00E94E71164E670E083E392E01A
:103840000E94B31964E670E083E796E0FF90EF9082
:10385000DF90CF90BF90AF909F908F900C94B31952
:10386000CF9381E00E94A506DD9AAF98C5E084E67B
:1038700090E00E94081A892B09F455C0C150B9F78D
:103880000E94A01A8823E9F10E948C1B882309F466
:1038900041C00E94A01A8823A1F188EE93E00E9403
:1038A000531187E392E00E94A31988EE93E00E94EF
:1038B0005C1A882309F440C084E690E00E94081A4C
:1038C00084E690E00E94081A8AE292E00E94A3191E
:1038D00088E893E10E945C1A882371F10E94A91B79
:1038E0008FB7F89410921F041092200410922104B4
:1038F0001092EA041092EB041092EC048FBF81E066
:1039000007C00E94301A82E092E00E946A1380E0B1
:10391000CF9108950E94301A85E092E00E946A13C8
:1039200080E0CF9108950E94301A81E092E00E94D9
:103930006A1380E0CF9108950E94301A85E892E0E2
:103940000E946A1380E0CF910895883009F457C02F
:10395000F0F0803209F43FC0803499F1803149F4AD
:1039600082E1E9E4F2E0A3E7B6E001900D928A95E6
:10397000E1F783E796E00E94A31980ED97E00E94AB
:103980005C1A91E0811101C090E0892F0895823086
:1039900061F1843061F0813061F782E1EBE5F2E0C2
:1039A000A3E7B6E001900D928A95E1F7E2CF82E1BC
:1039B000EFE7F2E0A3E7B6E001900D928A95E1F718
:1039C000D8CF80E1E3EAF2E0A3E7B6E001900D9200
:1039D0008A95E1F7CECF80E1E9E3F2E0A3E7B6E034
:1039E00001900D928A95E1F7C4CF82E1EDE6F2E015
:1039F000A3E7B6E001900D928A95E1F7BACF82E194
:103A0000E1E9F2E0A3E7B6E001900D928A95E1F7D3
:103A1000B0CFCF93DF9300D000D0CDB7DEB793E423
:103A2000998390E29A8398E79B831C82883031F1D6
:103A300048F0803231F1803421F1803159F481E352
:103A40008B8308C08230D1F0843011F0813011F4C2
:103A500082E38B83CE0101960E94A31988EE93E046
:103A60000E945C1A91E0811101C090E0892F0F90B3
:103A70000F900F900F90DF91CF91089583E38B8388
:103A8000E9CF80E38B83E6CF95E0E3EBF2E0A3E7B9
:103A9000B6E001900D929A95E1F7883009F455C08F
:103AA00060F0803209F455C0803409F452C080318E
:103AB00071F481E3809375060AC0823009F445C031
:103AC000843011F0813019F482E38093750667E742
:103AD00076E08091EA0490E00E94B31183E796E0DB
:103AE0000E94A31984EF91E00E945C1A882359F187
:103AF00080912204882361F090E05D9BFECF8CB919
:103B00009F5FE92FF0E0EE5DFB4F80818111F5CFE3
:103B100088EE93E00E94081A84EF91E00E945C1AFC
:103B2000882389F08FB7F89410921F041092200414
:103B3000109221041092EA041092EB041092EC040B
:103B40008FBF81E0089580E0089583E38093750638
:103B5000BECF80E380937506BACFCF92DF92EF920B
:103B6000FF920F931F93CF93DF931F92CDB7DEB7D2
:103B70000E94301C882309F405C480E10E94A51C22
:103B8000882309F453C42091EA04822F9DE2A8EB14
:103B9000B2E00DC0E82FF0E0EE5DFB4F90838F5F49
:103BA00011969C911197282F1196992329F0883C02
:103BB00088F398959111FBCF2093EA04E82FF0E069
:103BC000EE5DFB4F108240E363E776E08EEF94E01A
:103BD0000E94D410DC012091EA048C91882389F0A2
:103BE000283C08F013C3E22FF0E0EE5DFB4F80832A
:103BF0002F5F2093EA0411968C91119711968111F1
:103C0000EFCF822F90E0FC01EE5DFB4F10824091E0
:103C1000EA0430E2E7EDF2E00CC0DC01AE5DBB4F40
:103C20003C932F5F3181422F3196822F90E03323D6
:103C300029F0283C90F398953111FBCF4093EA048A
:103C4000FC01EE5DFB4F108240E363E776E08EEF10
:103C500094E00E940211DC018091EA049C91992376
:103C600089F0883C08F0D4C2E82FF0E0EE5DFB4F0D
:103C700090838F5F8093EA0411969C91119711961F
:103C80009111EFCFE82FF0E0EE5DFB4F108262E084
:103C900083E796E00E942D11DC018091EA049C915B
:103CA000992389F0883C08F0B5C2E82FF0E0EE5D7A
:103CB000FB4F90838F5F8093EA0411969C9111973C
:103CC00011969111EFCFE82FF0E0EE5DFB4F1082DF
:103CD00080E10E94441D882309F4B8C3A1E1CA2EE3
:103CE000A5E0DA2EF12CBAE3EB2E4091EA04242F62
:103CF00083E7ABEDB2E00DC0E22FF0E0EE5DFB4FED
:103D000080832F5F11968C911197422F11968823F3
:103D100029F0283C88F398958111FBCF4093EA0461
:103D2000822F90E0FC01EE5DFB4F10823F2D3F5C47
:103D300030937306E092740610927506E3E7F6E09E
:103D40000CC0DC01AE5DBB4F3C932F5F3181422F35
:103D50003196822F90E0332329F0283C90F39895F8
:103D60003111FBCF4093EA04FC01EE5DFB4F108262
:103D700061E083E796E00E942D11DC018C91209197
:103D8000EA04882389F0283C08F046C2E22FF0E0DC
:103D9000EE5DFB4F80832F5F2093EA0411968C9198
:103DA000119711968111EFCF022F10E0F801EE5D0F
:103DB000FB4F10829091EA0480E2E3EEF2E00DC046
:103DC000D801AE5DBB4F8C93922F9F5F8181292FCD
:103DD0003196092F10E0882329F0283C88F3989524
:103DE0008111FBCF9093EA04F801EE5DFB4F108246
:103DF000F60132978081813009F4A5C2823009F43E
:103E000083C28EEA91E029830E940017FC01808121
:103E10002981882381F0283C08F002C2D801AE5DD8
:103E2000BB4F8C932F5F2093EA0481813196022F40
:103E300010E08111F0CFF801EE5DFB4F108261E0E0
:103E400083E796E00E942D11DC018C912091EA0419
:103E5000882389F0283C08F0E1C1E22FF0E0EE5D14
:103E6000FB4F80832F5F2093EA0411968C9111976A
:103E700011968111EFCF022F10E0F801EE5DFB4F9C
:103E800010829091EA0480E2E4EFF2E00DC0D801E4
:103E9000AE5DBB4F8C93922F9F5F8181292F31960E
:103EA000092F10E0882329F0283C88F39895811188
:103EB000FBCF9093EA04F801EE5DFB4F1082F60110
:103EC00031978081813009F400C2823009F4DEC16B
:103ED00081EE91E029830E940017FC0180812981F5
:103EE000882381F0283C08F09FC1D801AE5DBB4F0C
:103EF0008C932F5F2093EA0481813196022F10E08A
:103F00008111F0CFF801EE5DFB4F108261E083E795
:103F100096E00E942D11DC019C918091EA04992386
:103F200089F0883C08F07EC1E82FF0E0EE5DFB4FA1
:103F300090838F5F8093EA0411969C91119711965C
:103F40009111EFCFE82FF0E0EE5DFB4F108280E1A2
:103F50000E94441D882309F479C22091EA04922F1B
:103F600080E2A5E0B3E00EC0E22FF0E0EE5DFB4F93
:103F70008083922F9F5F11968C911197292F119614
:103F8000882329F0283C80F398958111FBCF9093EA
:103F9000EA04022F10E0F801EE5DFB4F1082D6011B
:103FA0008C91833009F45DC208F04CC1813009F472
:103FB000B5C2823009F493C288E192E029830E945D
:103FC0000017FC0180812981882381F0283C08F0BA
:103FD00037C1D801AE5DBB4F8C932F5F2093EA04AD
:103FE00081813196022F10E08111F0CFF801EE5D52
:103FF000FB4F108261E083E796E00E942D11DC0107
:104000008C912091EA04882389F0283C08F00EC1A5
:10401000E22FF0E0EE5DFB4F80832F5F2093EA04F8
:1040200011968C91119711968111EFCF822F90E00C
:10403000FC01EE5DFB4F10824091EA0430E2E6E1C4
:10404000F3E00DC0DC01AE5DBB4F3C93422F4F5FF0
:104050003181242F3196842F90E0332329F0283C9E
:1040600088F398953111FBCF4093EA04FC01EE5D93
:10407000FB4F1082F601618172818381948143E755
:1040800056E00E94C416DC019C918091EA049923B9
:1040900089F0883C08F0CCC0E82FF0E0EE5DFB4FE3
:1040A00090838F5F8093EA0411969C9111971196EB
:1040B0009111EFCFE82FF0E0EE5DFB4F108261E051
:1040C00083E796E00E942D11DC018C912091EA0497
:1040D000882389F0283C08F0ADC0E22FF0E0EE5DC7
:1040E000FB4F80832F5F2093EA0411968C911197E8
:1040F00011968111EFCF822F90E0FC01EE5DFB4F16
:1041000010824091EA0430E2E7E2F3E00DC0DC0106
:10411000AE5DBB4F3C93422F4F5F3181242F3196D0
:10412000842F90E0332329F0283C88F398953111AF
:10413000FBCF4093EA04FC01EE5DFB4F1082D601F9
:1041400019966D917D918D919C911C9743E756E056
:104150000E94BF12DC019C918091EA04992389F0AE
:10416000883C08F069C0E82FF0E0EE5DFB4F9083DB
:104170008F5F8093EA0411969C911197119691118B
:10418000EFCFE82FF0E0EE5DFB4F1082B3E0FB16BF
:1041900009F409C162E083E796E00E942D11DC0179
:1041A0009C918091EA04992389F0883C08F046C0EC
:1041B000E82FF0E0EE5DFB4F90838F5F8093EA0481
:1041C00011969C91119711969111EFCFE82FF0E085
:1041D000EE5DFB4F108280E10E94441D882309F4AC
:1041E00035C1F394E4E5CE0ED11CF4E0FF127DCD91
:1041F00080E10E94091D882309F420C184EF91E029
:104200000E9453110E94301A81E0C3C09895E6CCF9
:10421000989525CD989544CD9895B3CD989518CE81
:104220009895F7CD98957BCE98955ACE9895EBCEEC
:1042300098952DCF98954CCF989590CF9895B3CFD2
:104240009895C2CE853009F42BC108F0CDC086E028
:1042500092E029830E940017FC0180812981882334
:1042600009F4C4CE283C80F4D801AE5DBB4F8C93DA
:104270002F5F2093EA0481813196022F10E088237A
:1042800009F4B4CE283C80F39895E9CF81ED91E014
:1042900029830E940017FC0180812981882309F469
:1042A00031CE283C80F4D801AE5DBB4F8C932F5F9C
:1042B0002093EA0481813196022F10E0882309F4CB
:1042C00021CE283C80F39895E9CF81EC91E02983B9
:1042D0000E940017FC0180812981882309F412CEF5
:1042E000283C80F4D801AE5DBB4F8C932F5F2093A8
:1042F000EA0481813196022F10E0882309F402CE6E
:10430000283C80F39895E9CF8AEA91E029830E94BE
:104310000017FC0180812981882309F48CCD283C79
:1043200080F4D801AE5DBB4F8C932F5F2093EA04DD
:1043300081813196022F10E0882309F47CCD283C3E
:1043400080F39895E9CF86EA91E029830E940017CF
:10435000FC0180812981882309F46DCD283C80F4FB
:10436000D801AE5DBB4F8C932F5F2093EA0481810F
:104370003196022F10E0882309F45DCD283C80F3AC
:104380009895E9CF0E94301A86E892E00E946A135D
:1043900080E00F90DF91CF911F910F91FF90EF90F0
:1043A000DF90CF90089564E083E796E00E942D119E
:1043B000DC019C918091EA04992309F407CF883CA1
:1043C00088F4E82FF0E0EE5DFB4F90838F5F8093E1
:1043D000EA0411969C9111971196992309F4F6CE4F
:1043E000883C78F39895E8CF863009F0E5CD82E1F6
:1043F00092E029830E940017FC0180812981882393
:1044000009F4F4CD283C80F4D801AE5DBB4F8C9309
:104410002F5F2093EA0481813196022F10E08823D8
:1044200009F4E4CD283C80F39895E9CF0E94301A36
:104430008AE092E00E946A1380E0ABCF0E94301ABB
:1044400088E092E00E946A1380E0A3CF80E10E949E
:10445000091D0E94301A89E092E00E946A1380E0F0
:1044600098CF80E092E029830E940017FC018081B0
:104470002981882309F4BACD283C80F4D801AE5DA7
:10448000BB4F8C932F5F2093EA0481813196022FDA
:1044900010E0882309F4AACD283C80F39895E9CF51
:1044A0008CE092E029830E940017FC018081298121
:1044B000882309F49BCD283C80F4D801AE5DBB4F26
:1044C0008C932F5F2093EA0481813196022F10E0B4
:1044D000882309F48BCD283C80F39895E9CF8AEFA7
:1044E00091E029830E940017FC01808129818823A3
:1044F00009F47CCD283C80F4D801AE5DBB4F8C9391
:104500002F5F2093EA0481813196022F10E08823E7
:1045100009F46CCD283C80F39895E9CF84EF91E0C5
:1045200029830E940017FC0180812981882309F4D6
:104530005DCD283C80F4D801AE5DBB4F8C932F5FDE
:104540002093EA0481813196022F10E0882309F438
:104550004DCD283C80F39895E9CF3F924F925F92E2
:104560006F927F928F929F92AF92BF92CF92DF9283
:10457000EF92FF920F931F93CF93DF93CDB7DEB7E8
:1045800066970FB6F894DEBF0FBECDBF81E0898B72
:1045900082E08A8B84E08B8B88E08C8BAE014B5E53
:1045A0005F4F62E080E090E00E9441058D899E8926
:1045B000892BC9F481E066960FB6F894DEBF0FBE72
:1045C000CDBFDF91CF911F910F91FF90EF90DF90C2
:1045D000CF90BF90AF909F908F907F906F905F90A3
:1045E0004F903F9008950E94301C882309F46EC2BA
:1045F00080E20E94A51C882309F405C1332433946A
:10460000712C612C84E5582E96E1492E7110F1C071
:1046100081E00E94A51C882309F4F5C082E00E9475
:10462000A51C882309F4EFC08D899E89892B09F484
:1046300052C111E6A12E15E0B12E00E1E02EF12CC1
:10464000C12CD12CAE014F5F5F4F69E0C7010E94C2
:1046500041058985082F029506950695037010E09F
:10466000023008F44EC166246394772009F424C113
:1046700069817A818B819C81AE01465F5F4F0E9488
:104680000516CE010A960E94551640E363E776E0D0
:10469000CE010A960E94D410DC018C912091EA048C
:1046A000882389F0283C08F0B6C0E22FF0E0EE5DE8
:1046B000FB4F80832F5F2093EA0411968C91119712
:1046C00011968111EFCF822F90E0FC01EE5DFB4F40
:1046D00010824091EA0430E2E7EDF2E00DC0DC0127
:1046E000AE5DBB4F3C93422F4F5F3181242F3196FB
:1046F000842F90E0332329F0283C88F398953111DA
:10470000FBCF4093EA04FC01EE5DFB4F108240E3D7
:1047100063E776E0CE010A960E940211DC018C91DB
:104720004091EA04882389F0483C08F0E8C0E42F6F
:10473000F0E0EE5DFB4F80834F5F4093EA041196FB
:104740008C91119711968111EFCF842F90E0FC018D
:10475000EE5DFB4F10825091EA0420E2E3EDF2E0BF
:104760000DC0DC01AE5DBB4F2C93542F5F5F2181E8
:10477000452F3196852F90E0222329F0483C88F37D
:1047800098952111FBCF5093EA04FC01EE5DFB4F9D
:10479000108248019924589CF001599CF00D112475
:1047A000E75FFA4F2781213009F0AFC028853985AE
:1047B0003F70232B09F067C120E3E9EFF1E00DC062
:1047C000DC01AE5DBB4F2C93542F5F5F2181452FE1
:1047D0003196852F90E0222329F0483C88F3989564
:1047E0002111FBCF5093EA04FC01EE5DFB4F1082D8
:1047F000AFC084E00E94A51C882329F088E00E94B5
:10480000A51C811111CF0E94301A8AE092E00E940B
:104810006A1380E0D0CE989543CF4093EA04FC0120
:10482000EE5DFB4F108263E776E08E819F810E94F0
:104830008B12DC019C918091EA04992389F0883CD9
:1048400008F01FC1E82FF0E0EE5DFB4F90838F5F13
:104850008093EA0411969C91119711969111EFCFD4
:10486000E82FF0E0EE5DFB4F108261E083E796E019
:104870000E942D11DC019C918091EA04992389F01A
:10488000883C08F0FCC0E82FF0E0EE5DFB4F908321
:104890008F5F8093EA0411969C9111971196911164
:1048A000EFCFE82FF0E0EE5DFB4F108280E20E9438
:1048B000441D882309F4DBC0FFEFCF1ADF0A89E02B
:1048C000E80EF11CE4E5AE0EB11C8D899E89C81678
:1048D000D90608F4B7CE711001C181E00E94091D0C
:1048E000882309F421C182E00E94091D882309F46C
:1048F0001BC1662009F401C17394339487CE989547
:1049000011CF81E07812B4CED7CF8885998563E73F
:1049100076E09F700E948B12DC019C918091EA04EA
:10492000992389F0883C08F09EC0E82FF0E0EE5D06
:10493000FB4F90838F5F8093EA0411969C911197AF
:1049400011969111EFCFE82FF0E0EE5DFB4F108252
:1049500061E083E796E00E942D11DC019C9180913B
:10496000EA04992389F0883C08F07BC0E82FF0E046
:10497000EE5DFB4F90838F5F8093EA0411969C91CC
:10498000119711969111EFCFE82FF0E0EE5DFB4FFC
:104990001082E1E1F0E0EC0FFD1FE80DF91D8081D0
:1049A0000E94441D882309F462C04092EA0494E7FF
:1049B00086E126E1A8E3B3E00EC0E82FF0E0EE5D6B
:1049C000FB4F9083282F2F5F11969C911197822F78
:1049D0001196992329F0883C80F398959111FBCF8B
:1049E0002093EA04E82FF0E0EE5DFB4F108241E0F7
:1049F00063E776E08D810E945E12DC018C9120914C
:104A0000EA04882381F0283C80F5E22FF0E0EE5D97
:104A1000FB4F80832F5F2093EA0411968C911197AE
:104A200011968111F0CF822F90E0FC01EE5DFB4FDB
:104A300010824091EA043CE2E0E4F3E00EC0DC01C5
:104A4000AE5DBB4F3C93422F4F5F3181242F319697
:104A5000842F90E0332309F4E0CE283C80F398952E
:104A6000F9CF98957ECF98955BCF9895CACF0E9445
:104A7000301A8CE092E00E946A1380E09CCD9895F9
:104A8000FDCE9895DACE63E776E0F50180819181DD
:104A90000E945719DC019C918091EA04992309F442
:104AA00052CF883C88F4E82FF0E0EE5DFB4F908316
:104AB0008F5F8093EA0411969C9111971196992328
:104AC00009F441CF883C78F39895E8CF0E94301ADA
:104AD00086E892E00E946A1380E06DCD84E00E9437
:104AE000091D882309F48FCE88E00E94091D8823C0
:104AF00009F489CEF2E03F12FFCE80E20E94091D48
:104B0000882391F084EF91E00E9453110E94301AA3
:104B10001E8A1D8AAE014B5E5F4F62E080E090E02E
:104B20000E94410681E047CD0E94301A8BE092E05E
:104B30000E946A1380E03FCD0E94AD22882311F0CD
:104B400081E0089580E20E94091D80E10E94091D14
:104B500081E00E94091D82E00E94091D80E0089505
:104B6000EF92FF920F931F93CF93DF93082F8EEF57
:104B700094E00E94451580E40E94A51C882309F456
:104B80005BC140E363E776E08EEF94E00E94D410CF
:104B9000DC012091EA048C91882389F0283C08F0FC
:104BA00023C1E22FF0E0EE5DFB4F80832F5F209367
:104BB000EA0411968C91119711968111EFCF822FF3
:104BC00090E0FC01EE5DFB4F10824091EA043BE374
:104BD000EDE4F3E00CC0DC01AE5DBB4F3C932F5F16
:104BE0003181422F3196822F90E0332329F0283CE7
:104BF00090F398953111FBCF4093EA04FC01EE5DF0
:104C0000FB4F108240E363E776E08EEF94E00E9472
:104C10000211DC012091EA048C91882389F0283C60
:104C200008F0E4C0E22FF0E0EE5DFB4F80832F5FE1
:104C30002093EA0411968C91119711968111EFCF70
:104C4000822F90E0FC01EE5DFB4F10824091EA0460
:104C50003BE3EDE4F3E00CC0DC01AE5DBB4F3C9305
:104C60002F5F3181422F3196822F90E0332329F03C
:104C7000283C90F398953111FBCF4093EA04FC0156
:104C8000EE5DFB4F108224E5029FF0011124DF014D
:104C9000A05ABA4F8C9190E2899FE00DF11D11242A
:104CA000E75FFA4F85899689C1E0D0E07D01EAE2AD
:104CB0000E9F80011124009709F076C08091EA04CC
:104CC00090E3A9EFB1E00CC0E82FF0E0EE5DFB4F00
:104CD00090838F5F11969C9111971196992329F0DB
:104CE000883C90F398959111FBCF8093EA04E82FCC
:104CF000F0E0EE5DFB4F108261E083E796E00E94FA
:104D00002D11DC018C914091EA04882389F0483C04
:104D100008F06EC0E42FF0E0EE5DFB4F80834F5F44
:104D20004093EA0411968C91119711968111EFCF5F
:104D3000242F30E0F901EE5DFB4F1082C031D10528
:104D400009F45AC0F7018081F80190E1899FE00DD4
:104D5000F11D1124EC0FFD1FEE0FFF1FE75FFA4F4F
:104D6000858996896091EA045BE3ECE4F3E00DC089
:104D7000D901AE5DBB4F5C93642F6F5F5181462FAD
:104D80003196262F30E0552329F0483C88F398953A
:104D90005111FBCF6093EA04F901EE5DFB4F1082E5
:104DA0002196009709F48ACF63E776E00E945719AD
:104DB000DC019C918091EA04992381F0883CD0F435
:104DC000E82FF0E0EE5DFB4F90838F5F8093EA0465
:104DD00011969C91119711969111F0CFE82FF0E068
:104DE000EE5DFB4F108288CF9895D6CE989515CF63
:104DF00098958BCF9895E0CF80E40E94441D88233E
:104E000069F080E40E94091D882321F181E0DF918F
:104E1000CF911F910F91FF90EF9008950E94301A4B
:104E20008CE092E00E946A1380E0DF91CF911F91A5
:104E30000F91FF90EF9008950E94301A8AE092E05F
:104E40000E946A1380E0DF91CF911F910F91FF9034
:104E5000EF9008950E94301A8BE092E00E946A134E
:104E600080E0DF91CF911F910F91FF90EF90089517
:104E700080915603811107C00E94301C882359F08D
:104E800081E08093560382E00E94B025811108954D
:104E900080E40C94091D86E892E00C94491A50585D
:104EA000BB27AA270ED048C139D130F03ED120F01F
:104EB00031F49F3F11F41EF42EC10EF4E095E7FB90
:104EC00024C1E92F4AD180F3BA1762077307840718
:104ED000950718F071F49EF562C10EF4E0950B2E63
:104EE000BA2FA02D0B01B90190010C01CA01A0013C
:104EF0001124FF27591B99F0593F50F4503E68F197
:104F00001A16F040A22F232F342F4427585FF3CFD7
:104F1000469537952795A795F0405395C9F77EF4A8
:104F20001F16BA0B620B730B840BBAF09150A1F0F1
:104F3000FF0FBB1F661F771F881FC2F70EC0BA0F77
:104F4000621F731F841F48F4879577956795B795FF
:104F5000F7959E3F08F0B3CF9395880F08F09927F7
:104F6000EE0F9795879508950CD0E6C0DED040F0FF
:104F7000D5D030F021F45F3F19F0C7C0511110C1F6
:104F8000CAC0EBD098F39923C9F35523B1F3951B0D
:104F9000550BBB27AA2762177307840738F09F5F5A
:104FA0005F4F220F331F441FAA1FA9F333D00E2EC9
:104FB0003AF0E0E830D091505040E695001CCAF736
:104FC00029D0FE2F27D0660F771F881FBB1F2617FB
:104FD00037074807AB07B0E809F0BB0B802DBF01CE
:104FE000FF2793585F4F2AF09E3F510568F08DC010
:104FF000D7C05F3FECF3983EDCF3869577956795D5
:10500000B795F7959F5FC9F7880F911D969587957E
:1050100097F90895E1E0660F771F881FBB1F62179D
:1050200073078407BA0720F0621B730B840BBA0B5B
:10503000EE1F88F7E095089598D088F09F5790F07C
:10504000B92F9927B751A0F0D1F0660F771F881FAD
:10505000991F1AF0BA95C9F712C0B13081F09FD0EC
:10506000B1E008959CC0672F782F8827B85F39F08A
:10507000B93FCCF3869577956795B395D9F73EF40C
:1050800090958095709561957F4F8F4F9F4F0895B4
:10509000E89409C097FB3EF49095809570956195D2
:1050A0007F4F8F4F9F4F9923A9F0F92F96E9BB2788
:1050B0009395F695879577956795B795F111F8CF04
:1050C000FAF4BB0F11F460FF1BC06F5F7F4F8F4F6F
:1050D0009F4F16C0882311F096E911C0772321F065
:1050E0009EE8872F762F05C0662371F096E8862FFD
:1050F00070E060E02AF09A95660F771F881FDAF754
:10510000880F9695879597F9089597F99F6780E896
:1051100070E060E008959FEF80EC089500240A9409
:105120001616170618060906089500240A94121682
:105130001306140605060895092E0394000C11F4B5
:10514000882352F0BB0F40F4BF2B11F460FF04C062
:105150006F5F7F4F8F4F9F4F089557FD9058440FBB
:10516000551F59F05F3F71F04795880F97FB991FC6
:1051700061F09F3F79F08795089512161306140683
:10518000551FF2CF4695F1DF08C016161706180610
:10519000991FF1CF86957105610508940895E894EB
:1051A000BB2766277727CB0197F908950BD0C4CF8B
:1051B000B5DF28F0BADF18F0952309F0A6CFABCF02
:1051C0001124EECFCADFA0F3959FD1F3950F50E0E5
:1051D000551F629FF001729FBB27F00DB11D639FA9
:1051E000AA27F00DB11DAA1F649F6627B00DA11D4F
:1051F000661F829F2227B00DA11D621F739FB00DF5
:10520000A11D621F839FA00D611D221F749F332764
:10521000A00D611D231F849F600D211D822F762FFD
:105220006A2F11249F5750408AF0E1F088234AF0FA
:10523000EE0FFF1FBB1F661F771F881F9150504046
:10524000A9F79E3F510570F060CFAACF5F3FECF306
:10525000983EDCF3869577956795B795F795E79532
:105260009F5FC1F7FE2B880F911D9695879597F943
:105270000895A1E21A2EAA1BBB1BFD010DC0AA1F97
:10528000BB1FEE1FFF1FA217B307E407F50720F0AF
:10529000A21BB30BE40BF50B661F771F881F991F2A
:1052A0001A9469F760957095809590959B01AC0173
:1052B000BD01CF010895A29FB001B39FC001A39F7C
:1052C00001D0B29F700D811D1124911D08950E947F
:1052D0005B29A59F900DB49F900DA49F800D911DFB
:1052E00011240895FB01DC0102C005900D9241508C
:1052F0005040D8F70895FC0105900020E9F780950B
:1053000090958E0F9F1F0895FB01DC0101900D9277
:0A5310000020E1F70895F894FFCFA4
:10531A00000002100000000006000000D10A5365D8
:10532A006E736F7220310000000000000000E90077
:10533A0000D10A53656E736F7220320000000000BC
:10534A00000000EA0000D10A53656E736F722033C1
:10535A000000000000000000EB0000D10A53656E57
:10536A00736F7220340000000000000000EC00019E
:10537A00000053656E736F722050726F66696C65B8
:10538A000000ED0001000053797374656D6B6F6E58
:10539A006669672E0000001E010102030400000274
:1053AA000000003609416E617265686C61206C2FDD
:1053BA0073000000001D0100360941756C69206CFC
:1053CA002F7300000000000000001C010001000013
:1053DA0007000000BC0A53797374656D7A656974B5
:1053EA00000000000000000000A50A5665727369FB
:1053FA006F6E000000000000000000000000690A53
:10540A0075414C4641542056657273696F6E0000AF
:10541A00000000360A75414C4641542055706461BB
:10542A007465000000000000210A4665686C657218
:10543A006D656C64756E67656E00000000D0094684
:10544A0065686C6572206C6F65736368656E0000D1
:10545A00000087094D657373756E67656E206C6F02
:10546A0073636800000030303030300058585858A4
:10547A00580075414C464154002A00202D2C2D2DF0
:10548A000075414C46415420557064617465002D85
:10549A002D3E0075414C4641542056657273696F22
:1054AA006E0030303A30303A303000204461746156
:1054BA006C6F6767657220574752200056312E3449
:1054CA00202D2031312E30352E313400303031202C
:1054DA003D00303032203D005820550042203145F1
:1054EA00463400542053004A004F2030413E53595D
:1054FA005354454D2E4C4F47004F2031413E535394
:10550A00455454494E472E4C4F47004F2032413E96
:10551A0053454E534F525F312E4C4F47004F203365
:10552A00413E53454E534F525F322E4C4F47004F28
:10553A002032413E53454E534F525F332E4C4F4714
:10554A00004F2033413E53454E534F525F342E4C49
:10555A004F47004F2030413E535F464153542E433C
:10556A005356005720783E002D2D3E3E2073656E1F
:10557A00736F7273657474696E6773206368616EA2
:10558A00676564203A2000202D200073656E736FD2
:10559A0072200020207374617475732020202020EB
:1055AA00203D2000202074797065202020202020B2
:1055BA0020203D20002020756E69742020202020A4
:1055CA002020203D20002020696E74657276616C6F
:1055DA00202020203D200020206D756C74696661B2
:1055EA0063746F72203D200074656D70203D200049
:1055FA002C20737570706C79203D20003B3B0000B5
:00000001FF
